S00C00004D61696E2E7372656393
S11300000C94F2000C940F010C940F010C940F014A
S11300100C940F010C940F010C940F010C940F011C
S11300200C940F010C940F010C940F010C940F010C
S11300300C940F010C940F010C946F0C0C940F0191
S11300400C940F010C940F010C94D70E0C94050F13
S11300500C940F010C940F010C940F010C940F01DC
S11300600C940F010C940F01A509B609DB09140ABD
S11300704D0AAE0A160B690B084AD73B3BCE016EFC
S113008084BCBFFDC12F3D6C74319ABD56833DDAEB
S11300903D00C77F11BED9E4BB4C3E916BAAAABEFA
S11300A0000000803F006E616E00696E66000040D3
S11300B07A10F35A00A0724E18090010A5D4E80073
S11300C000E87648170000E40B54020000CA9A3B8B
S11300D0000000E1F5050000809698000000404211
S11300E00F000000A086010000001027000000009F
S11300F0E803000000006400000000000A000000A3
S113010000000100000000002C76D888DC674F084E
S113011023DFC1DFAE59E1B1B796E5E3E453C63A54
S1130120E651997696E8E6C28426EB898C9B62EDCB
S1130130407C6FFCEFBC9C9F40F2BAA56FA5F49085
S1130140055A2AF75C936B6CF9676DC11BFCE0E4FC
S11301500D47FEF520E6B500D0ED902E0300943552
S113016077050080841E080000204E0A000000C8A5
S11301700C333333330F986E12831141EF8D2114F6
S1130180893BE65516CFFEE6DB18D1844B381BF7C6
S11301907C1D901DA4BBE424203284725E22810065
S11301A0C9F124ECA1E53D274E414E494E4954592D
S11301B0494E46CDCCCC3D0AD7233C17B7D138772E
S11301C0CC2B329595E6241FB14F0A000020410044
S11301D000C84200401C4620BCBE4CCA1B0E5AAE8E
S11301E0C59D740011241FBECFEFD8E0DEBFCDBF84
S11301F015E0A0E0B1E0EEE6FAE302C005900D924E
S1130200A235B107D9F727E0A2E5B5E001C01D92F8
S1130210A439B207E1F70E94F90D0C94351D0C9432
S1130220000080915605882381F084E291E00E94C9
S1130230760F89B1807861E090E00E9496054F992D
S113024004C084E391E00E94760F89B18095881FF1
S11302508827881F089532990AC0809156058823FB
S113026081F08DE391E00E94760F81E00895809102
S11302705605882341F086E591E00E94760F80E0E0
S1130280089581E0089580E00895CF93DF930E945C
S11302901101C0E2D6E088830E942B0180931F06DF
S11302A08881813089F480912406813009F44EC01C
S11302B08BE691E00E94760FE4E2F6E08081809381
S11302C0230681E0808342C081110BC08091240603
S11302D0813039F48BE791E00E94760F1092240666
S11302E035C020912406211105C0809123068093F6
S11302F024062CC08091570590915805883833E125
S1130300930730F40196909358058093570511C0D4
S113031088E290E09093580580935705233049F084
S11303202093230683E0809324068CE891E00E94C6
S1130330760F80912206882349F082E08093240678
S1130340109222061092580510925705DF91CF9112
S11303500895CF93DF9341988FE097E20197F1F7E7
S113036000C0000080E00E94AF0C875E914024E64C
S1130370289FA001299F500D11249A01A3EDBAE7EB
S11303800E940414481B590BEA01D695C7958C0F9B
S11303909D1F22E028B9EC01CC0FCD2FCC1FDD0B23
S11303A0D195C536D10510F0C4E6D0E0809156054C
S11303B0882361F080EB91E00E94760F60E0CE012B
S11303C00E9496058BEB91E00E94760FCE01DF919F
S11303D0CF9108954F925F926F927F928F929F92E6
S11303E0AF92BF92CF92DF92EF92FF920F931F933F
S11303F0CF93DF937C01EB0182E30E943E0588EA00
S11304000E946E0583E30E943E050E948005482EEB
S11304100E948005582E0E948005682E0E94800547
S1130420782E0E948005882E0E948B05982E0E94AB
S113043065058CE30E943E0583E00E946E058DE312
S11304400E943E050E948005B82E0E948005A82EB9
S11304500E948005182F0E948005082F0E948005A5
S1130460D82E0E948B05C82E0E946505642D70E06D
S11304707529882777FD8095982F0E94B015F7017C
S11304806083718382839383662D70E07729882744
S113049077FD8095982F0E94B015F70164837583CA
S11304A086839783682D70E07929882777FD809566
S11304B0982F0E94B015F701608771878287938710
S11304C06A2D70E07B29882777FD8095982F0E94FC
S11304D0B015688379838A839B836C2D70E07D29B2
S11304E0882777FD8095982F0E94B0156C837D83B3
S11304F08E839F83602F70E0712B882777FD809512
S1130500982F0E94B015688779878A879B87DF9127
S1130510CF911F910F91FF90EF90DF90CF90BF90FC
S1130520AF909F908F907F906F905F904F900895C1
S11305308F929F92AF92BF92CF92DF92EF92FF92EF
S1130540CF93DF93EB010E94EA01C0900C01D0909D
S11305500D01E0900E01F0900F01A7019601688152
S113056079818A819B810E944A144B015C01A70115
S113057096016091000170910101809102019091B6
S113058003010E944A149B01AC01C501B4010E94FD
S113059015159B01AC010E944B1420E030E040E8AB
S11305A05FE30E944A14688379838A839B83C090A3
S11305B01001D0901101E0901201F0901301A701F5
S11305C096016C817D818E819F810E944A144B012A
S11305D05C01A7019601609104017091050180916D
S11305E00601909107010E944A149B01AC01C501C8
S11305F0B4010E9415159B01AC010E944B1420E02C
S113060030E040E85FE30E944A146C837D838E836C
S11306109F83C0901401D0901501E0901601F090D2
S11306201701A7019601688579858A859B850E94B3
S11306304A144B015C01A701960160910801709175
S1130640090180910A0190910B010E944A149B01B7
S1130650AC01C501B4010E9415159B01AC010E94B7
S11306604B1420E030E040E85FE30E944A146887BE
S113067079878A879B87DF91CF91FF90EF90DF90F6
S1130680CF90BF90AF909F908F900895CF92DF92BC
S1130690EF92FF920F931F93CF93DF93CDB7DEB703
S11306A068970FB6F894DEBF0FBECDBF7C01CB01B7
S11306B08A01AE014F5F5F4FB7010E94850FCE01E3
S11306C001960E944A10AE01435F5F4FBE016F5F07
S11306D07F4FC7010E94850FCE010D960E944A10DC
S11306E0B801CE010D960E9406106B017C01B80181
S11306F0CE0101960E940610A70196010E94BE1425
S113070020E030E044E353E40E949E162BED3FE0EA
S113071049E450E40E9415150E94011720E030E0DE
S113072044EB52E40E944A140E947D159B017723F6
S113073014F428593E4FC90168960FB6F894DEBFE9
S11307400FBECDBFDF91CF911F910F91FF90EF901E
S1130750DF90CF9008956F927F928F929F92AF9285
S1130760BF92CF92DF92EF92FF920F931F93CF939A
S1130770DF93CDB7DEB768970FB6F894DEBF0FBE30
S1130780CDBF19821A821B821C821D821E821F8287
S1130790188619861A861B861C861D861E861F8649
S11307A0188A198A1A8A1B8A1C8A1D8A1E8A1F8A19
S11307B0188EE82EF12C1E141F040CF086C000E0E5
S11307C010E00F2EF7E58F2EF7E09F2EF02D0F2E61
S11307D0FBE5AF2EF7E0BF2EF02D0F2EF3E6CF2E64
S11307E0F7E0DF2EF02D0F2EF7E66F2EF7E07F2EC9
S11307F0F02D6FE577E083E597E00E949802209161
S11308005307309154074091550750915607698119
S11308107A818B819C810E944B1469837A838B83B8
S11308209C83F40120813181428153816D817E81D9
S11308308F8198850E944B146D837E838F83988764
S1130840F501208131814281538169857A858B85C7
S11308509C850E944B1469877A878B879C8720919B
S11308605F073091600740916107509162076D8581
S11308707E858F8598890E944B146D877E878F872C
S1130880988BF601208131814281538169897A896B
S11308908B899C890E944B14698B7A8B8B8B9C8BE4
S11308A0F30120813181428153816D897E898F8951
S11308B0988D0E944B146D8B7E8B8F8B988F0F5F5E
S11308C01F4F0E151F050CF494CFB701882777FD31
S11308D08095982F0E94B0156B017C019B01AC019F
S11308E069817A818B819C810E94151569837A8341
S11308F08B839C83A70196016D817E818F8198856E
S11309000E9415156D837E838F839887A7019601B6
S113091069857A858B859C850E94151569877A87F8
S11309208B879C87A70196016D857E858F85988925
S11309300E9415156D877E878F87988BA701960176
S113094069897A898B899C890E941515698B7A8BB0
S11309508B8B9C8BA70196016D897E898F89988DDD
S11309600E9415156D8B7E8B8F8B988F48E151E01B
S1130970BE01635F7F4FCE0101960E9446036896D5
S11309800FB6F894DEBF0FBECDBFDF91CF911F919C
S11309900F91FF90EF90DF90CF90BF90AF909F901A
S11309A08F907F906F900895CF93DF93D82FC62FA9
S11309B082E30E943E058D2F0E946E058C2F0E94BB
S11309C06E050E946505DF91CF910895CF93DF9363
S11309D0D82FC62F8CE30E943E058D2F0E946E05F2
S11309E08C2F0E946E050E946505DF91CF910895BA
S11309F00E94380568E083E20E94D40467E480E240
S1130A000E94D4046CE880E00E94E60460E281E085
S1130A100E94E60460E082E00E94E6040895CF9319
S1130A20DF938CE30E943E0581E30E946E058DE313
S1130A300E943E050E948005C82F0E948B05D82F76
S1130A400E9465052D2F30E0C9019C2B9595879553
S1130A5095958795959587959595879599230CF404
S1130A6003969595879595958795DF91CF910895F0
S1130A701092B90082E08093B800089594EA9093AC
S1130A80BC00ECEBF0E090819923ECF79091B90075
S1130A90987F983011F09031A1F48093BB0084E8E2
S1130AA08093BC00ECEBF0E080818823ECF790911C
S1130AB0B900987F983139F081E0903429F480E0CE
S1130AC0089581E0089580E0089584E98093BC004E
S1130AD0ECEBF0E0808184FDFDCF08958093BB00B2
S1130AE084E88093BC00ECEBF0E080818823ECF791
S1130AF09091B900987F81E0983209F480E00895DC
S1130B0084EC8093BC00ECEBF0E080818823ECF76C
S1130B108091BB00089584E88093BC00ECEBF0E086
S1130B2080818823ECF78091BB0008951F93CF93B5
S1130B30DF93CDB7DEB728970FB6F894DEBF0FBEAC
S1130B40CDBF162F4AE0BE016F5F7F4F0E94F7189A
S1130B50CE0101960E94760F112321F08CE893E0D8
S1130B600E94760F28960FB6F894DEBF0FBECDBF55
S1130B70DF91CF911F910895FF920F931F93CF930D
S1130B80DF93CDB7DEB764970FB6F894DEBF0FBE20
S1130B90CDBFF42E8E010F5F1F4F27E04AE00E9465
S1130BA08817C8010E94760FFF2021F08CE893E09B
S1130BB00E94760F64960FB6F894DEBF0FBECDBFC9
S1130BC0DF91CF911F910F91FF9008951F93CF93C1
S1130BD0DF93CDB7DEB728970FB6F894DEBF0FBE0C
S1130BE0CDBF182FCB014AE0BE016F5F7F4F0E943B
S1130BF0F718812F0E94610F8DE30E94610FCE01CF
S1130C0001960E94760F8AE00E94610F28960FB623
S1130C10F894DEBF0FBECDBFDF91CF911F91089531
S1130C20CF93DF93CDB7DEB760970FB6F894DEBFEE
S1130C300FBECDBF6DE370E086E296E00E94B3186C
S1130C40BC016F5F7F4FCE0101960E94BE18CE019A
S1130C5001960E94AD17BC01882777FD8095982FD7
S1130C6060960FB6F894DEBF0FBECDBFDF91CF9173
S1130C7008952F923F924F925F926F927F928F923C
S1130C809F92AF92BF92CF92DF92EF92FF920F9317
S1130C901F93CF93DF93CDB7DEB7C654D1090FB6F8
S1130CA0F894DEBF0FBECDBFFE01319682E3DF01B3
S1130CB01D928A95E9F78091250690E0039718160E
S1130CC01906D4F480E090E040E0E1E0F0E0EC0FBD
S1130CD0FD1FE80FF91FDC01AA5DB94F11968C9135
S1130CE080834F5F842F90E02091250630E02350CD
S1130CF03109821793074CF38FEE92E00E94760F2E
S1130D008E010F5F1F4F7E01B3E3EB0EF11CF80160
S1130D1081918F010E94610F0E151F05C1F787EFA6
S1130D2092E00E94760FE6E2F6E001900020E9F7F7
S1130D3034978081853629F08AEF92E00E94760FFD
S1130D4084C06AE272E0CE0101960E94AE180E944D
S1130D50A917162F072F382E292E6BE073E080E099
S1130D6090E00E94AE180E94A917762E672E582E86
S1130D70492E6AE272E080E090E00E94AE180E9480
S1130D80A917B62EA72E982E892E6AE272E080E06B
S1130D9090E00E94AE180E94A917F62EE72ED82ED6
S1130DA0C92E2F923F920F931F932DE033E03F9370
S1130DB02F938E010D5C1F4F1F930F930E945619A2
S1130DC0C8010E94760F8CE893E00E94760F4F9240
S1130DD05F926F927F922EE133E03F932F931F93A4
S1130DE00F930E945619C8010E94760F8CE893E075
S1130DF00E94760F8F929F92AF92BF922FE233E0C0
S1130E003F932F931F930F930E945619C8010E947A
S1130E10760F8CE893E00E94760FCF92DF92EF92E8
S1130E20FF9280E493E09F938F931F930F930E940C
S1130E3056190FB6F894DEBF0FBECDBFC8010E948D
S1130E40760F8CE893E00E94760F80E0CA5BDF4F58
S1130E500FB6F894DEBF0FBECDBFDF91CF911F91C7
S1130E600F91FF90EF90DF90CF90BF90AF909F9045
S1130E708F907F906F905F904F903F902F90089548
S1130E8080912606833559F020F48D3409F454C03A
S1130E904FC0863541F1823609F447C049C080917C
S1130EA027068F3361F482E593E00E94760F609108
S1130EB054057091550583E50E94E6053DC08D33C8
S1130EC0D9F50E941006709355056093540581E688
S1130ED093E00E94760F609154057091550583E567
S1130EE00E94E60529C080912706813311F480E42D
S1130EF08BB980912706803309F45E988091270688
S1130F00833539F483E793E00E94760F82E00E94F0
S1130F101A0C809127068C3479F483E793E00E94BD
S1130F20760F83E00E941A0C07C00E94390604C0A1
S1130F308DE793E00E94760F1092EE060895CF930A
S1130F400E94480F9C0122273171232B09F040C0D5
S1130F509C0122273A70232BD9F5E0912506F0E075
S1130F60EA5DF94F8083E0912506F0E0EA5DF94FF0
S1130F7080818A3041F58EE893E00E94760F80915B
S1130F802506882369F0C0E0EC2FF0E0EA5DF94F14
S1130F9080810E94610FCF5F80912506C817A0F35E
S1130FA087EF92E00E94760F81E08093EE060E9424
S1130FB040071092250684E6E6E2F6E0DF011D9282
S1130FC08A95E9F705C0809125068F5F80932506F1
S1130FD0CF91089584E3E4ECF5E0DF011D928A9556
S1130FE0E9F70895009769F020E030E0EFECF7E0CE
S1130FF03197F1F700C000002F5F3F4F28173907E2
S1131000A9F708958D30910528F52091FA0522233A
S113101009F1FC01319730E0DF01AA0FBB1FEA0F91
S1131020FB1FE559F84F629FD001639FB00D112457
S1131030B183529FB001539F700D11247083429F5E
S1131040B001439F700D11247283BC018BE697E0BD
S11310500E94490C0895EF92FF920F931F93CF9330
S1131060DF938B01893621E0920710F088E691E046
S1131070009749F4CCE0D0E081E090E0FF24F394C1
S1131080EE24E39416C09C01A9E8B8E80E94041475
S1131090EC01D295C295CF70CD27DF70CD27FC2E01
S11310A0F3948F2D90E0DD272C96C817D90744F7C9
S11310B02DC02CE02F1580F4EE2DF0E0EE0FFF1F75
S11310C0EE0FFF1FEC53FA4F40815181628173810F
S11310D00C970E94020810C0EE2DF0E0EE0FFF1FE7
S11310E0EE0FFF1FEC53FA4F4081518162817381EF
S11310F08F2D90E00E940208E394C8010E94F20739
S1131100F3948F2D90E0C817D9079CF6DF91CF9107
S11311101F910F91FF90EF9008950F931F93962FB7
S113112050E060E070E0592B8A019B01282BC90133
S1131130B8011F910F9108958093FA0581E00895F5
S11311408091FA050895CF93DF930E94EA07C0E0E7
S1131150D0E040E050E0BA01CE010E94020821969E
S1131160CD30D105B1F7DF91CF910895883030F4B7
S11311708093F9051092590581E0089580E008955F
S11311808091F90508950F93853608F084E6E82FD9
S1131190E695E695E69561111EC0843649F42093E0
S11311A0C8053093C9054093CA055093CB050CC0BC
S11311B0EF5FF0E0EE0FFF1FEE0FFF1FEC53FA4F4F
S11311C02083318342835383602F70E080E090E07A
S11311D00E942B0825C0613019F5843609F4E150CA
S11311E0AE2FB0E01296A230B105A4F081E090E0F9
S11311F071E0FC01EE0FFF1FEE0FFF1FEC53FA4FDF
S113120020833183428353837F5F872F90E08A1743
S11312109B077CF3602F70E080E090E00E942B0835
S11312200F9108958F929F92AF92BF92CF92DF92C7
S1131230EF92FF920F931F93CF93DF938B01F42EC2
S11312406817790720F0EB01C81BD90B05C0EB0127
S1131250C81BD90BC859DE4F0E94EA0781E0F81673
S113126009F1F81608F45AC082E0F81609F461C0CE
S113127083E0F812BEC281E090915B05911180E099
S113128080935B05882309F4B8C280E090E0AFEF57
S1131290B0E08093C8059093C905A093CA05B093A4
S11312A0CB05ABC2809120068130A9F510915A0577
S11312B031E020E040E054E66FEF70E08FEF90E023
S11312C0A0E0B0E0273068F4E32FF0E0EE0FFF1F5A
S11312D0EE0FFF1FEC53FA4F80839183A283B383F5
S11312E00CC0E32FF0E0EE0FFF1FEE0FFF1FEC53D7
S11312F0FA4F40835183628373832F5F3F5F1217DA
S113130008F71F5F10935A051D3028F083E080937F
S1131310210610925A05109259056FC280915A0500
S1131320873008F072C281E08093210610925A053A
S113133064C24091F90550E04830510508F04CC2B0
S1131340FA01EC5CFF4F0C94FE138091FB05909125
S1131350FC05A091FD05B091FE058093C80590930E
S1131360C905A093CA05B093CB053AC28091FB0589
S11313709091FC05A091FD05B091FE058093C805F0
S11313809093C905A093CA05B093CB0580E094E679
S1131390AFEFB0E08093CC059093CD05A093CE053C
S11313A0B093CF058093F4059093F505A093F605CB
S11313B0B093F70515C28091FB059091FC05A091AF
S11313C0FD05B091FE058093C8059093C905A093CF
S11313D0CA05B093CB059801215F3F4FA9E8B8E84F
S11313E00E940414929582958F7089279F70892793
S11313F080FF0DC080E094E6AFEFB0E08093F40589
S11314009093F505A093F605B093F705E9C180E044
S113141094E6AFEFB0E08093CC059093CD05A09314
S1131420CE05B093CF05DCC18091FB059091FC05FE
S1131430A091FD05B091FE058093C8059093C90560
S1131440A093CA05B093CB058093D8059093D90592
S1131450A093DA05B093DB058093DC059093DD055A
S1131460A093DE05B093DF058093E0059093E1053A
S1131470A093E205B093E3058093E4059093E5051A
S1131480A093E605B093E7058093E8059093E905FA
S1131490A093EA05B093EB05A3C1C090FB05D090DF
S11314A0FC05E090FD05F090FE05C092C805D092C1
S11314B0C905E092CA05F092CB059801215F3F4F20
S11314C0A9E8B8E80E940414929582958F70892740
S11314D09F70892780FF0DC080E094E6AFEFB0E0F5
S11314E08093F4059093F505A093F605B093F70562
S11314F00CC080E094E6AFEFB0E08093CC0590930D
S1131500CD05A093CE05B093CF05C092D805D09257
S1131510D905E092DA05F092DB05C092DC05D092A1
S1131520DD05E092DE05F092DF05C092E005D09281
S1131530E105E092E205F092E305C092E405D09261
S1131540E505E092E605F092E705C092E805D09241
S1131550E905E092EA05F092EB0542C1C090FB0573
S1131560D090FC05E090FD05F090FE05C092C80502
S1131570D092C905E092CA05F092CB058090190675
S113158090901A06A0901B06B0901C0620E030E054
S113159040E85FE3C501B4010E949316882384F0F8
S11315A0C092CC05D092CD05E092CE05F092CF0545
S11315B0C092F405D092F505E092F605F092F70595
S11315C020E030E040E250E4C501B4010E949316EB
S11315D0882384F0C092D005D092D105E092D20540
S11315E0F092D305C092F005D092F105E092F20595
S11315F0F092F30520E030E040EA50E4C501B40184
S11316000E94931688230CF4EBC0C092D405D092A8
S1131610D505E092D605F092D705C092EC05D0929C
S1131620ED05E092EE05F092EF05DAC08091FB053E
S11316309091FC05A091FD05B091FE058093C8052D
S11316409093C905A093CA05B093CB052091590581
S11316502130A9F018F0223019F134C08093D40558
S11316609093D505A093D605B093D7058093EC0548
S11316709093ED05A093EE05B093EF05CAC0809357
S1131680D0059093D105A093D205B093D305809350
S1131690F0059093F105A093F205B093F305B9C05A
S11316A08093CC059093CD05A093CE05B093CF0540
S11316B08093F4059093F505A093F605B093F70590
S11316C020E004C02F5F233008F020E02093590568
S11316D087C08091FB059091FC05A091FD05B09118
S11316E0FE058093C8059093C905A093CA05B093DD
S11316F0CB05209159052130B1F120F0223009F4B5
S113170053C063C08093CC059093CD05A093CE05C0
S1131710B093CF058093D0059093D105A093D205C3
S1131720B093D3058093D4059093D505A093D605A3
S1131730B093D7058093EC059093ED05A093EE0547
S1131740B093EF058093F0059093F105A093F20513
S1131750B093F3058093F4059093F505A093F605F3
S1131760B093F70558C08093CC059093CD05A09312
S1131770CE05B093CF058093D0059093D105A09367
S1131780D205B093D3058093F0059093F105A0930F
S1131790F205B093F3058093F4059093F505A093B7
S11317A0F605B093F70537C08093CC059093CD052B
S11317B0A093CE05B093CF058093F4059093F505DF
S11317C0A093F605B093F70526C02F5F243008F0E8
S11317D020E02093590504C086EB93E00E94760F25
S11317E080910006882349F081ED93E00E94760FF2
S11317F004C088EE93E00E94760F60E070E0CE01B2
S11318000E942B081092F80508C082E080932106FC
S11318108DCD2F5F5BCF2F5FDCCFDF91CF911F91F9
S11318200F91FF90EF90DF90CF90BF90AF909F907B
S11318308F900895CF93DF93813031F038F0823068
S113184041F08330A9F022C05E9820C080E48BB9B7
S11318501DC0C3E0D0E4DBB984EF91E00E94F2073D
S11318605E9884EF91E00E94F207C150A1F70EC088
S1131870C3E0D0E4DBB988EE93E00E94F2075E98FF
S113188084EF91E00E94F207C150A1F7DF91CF915C
S113189008959B01220F331F620F731F209A35B1E5
S11318A03E7F45B14160AFB7F8946115710589F089
S11318B0FC01860F971F219158E045B927FF35B9E0
S11318C0220F000000C035B95A95B9F7E817F90797
S11318D091F7AFBF85E88A95F1F7000008951F924C
S11318E00F920FB60F9211248F9380915E058F5F34
S11318F080935E0580915E05833028F081E08093BB
S1131900F80510925E058F910F900FBE0F901F90F7
S1131910189557985F9A3A983B9A209A399A82E098
S113192088B9089584B5826084BD88EF87BDEEE6EA
S1131930F0E080818260808385B5856085BD789480
S11319400895ECE7F0E0808180648083EAE7F0E0CA
S11319508081876080838081806880830895ECE73C
S1131960F0E090818F70907F982B9083EAE7F0E00D
S1131970808180648083808186FDFDCF80917800A2
S1131980909179000895CF92DF92EF92FF920F9396
S1131990809121068230B1F0833021F1813009F049
S11319A056C08091F905882319F081508093F90578
S11319B080915605882309F44EC089EF93E00E9474
S11319C0760F49C08091F905873018F48F5F8093B2
S11319D0F905809156058823F1F186E194E00E948F
S11319E0760F39C02FE78FE492E121508040904078
S11319F0E1F700C000000E94A3082FE78AE196E007
S1131A00215080409040E1F700C0000040E06FEFBB
S1131A1080E00E948D086B017C010E94A90104E60C
S1131A20A701960161E00E94C3082FE78FE492E1C9
S1131A30215080409040E1F700C00000809156059D
S1131A40882349F084E394E00E94760F04C080E583
S1131A5094E00E94760F109221060F91FF90EF9070
S1131A60DF90CF900895EF92FF920F931F93CF933F
S1131A70DF937C018AE00E94AB038C01E701C81B61
S1131A80D90BC53BD10514F0C856D14080915605F9
S1131A908823C9F087EC94E00E94760F60E0C701C8
S1131AA00E94960581ED94E00E94760F60E0C801E3
S1131AB00E94960588ED94E00E94760F60E080E035
S1131AC090E00E949605CB35D105D4F080915C0559
S1131AD090915D054997A0F480915605882321F0E3
S1131AE081EE94E00E94760F80915C0590915D05F3
S1131AF0019690935D0580935C058E2D9F2D0EC0FD
S1131B0080915605882321F08CEE94E00E94760F94
S1131B1010925D0510925C05802F912FDF91CF917B
S1131B201F910F91FF90EF9008958AE090E00E943A
S1131B30DC198093FA0588E090E00E94DC19809318
S1131B40F90580E090E00E94D6196093FB0570933C
S1131B50FC058093FD059093FE0586E090E00E94CD
S1131B60DC198093000684E090E00E94DC198093E5
S1131B70FF0508958DE20E949C0880E00E94B6084B
S1131B8040E06FEF88EC0E948D086093FB05709332
S1131B90FC058093FD059093FE05109200061092BB
S1131BA0FF050E94A008682F70E08AE090E00E9480
S1131BB0EE190E94C008682F70E088E090E00E944F
S1131BC0EE1940E06FEF88EC0E948D08AB01BC0178
S1131BD080E090E00E94E21960E070E086E090E02E
S1131BE00E94EE1960E070E084E090E00E94EE193B
S1131BF008950E94890C0E94920C0E94A10C83E318
S1131C0090E00E942F0F78940E94F804C3E0D0E47F
S1131C10DBB98EEE92E00E94F2075E988AEF90E0C4
S1131C200E94F207C150A1F783E0809324068093B9
S1131C3023068AE00E94AB03BC01882777FD8095C8
S1131C40982F0E94B015609311067093120680932A
S1131C501306909314068CE090E00E94DC19892B03
S1131C6061F060E070E08CE090E00E94EE190E9468
S1131C70BA0D81EF94E00E94760F0E94950D8CE1DD
S1131C8095E00E94760F41E060E070E080E89FE319
S1131C900E94BC0540E06FEF88EC0E948D086093C1
S1131CA0FB057093FC058093FD059093FE050E944F
S1131CB0A3080E94A901CDE1D6E0888380EB91E0DE
S1131CC00E94760F888160E090E00E9496058BEB7D
S1131CD091E00E94760F0E94A3080E940F05CEE1B6
S1131CE0D6E0888386E992E00E94760F888160E0DE
S1131CF090E00E94960585EA92E00E94760F8BE2BE
S1131D0095E00E94760FC1E1D6E00F2EF8EFEF2E9A
S1131D10F5E0FF2EF02D0F2EF4E2AF2EF6E0BF2EED
S1131D20F02D0F2EF5E1CF2EF6E0DF2EF02D01E29F
S1131D3016E00E949F078091EE06688179818A816E
S1131D409B810E948215CB010E94330DBC0180E06F
S1131D5090E00E94AE15688379838A839B83F701A0
S1131D6080818823C1F00E944501F6016081718160
S1131D70828193810E9482152B013C0168817981C3
S1131D808A819B810E948215DC01CB01F50140818F
S1131D90B2010E941209F801808181110E94C30CD2
S1131DA08FEC97E00197F1F700C00000C2CF1F92BB
S1131DB00F920FB60F9211242F938F939F93EF934B
S1131DC0FF938091C0002091C6008871E091610565
S1131DD0EF5FEF7390916005E91739F0E0936105C7
S1131DE0F0E0EC59FA4F208301C082E090915F0546
S1131DF0892B80935F05FF91EF919F918F912F9194
S1131E000F900FBE0F901F9018951F920F920FB650
S1131E100F9211248F939F93EF93FF9390916305F7
S1131E2080916205981769F0E0916205EF5FEF71A8
S1131E30E0936205F0E0EC55FA4F80818093C60090
S1131E4005C0E1ECF0E080818F7D8083FF91EF910C
S1131E509F918F910F900FBE0F901F901895109225
S1131E606305109262051092610510926005992332
S1131E7024F422E02093C0009F779093C5008093C0
S1131E80C40088E98093C10086E08093C20008956D
S1131E909091610580916005981781F0E09160054B
S1131EA0EF5FEF73E0936005F0E0EC59FA4F808147
S1131EB090915F0510925F0590E0089580E091E0B5
S1131EC00895209163052F5F2F7190916205291762
S1131ED0E1F3E22FF0E0EC55FA4F808320936305A1
S1131EE0E1ECF0E08081806280830895CF93DF93FA
S1131EF0EC018881882331F021960E94610F899139
S1131F008111FBCFDF91CF910895AF92BF92CF9211
S1131F10DF92EF92FF920F931F93CF93DF93EC0125
S1131F208B015A01FB0120853185428553856C81E3
S1131F307D818E819F810E949E166B017C01F80138
S1131F402481358146815781688579858A859B8579
S1131F500E949E169B01AC01C701B6010E944A145F
S1131F60F5016083718382839383F8012081318139
S1131F7042815381688579858A859B850E949E1656
S1131F806B017C01F8012085318542855385688188
S1131F9079818A819B810E949E169B01AC01C701B5
S1131FA0B6010E944A14F50164837583868397837E
S1131FB0F8012481358146815781688179818A813C
S1131FC09B810E949E166B017C01F8012081318166
S1131FD0428153816C817D818E819F810E949E16F6
S1131FE09B01AC01C701B6010E944A14F501608748
S1131FF0718782879387DF91CF911F910F91FF9013
S1132000EF90DF90CF90BF90AF900895CF92DF9282
S1132010EF92FF920F931F93CF93DF93EC018B0109
S1132020FB012081318142815381688179818A81D8
S11320309B810E949E166B017C01F80124813581ED
S1132040468157816C817D818E819F810E949E167D
S11320509B01AC01C701B6010E944B146B017C01CA
S1132060F8012085318542855385688579858A857F
S11320709B850E949E169B01AC01C701B6010E947C
S11320804B14DF91CF911F910F91FF90EF90DF9050
S1132090CF900895CF92DF92EF92FF92CF93DF9388
S11320A0EC01BC010E9406100E9425176B017C0103
S11320B09B01AC01688179818A819B810E941515FD
S11320C0688379838A839B83A70196016C817D81D0
S11320D08E819F810E9415156C837D838E839F83DF
S11320E0A7019601688579858A859B850E941515C7
S11320F0688779878A879B87DF91CF91FF90EF90DC
S1132100DF90CF900895A3E1B0E0E9E8F0E10C940A
S113211013147C011B016A01FC011782168283815E
S113212081FF66C3BE016F5F7F4F4B01F70193814F
S1132130F10193FD859193FF81911F01882309F497
S113214053C3853239F493FD859193FF81911F0127
S1132150853239F4B70190E00E94241956016501D3
S1132160E5CF10E0512C20E02032A0F48B3269F04E
S113217030F4803259F0833269F420612CC08D32FE
S113218039F0803339F4216026C02260246023C0F2
S1132190286021C027FD27C030ED380F3A3078F48D
S11321A026FF06C0FAE01F9F300D1124132F13C021
S11321B06AE0569E300D1124532E20620CC08E32DC
S11321C021F426FD11C3206406C08C3611F4206866
S11321D002C0883641F4F10193FD859193FF81910A
S11321E01F018111C1CF9BEB980F933018F420612C
S11321F0805E06C09BE9980F933008F0AAC12F7E39
S113220026FF16E02F73722E853621F4F22FF06428
S11322107F2E08C0863621F4622F6068762E02C0B5
S11322201111115077FE07C01C3348F44424439421
S1132230410E27E00BC0183030F4212F06C027E0F0
S11322404CE3442E03C027E017E0412C560174E010
S1132250A70EB11CF6016081718182819381042DE6
S1132260A4010E94CB176C01098100FF02C003FF87
S113227006C071FC07C072FC08C0612C08C03DE2B6
S1132280632E05C02BE2622E02C090E2692E802FDD
S11322908C7099F1662011F084E001C083E085150B
S11322A010F0512C0BC0581A73FC08C0B70180E21F
S11322B090E00E9424195A94C9F7F3CF662029F0BC
S11322C0B701862D90E00E94241903FD03C00AEA99
S11322D010E002C006EA10E0F72DF0717F2EF8013D
S11322E08491882309F476C271108052B70190E07A
S11322F00E9424190F5F1F4FF2CF77FE0FC04C0CC2
S113230004FF04C08A81813309F44A94141474F5D7
S1132310F8E0F41578F588E0482E2CC076FC2AC045
S1132320812F90E08C159D059CF06CEFC6166FEF25
S1132330D60674F0772D7068772E0AC0E2E0F0E0DC
S1132340EC0FFD1FE10FF11D8081803319F4115052
S11323501111F4CF77FE0EC044244394410E812F13
S113236090E0C816D9062CF41C1904C044244394E4
S113237001C010E077FE07C01C141D043CF4960154
S11323802F5F3F4F05C025E030E002C021E030E080
S1132390662011F02F5F3F4F112331F0412F50E0A1
S11323A04F5F5F4F240F351F452D50E0241735072D
S11323B014F4521A01C0512C872D897049F4552008
S11323C039F0B70180E290E00E9424195A94F7CFC3
S11323D0662029F0B701862D90E00E94241973FC31
S11323E009C0552039F0B70180E390E00E94241918
S11323F05A94F7CF77FE5FC09C2D8D2DD7FE02C077
S113240090E080E0692E782E40E050E0C601841907
S113241091099D878C87960126193709280D391D46
S1132420812F90E0EE27FF27E81BF90BFF87EE874B
S1132430FFEF6F167F0669F4B7018EE290E02B8BF5
S11324403A8B488B598B0E942419598948893A89B7
S11324502B89C614D70454F06C857D8566157705E1
S11324602CF4F901E40FF51F818101C080E371E0D0
S1132470671A71084F5F5F4FEE85FF856E167F0602
S11324806CF0B70190E02B8B3A8B488B598B0E94F0
S113249024192B893A8948895989CACF6C147D0437
S11324A039F49A81963318F4953311F404FF81E3D7
S11324B0B70190E04BC08A81813309F00F7EB701E8
S11324C090E00E942419111105C074FE18C085E41F
S11324D090E017C0B7018EE290E00E94241982E0D8
S11324E066246394680EF401E80FF11D8081B7013E
S11324F090E00E942419115041F3862DF1CF85E616
S113250090E0B7010E942419D7FC05C0C114D1047E
S113251039F404FF05C0D194C194D1088DE201C0FF
S11325208BE2B70190E00E94241980E36AE0C616AA
S1132530D1042CF08F5FFAE0CF1AD108F7CFB7019E
S113254090E00E942419B701C601C0960E94241984
S113255041C1833631F0833779F0833509F058C0AF
S113256021C0560172E0A70EB11CF6018081898357
S113257001E010E0640114C05601F2E0AF0EB11C9A
S1132580F601C080D18026FF03C0612F70E002C035
S11325906FEF7FEFC6012B8B0E94C5188C012B892E
S11325A02F7715C05601F2E0AF0EB11CF601C080C2
S11325B0D18026FF03C0612F70E002C06FEF7FEF70
S11325C0C6012B8B0E94A3188C012B892068722EC4
S11325D023FD1AC0852D90E008171907A8F4B70148
S11325E080E290E00E9424195A94F4CFF60177FC1B
S11325F0859177FE81916F01B70190E00E942419C3
S113260051105A94015011090115110579F7E2C0CE
S1132610843611F0893651F5560127FF09C0F4E0DC
S1132620AF0EB11CF60160817181828193810AC071
S1132630F2E0AF0EB11CF60160817181882777FD4D
S11326408095982F022F0F7697FF08C0909580955C
S1132650709561957F4F8F4F9F4F00682AE030E05F
S1132660A4010E947819C82EC8183EC0022F8537CD
S113267021F40F7E2AE030E01DC0097F8F3691F0EF
S113268018F4883559F0B0C0803719F0883711F044
S1132690ABC0006104FF09C0046007C024FF08C088
S11326A0066006C028E030E005C020E130E002C04A
S11326B020E132E0560107FF09C0F4E0AF0EB11C7F
S11326C0F601608171818281938108C0F2E0AF0ECE
S11326D0B11CF6016081718180E090E0A4010E9448
S11326E07819C82EC8180F7706FF0BC0202F2E7F2D
S11326F0C11650F404FF0AC002FD08C0202F2E7E2C
S113270005C0DC2C202F03C0DC2C01C0D12E24FFFB
S11327100DC0FE01EC0DF11D8081803311F4297E82
S113272009C022FF06C0D394D39404C0822F8678B4
S113273009F0D39423FD13C020FF06C01C2DD5142B
S113274018F4150D1D19D52CD51468F4B70180E2C1
S113275090E02B8B0E942419D3942B89F5CFD514A8
S113276010F45D1801C0512C24FF12C0B70180E39E
S113277090E02B8B0E9424192B8922FF17C021FF84
S113278003C088E590E002C088E790E0B7010CC080
S1132790822F867859F021FD02C080E201C08BE2CD
S11327A027FD8DE2B70190E00E942419C11638F488
S11327B0B70180E390E00E9424191150F7CFCA9426
S11327C0F401EC0DF11D8081B70190E00E94241901
S11327D0C110F5CF552009F4C2CCB70180E290E0D6
S11327E00E9424195A94F6CFF7018681978102C07A
S11327F08FEF9FEF6396E2E10C942F14EE0FFF1F0F
S11328000590F491E02D0994A29FB001B39FC001FB
S1132810A39F700D811D1124911DB29F700D811D08
S11328201124911D08952F923F924F925F926F92BF
S11328307F928F929F92AF92BF92CF92DF92EF924C
S1132840FF920F931F93CF93DF93CDB7DEB7CA1BCD
S1132850DB0B0FB6F894DEBF0FBECDBF09942A88F8
S1132860398848885F846E847D848C849B84AA84A0
S1132870B984C884DF80EE80FD800C811B81AA812D
S1132880B981CE0FD11D0FB6F894DEBF0FBECDBFF8
S1132890ED0108955058BB27AA270ED00AC2FBD1D8
S11328A030F000D220F031F49F3F11F41EF4CBC17C
S11328B00EF4E095E7FBB3C1E92F0CD280F3BA170D
S11328C0620773078407950718F071F49EF524C214
S11328D00EF4E0950B2EBA2FA02D0B01B901900137
S11328E00C01CA01A0011124FF27591B99F0593F7B
S11328F050F4503E68F11A16F040A22F232F342FC3
S11329004427585FF3CF469537952795A795F04010
S11329105395C9F77EF41F16BA0B620B730B840B25
S1132920BAF09150A1F0FF0FBB1F661F771F881FDD
S1132930C2F70EC0BA0F621F731F841F48F4879535
S113294077956795B795F7959E3F08F0B3CF939524
S1132950880F08F09927EE0F9795879508959BD1D6
S113296058F080E891E009F49EEF9CD128F040E80B
S113297051E059F45EEF09C066C1CEC1E92FE07899
S1132980A9D168F3092E052AC1F32617370748078A
S1132990590738F00E2E07F8E02569F0E025E064C9
S11329A00AC0EF6307F8009407FADB01B9019D013F
S11329B0DC01CA01AD01EF9347D07BD10AD05F910E
S11329C0552331F02BED3FE049E450FD49EC63CF52
S11329D00895DF93DD27B92FBF7740E85FE316162C
S11329E0170648075B0710F4D92FA1D19F938F9343
S11329F07F936F9368D2E8E7F0E028D15AD12F9102
S1132A003F914F915F91A6D1DD2349F09058A2EAFE
S1132A102AED3FE049EC5FE3D0785D274DDFDF919D
S1132A2048C1D9D008F481E008950CD042C13AD10C
S1132A3040F031D130F021F45F3F19F0F0C0511172
S1132A406CC101C147D198F39923C9F35523B1F35C
S1132A50951B550BBB27AA2762177307840738F009
S1132A609F5F5F4F220F331F441FAA1FA9F333D068
S1132A700E2E3AF0E0E830D091505040E695001C1C
S1132A80CAF729D0FE2F27D0660F771F881FBB1FD8
S1132A90261737074807AB07B0E809F0BB0B802DB2
S1132AA0BF01FF2793585F4F2AF09E3F510568F0FE
S1132AB0B6C033C15F3FECF3983EDCF3869577955F
S1132AC06795B795F7959F5FC9F7880F911D969500
S1132AD0879597F90895E1E0660F771F881FBB1F5C
S1132AE0621773078407BA0720F0621B730B840B09
S1132AF0BA0BEE1F88F7E095089504D06894B111DD
S1132B000CC10895EFD088F09F5790F0B92F992702
S1132B10B751A0F0D1F0660F771F881F991F1AF0E4
S1132B20BA95C9F712C0B13081F0F6D0B1E008957A
S1132B30F3C0672F782F8827B85F39F0B93FCCF3FB
S1132B40869577956795B395D9F73EF490958095DA
S1132B50709561957F4F8F4F9F4F0895E89409C0FA
S1132B6097FB3EF490958095709561957F4F8F4FBC
S1132B709F4F9923A9F0F92F96E9BB279395F695D2
S1132B80879577956795B795F111F8CFFAF4BB0F50
S1132B9011F460FF1BC06F5F7F4F8F4F9F4F16C0B4
S1132BA0882311F096E911C0772321F09EE8872F3E
S1132BB0762F05C0662371F096E8862F70E060E0FA
S1132BC02AF09A95660F771F881FDAF7880F969573
S1132BD0879597F90895990F0008550FAA0BE0E817
S1132BE0FEEF16161706E807F907C0F012161306CB
S1132BF0E407F50798F0621B730B840B950B39F40B
S1132C000A2661F0232B242B252B21F408950A2670
S1132C1009F4A140A6958FEF811D811D089597F9B0
S1132C209F6780E870E060E008959F3F31F0915025
S1132C3020F4879577956795B795880F911D96959C
S1132C40879597F908959FEF80EC0895DF93CF93CC
S1132C501F930F93FF92EF92DF927B018C01689494
S1132C6005C0DA2EEF0176D0FE01E894A5912591F6
S1132C70359145915591AEF3EF011EDEFE019701AA
S1132C80A801DA9479F7DF90EF90FF900F911F91EC
S1132C90CF91DF91089500240A941616170618069A
S1132CA00906089500240A9412161306140605064C
S1132CB00895092E0394000C11F4882352F0BB0FDD
S1132CC040F4BF2B11F460FF04C06F5F7F4F8F4F40
S1132CD09F4F089557FD9058440F551F59F05F3F7B
S1132CE071F04795880F97FB991F61F09F3F79F02A
S1132CF087950895121613061406551FF2CF4695AC
S1132D00F1DF08C0161617061806991FF1CF86952D
S1132D107105610508940895E894BB276627772711
S1132D20CB0197F9089557DF08F48FEF08959B01BD
S1132D30AC0160E070E080E89FE377CE0BD0B9CFC0
S1132D40AADF28F0AFDF18F0952309F068CF7BCF16
S1132D501124E3CFBFDFA0F3959FD1F3950F50E08B
S1132D60551F629FF001729FBB27F00DB11D639F39
S1132D70AA27F00DB11DAA1F649F6627B00DA11DDF
S1132D80661F829F2227B00DA11D621F739FB00D85
S1132D90A11D621F839FA00D611D221F749F3327F5
S1132DA0A00D611D231F849F600D211D822F762F8E
S1132DB06A2F11249F5750408AF0E1F088234AF08B
S1132DC0EE0FFF1FBB1F661F771F881F91505040D7
S1132DD0A9F79E3F510570F022CF9FCF5F3FECF3E0
S1132DE0983EDCF3869577956795B795F795E795C3
S1132DF09F5FC1F7FE2B880F911D9695879597F9D4
S1132E00089570DFE0F09E37D8F09639B8F49E3814
S1132E1048F4672F782F8827985FF9CF86957795A0
S1132E20679593959539D0F3B62FB1706B0F711DDB
S1132E30811D20F4879577956795939547C0F5CEC6
S1132E406CCF11F40EF4FFCEF0CE4CDFD0F3992307
S1132E50D9F3CEF39F57550B87FF53D00024A0E638
S1132E6040EA900180585695979528F4805C660F47
S1132E70771F881F20F026173707480730F4621B96
S1132E80730B840B202931294A2BA6951794079498
S1132E90202531254A2758F7660F771F881F20F011
S1132EA026173707480730F4620B730B840B200D89
S1132EB0311D411DA09581F7B901842F9158880FC8
S1132EC09695879508959B01AC0138CF882371F4BA
S1132ED0772321F09850872B762F07C0662311F4AF
S1132EE099270DC09051862B70E060E02AF09A95E6
S1132EF0660F771F881FDAF7880F9695879597F9DD
S1132F00089591505040660F771F881FD2F7089597
S1132F10EF920F931F93CF93DF93E80147FF02C013
S1132F2034E101C034E0E42FFF27E7FDF095F7FF1B
S1132F3003C0F195E195F109E32E022F2E2FAE0186
S1132F400E94F419CE01DF91CF911F910F91EF9060
S1132F500895662777270C94721BFC01882799270C
S1132F60E89421912032E9F3293010F02E30C8F38F
S1132F702B3241F02D3239F4689404C00E940219B6
S1132F80820F911D219120532A30C0F31EF4909595
S1132F9081959F4F0895283008F027E03327DA0100
S1132FA0990F311D87FD916000966105710539F413
S1132FB032602E5F3D9330E32A95E1F708959F3FF9
S1132FC030F080387105610509F03C5F3C5F3D934A
S1132FD0913008F08068911DDF93CF931F930F9376
S1132FE0FF92EF92192F987F9695E92F96959695D3
S1132FF0E90FFF27E85FFE4F99273327EE24FF24CC
S1133000A701E70105900894079428F4360FE71EFA
S1133010F81E491F511D660F771F881F991F0694BC
S1133020A1F70590079428F4E70EF81E491F561FD0
S1133030C11D770F881F991F661F0694A1F705907D
S1133040079428F4F80E491F561FC71FD11D880F77
S1133050991F661F771F0694A1F70590079420F423
S1133060490F561FC71FD81F990F661F771F881F48
S11330700694A9F784911095177041F0D695C795D9
S113308057954795F794E7941A95C1F7EEEAF0E05F
S113309068941590159135916591959105907FE20D
S11330A07395E118F10A430B560BC90BD009C0F70D
S11330B0E10CF11E431F561FC91FD01D7EF470334F
S11330C011F48A95E6CFE894015030F0080F0AF421
S11330D00027021708F4202F2395022F7A3328F0B3
S11330E079E37D932A95E9F710C07D932A9589F6B3
S11330F0069497956795379517951794E118F10AF3
S1133100430B560BC90BD00998F023957E91739508
S11331107A3308F070E37C932013B8F77E917061E2
S11331207D9330F0839571E37D9370E32A95E1F705
S11331301124EF90FF900F911F91CF91DF91992768
S113314087FD90950895FC01059061507040011031
S1133150D8F7809590958E0F9F1F089542E555E00E
S11331600E94D0180895FC018191861721F08823CC
S1133170D9F7992708953197CF010895FB01DC0110
S113318001900D920020E1F70895FC016150704018
S113319001900110D8F7809590958E0F9F1F089588
S11331A0FA01A191B081009719F41097E1F0CD01D3
S11331B0DC01CD010D90002011F4C00113C0FB010E
S11331C02191222319F02015D9F7F3CFFB01219186
S11331D0201519F41E92119606C02223C1F70D90F2
S11331E00020A1F7D001FA01A193B0830895BB2771
S11331F04A3031F4992322F4BDE2909581959F4F92
S11332000C940B197AE0979F902D879F802D910D38
S113321011240895BB27FB015527AA27880F991F5E
S1133220AA1FA41710F0A41B83955051B9F7A05DF1
S1133230AA3308F0A95DA193009779F7B111B1936E
S11332401192CB010C94F51C0F931F93CF93DF9332
S1133250182F092FEB018B8181FD03C08FEF9FEFA6
S113326020C082FF10C04E815F812C813D814217B6
S113327053077CF4E881F9819F012F5F3F4F398325
S11332802883108306C0E885F985812F0995892B49
S113329029F72E813F812F5F3F4F3F832E83812F5C
S11332A0902FDF91CF911F910F910895AEE0B0E080
S11332B0ECE5F9E10C9421140D891E8986E08C83D8
S11332C01A8309838FEF9FE79E838D83AE01475E48
S11332D05F4F6F89788DCE0101960E948310EF8134
S11332E0F885E00FF11F10822E96E4E00C943D1453
S11332F0FA01AA27283051F1203181F1E8946F9323
S11333006E7F6E5F7F4F8F4F9F4FAF4FB1E03ED0C8
S1133310B4E03CD0670F781F891F9A1FA11D680F66
S1133320791F8A1F911DA11D6A0F711D811D911D99
S1133330A11D20D009F468943F912AE0269F11240E
S11333403019305D3193DEF6CF010895462F477072
S1133350405D4193B3E00FD0C9F7F6CF462F4F70CD
S1133360405D4A3318F0495D31FD4052419302D02B
S1133370A9F7EACFB4E0A6959795879577956795D1
S1133380BA95C9F700976105710508959B01AC01D1
S11333900A2E06945795479537952795BA95C9F7F8
S11333A0620F731F841F951FA01D0895A6E1B0E04E
S11333B044E050E00C94071DA8E1B0E042E050E086
S11333C00C94071D0396272F0E94161D0E94151D9D
S11333D0252F0E94161D242F0C94161D0196272FAD
S11333E00E94161D0C94151D6F927F929F92AF92AE
S11333F0BF92CF92DF92EF92FF920F931F93CF93DE
S1133400DF93CDB7DEB729970FB6F894DEBF0FBEB2
S1133410CDBF6A01B22E102F0C3320F4FF24F39495
S1133420F00E02C04CE3F42E0F2D27E0AE014F5FE7
S11334305F4F0E94CB177981272F2970213031F0FB
S1133440E1FC06C0E0FC06C060E005C06DE203C01C
S11334506BE201C060E2AE2DA07173FF36C066233B
S113346011F084E001C083E08B1510F4B81A01C098
S1133470B12CA1110BC0F6018B2D90E2882319F019
S113348091938150FBCFCB0CD11CB12C662331F02E
S1133490F601608396012F5F3F4F6901C6010396D1
S11334A0E2FE05C02EE4F601208331E404C02EE6DA
S11334B0F601208331E631832283FC012B2D30E297
S11334C02223F1F131932150FBCF72FF40C06623D8
S11334D011F084E001C083E08B1510F4B81A01C028
S11334E0B12CA1110BC0F6018B2D90E2882319F0A9
S11334F091938150FBCFCB0CD11CB12C662331F0BE
S1133500F601608396012F5F3F4F6901C601039660
S1133510E2FE07C029E4F60120832EE4218326E499
S113352006C029E6F60120832EE6218326E62283BF
S1133530FC012B2D30E2222319F031932150FBCFD3
S1133540FC01EB0DF11D10828EEF9FEFB7C0B1E0CF
S1133550611101C0B0E04B2F50E01816190624F495
S11335609C012F5F3F4F02C021E030E0240F351F44
S1133570112329F0412F50E04F5F5F4F02C040E01C
S113358050E0420F531F2B2D30E04217530714F421
S1133590B41A01C0B12C2E2D287159F4F6012B2D2B
S11335A030E2222319F031932150FBCFCB0CD11CF4
S11335B0B12CBB2331F0F601608396012F5F3F4F9E
S11335C06901A1110BC0F6012B2D30E3222319F060
S11335D031932150FBCFCB0CD11CB12CF80E0A81B6
S11335E0372F3071A32E74FF03C0013309F4FA940A
S11335F01F142CF42F2D293018F028E001C021E0ED
S1133600682F392F97FF02C060E030E0462F532F18
S1133610612C712C3EE2932EBC01621B71099B014B
S1133620DC01A41BB50BE1E0F0E0EC0FFD1FAE0FD5
S1133630BF1FE12EF12CF194E194F1084F3FFFEF0D
S11336405F0731F4F6019082B6016F5F7F4F6B0123
S1133650841795074CF02417350734F4BD01660D23
S1133660771DFB01118101C010E341505109FFEFA7
S11336706F1A7F0AB6016F5F7F4F4E155F0524F006
S1133680F60110836B01DACF4817590739F4063372
S113369020F4053319F4A11001C011E3F6011083DD
S11336A0FB018B2D90E2882319F091938150FBCF7D
S11336B0FB01EB0DF11D108280E090E029960FB61E
S11336C0F894DEBF0FBECDBFDF91CF911F910F9154
S11336D0FF90EF90DF90CF90BF90AF909F907F903E
S11336E06F900895A0E0B0E0E8E7FBE10C941914B2
S11336F08B016115710521F0DB018C9311969C936C
S1133700EC015E01BFEFAB1ABB0A7501C8808C2DBA
S113371090E00E94D51C892B11F0E501F2CFEDE277
S1133720CE1208C07E01F2E0EF0EF11CC980DD2448
S1133730D39409C02BE2C21205C07E0142E0E40E1C
S1133740F11CC980D12CE701219743E050E060EBE4
S113375071E0CE010E94DD1C892BC1F4239645E063
S113376050E06BEA71E0CE010E94DD1C892B09F464
S113377025960115110519F0D801CD93DC93D110CC
S113378006C160E070E080E89FE70AC143E050E0D2
S113379068EA71E0CE010E94DD1C892B59F4011501
S11337A0110509F4F9C0B2E0EB0EF11CF801F18245
S11337B0E082F2C0F70160E070E0CB01C0E0D0E04D
S11337C07F01A0EDAA2EAC0C29E02A1530F14D2D75
S11337D04260B42E2D2D2870D2FE04C0211125C0C4
S11337E0219623C021112197A5E0B0E09B01AC01F3
S11337F00E942A1D660F771F881F991F6A0D711D6D
S1133800811D911D6839A9E97A078A07A9E19A07F8
S113381060F0BD2DB660BB2E08C02EEFA2120AC008
S1133820D3FC50C04D2D4860B42E3196D701CC90B6
S1133830DB2CC6CF2C2D2F7D253409F043C0A0816D
S1133840AD3241F4BD2DB061DB2E7F0122E0E20EEA
S1133850F11C0CC07F01AB3231F04FEFE41AF40AD3
S113386021E030E006C0A2E0EA0EF11CA18122E0D2
S113387030E0A053AA3018F0E21AF30A23C0F7018B
S113388020E030E02038BCE03B075CF4A901440FA1
S1133890551F440F551F240F351F220F331F2A0FA6
S11338A0311DAF014F5F5F4F7A01A081A053AA3051
S11338B010F4FA01E7CFD4FE03C031952195310904
S11338C0C20FD31FD1FE09C00115110531F0E1E08B
S11338D0EE1AF108D801ED92FC920E94AE152D2D3E
S11338E02370233019F04B015C0106C04B015C01CD
S11338F0B7FAB094B7F8B09420E030E0A901C5015C
S1133900B4010E941115882309F43EC0D7FF06C0F4
S1133910D195C195D10907EC11E002C00FED11E07A
S11339206801B8E1CB1AD10890E2E92EF12CCE154A
S1133930DF0574F0F8012591359145915491C50145
S1133940B4010E949E164B015C01CE19DF09EFCF32
S113395004501109F594E7940C151D0541F78A2DBF
S1133960880F8B2D881F8F3F49F020E030E0A9019C
S1133970C501B4010E941115811106C082E290E0D4
S11339809093930780939207C501B40109C060E046
S113399070E080E89FEF04C060E070E080EC9FE797
S11339A0CDB7DEB7ECE00C943514911150C08032E1
S11339B019F089508550D0F70895FB01DC0141507E
S11339C0504088F08D9181341CF08B350CF4805E6E
S11339D0659161341CF06B350CF4605E861B6111DB
S11339E071F3990B0895881BFCCFDC01FC01672F50
S11339F071917723E1F7329704C07C916D937083C2
S1133A006291AE17BF07C8F30895DC01CB01FC0136
S1133A10F999FECF06C0F2BDE1BDF89A319600B423
S1133A200D9241505040B8F70895262FF999FECFD2
S1133A3092BD81BDF89A019700B4021639F01FBAFD
S1133A4020BD0FB6F894FA9AF99A0FBE08959927F3
S1133A50882708950E940414A59F900DB49F900D8B
S1113A60A49F800D911D11240895F894FFCFAA
S1133A6E008022440040044400C0134400C026C415
S1133A7E004025C400C00AC400000000000080BF3E
S1133A8E00000000427574746F6E20737461746567
S1133A9E203D2000507265737365640A00436861AB
S1133AAE726765207374617475733A20434841528A
S1133ABE47494E470A004368617267652073746113
S1133ACE7475733A2046554C4C0A00427574746FE3
S1133ADE6E20707265737365640A00427574746F38
S1133AEE6E2072656C65617365640A0057652068A3
S1133AFE617665204E4F20436F6E6E656374696FF9
S1133B0E6E202874696D652D6F7574292E2E0A002A
S1133B1E42617474657279203D2000250A00415477
S1133B2E2B4E414D4542494B454E41560A00415498
S1133B3E2B524F4C453D300A0041542B42415544C3
S1133B4E340A0041542B52455345540A00536574AC
S1133B5E206C65640A005265736574206C65640A92
S1133B6E00526563656976656420636F727265637E
S1133B7E7420636F6F7264696E617465733A0A00C0
S1133B8E4C6F636174696F6E3A002C002044657348
S1133B9E74696E6174696F6E3A200044697374615E
S1133BAE6E6365203D20004B4D0A004265617269CB
S1133BBE6E67203D20006465670A0052656365697F
S1133BCE7665642077726F6E6720636F6F726469B7
S1133BDE6E61746520666F726D61740A00466C6165
S1133BEE73686C69676874206D6F6465203D20543A
S1133BFE4F444F21200054656D7065726174757267
S1133C0E65203D2000206465672E20432E0A005552
S1133C1E49206D6F64652B2B005549206D6F6465CB
S1133C2E203D20004E617669676174696F6E206372
S1133C3E6F6C6F72207365740A004E6F2076616C20
S1133C4E696420636F6D6D616E643A0020280069AB
S1133C5E6E2062203D3C003E0A004572726F722057
S1133C6E696E20666F726D61740A003B004C61745C
S1133C7E2063757272203D2025302E3566004C6F00
S1133C8E6E2063757272203D2025302E3566004CF1
S1133C9E61742064657374203D2025302E356600D2
S1133CAE4C6F6E2064657374203D202025302E35B4
S1133CBE660041736B656420532076616C75650AEA
S1133CCE00526563656976656420532076616C7570
S1133CDE650A0056696272617465210A004E4F547A
S1133CEE205245434F474E495345440D0A005265F1
S1133CFE636569766564203D3C0056616C7565208C
S1133D0E746F6F206869676820746F2064697370BC
S1133D1E6C6179210A0064656661756C7420657244
S1133D2E726F7220696E2055492063617365210A92
S1133D3E00544F444F2053484F572055492044496F
S1133D4E5354414E43450A00554E4B4E4F574E2049
S1133D5E737461747573210A0053686F72742070E2
S1133D6E7265737320616374696F6E206578656321
S1133D7E757465640A004D6964646C6520707265BF
S1133D8E737320616374696F6E20657865637574EF
S1133D9E65640A004C6F6E672070726573732061E0
S1133DAE6374696F6E2065786563757465640A0063
S1133DBE4572726F7220696E20627574746F6E2014
S1133DCE707265737321202866697821290A00446C
S1133DDE657669636520737461747573203D200084
S1133DEE4E4F20434F4E4E454354494F4E0A004EBC
S1133DFE415649474154494E470A00425554544F7F
S1133E0E4E20505245535345440A00425554544F84
S1133E1E4E204E4F5420505245535345440A0045AC
S1133E2E52524F52210A0043757272656E743A20D3
S1133E3E00204E65773A2000204572726F723A2048
S1133E4E00204F75746C696572210A00204F4B0A6D
S1133E5E0046697273742074696D6520737461729F
S1133E6E7475702C20646F696E6720666163746F5D
S1133E7E727920707265736574730A0042696B659A
S1133E8E4E61762032303137205600544F444F3A2B
S1133E9E204649582055415254207265636569760F
S1133EAE6520636F6F7264696E6174657321210A94
S1053EBE0000FE
S9030000FC
