:100000000C94BF010C94DC010C94DC010C94DC0119
:100010000C94DC010C94DC010C94DC010C94DC01EC
:100020000C94DC010C94DC010C94DC010C94DC01DC
:100030000C94DC010C94DC010C9447150C94DC014D
:100040000C94DC010C94DC010C94CA170C94F81786
:100050000C94DC010C94DC010C94DC010C94DC01AC
:100060000C94DC010C94DC01E70DEC0EAD0CA60D3C
:10007000C60DCB0DEC0E280EEC0EEC0E390EEC0E70
:10008000DE0EEC0E060F580E650C740EEC0E8C0E88
:10009000970E9C0EC00E8A0CEC0EEC0EEC0EEC0EC5
:1000A000EC0EEC0EEC0EEC0EEC0EEC0EBA0CC50CDD
:1000B000C30DEC0EFA0DEC0EEC0EEC0EEC0EEC0E8D
:1000C000EC0EEC0EEC0EEC0EEC0EEC0EEC0E810ECB
:1000D000340EEC0EAA0E231038104D10621077105B
:1000E0008C10A110B610F3110412291262129B1287
:1000F000FC126413B713084AD73B3BCE016E84BC95
:10010000BFFDC12F3D6C74319ABD56833DDA3D0071
:10011000C77F11BED9E4BB4C3E916BAAAABE0000BA
:1001200000803F05A84CCDB2D44EB93836A9020C98
:1001300050B9918688083CA6AAAA2ABE0000008071
:100140003F00273F27203D206465627567206D656D
:100150007373616765730A0044657669636520722D
:1001600065736574656420746F20666163746F7273
:10017000792073657474696E6773210A0052657320
:10018000657474696E6720426C7565746F6F74680E
:100190002073657474696E6773210A00506F776508
:1001A00072696E67206F66662E2E0A0053686F773D
:1001B000205549204E6F727468203D2000427269BC
:1001C0006768746E6573732073657420746F3A008A
:1001D000544F444F2C20696D706C656D656E7420B2
:1001E000736574206E617669676174696F6E2063F0
:1001F0006F6C6F720A00436F6D706173732076616C
:100200006C75652073657420746F00446562756752
:10021000206D73672773206F6E0A004465627567EF
:10022000206D73672773206F66660A0053686F77C7
:100230002055492064697374616E6365203D200018
:100240006E616E00696E660000407A10F35A00A07D
:10025000724E18090010A5D4E80000E8764817008F
:1002600000E40B54020000CA9A3B000000E1F505CF
:10027000000080969800000040420F000000A08619
:1002800001000000102700000000E803000000004B
:100290006400000000000A000000000001000000EF
:1002A00000002C76D888DC674F0823DFC1DFAE5909
:1002B000E1B1B796E5E3E453C63AE651997696E89C
:1002C000E6C28426EB898C9B62ED407C6FFCEFBC20
:1002D0009C9F40F2BAA56FA5F490055A2AF75C934B
:1002E0006B6CF9676DC11BFCE0E40D47FEF520E681
:1002F000B500D0ED902E0300943577050080841E64
:10030000080000204E0A000000C80C333333330FBE
:10031000986E12831141EF8D2114893BE65516CF5B
:10032000FEE6DB18D1844B381BF77C1D901DA4BB67
:10033000E424203284725E228100C9F124ECA1E51C
:100340003D274E414E494E495459494E46CDCCCC9D
:100350003D0AD7233C17B7D13877CC2B329595E699
:10036000241FB14F0A000020410000C84200401C79
:100370004620BCBE4CCA1B0E5AAEC59D740011244B
:100380001FBECFEFD8E0DEBFCDBF15E0A0E0B1E0EB
:10039000EAEBFDE402C005900D92AE3BB107D9F740
:1003A00028E0AEEBB5E001C01D92AA31B207E1F73B
:1003B0000E94E8160C94DB260C9400004F925F928A
:1003C0006F927F928F929F92AF92BF92CF92DF9265
:1003D000EF92FF920F931F93CF93DF93CDB7DEB7CA
:1003E00064970FB6F894DEBF0FBECDBF2D833E835A
:1003F0004F8358872BED3FE049E450E40E942D20C5
:1004000020E030E044E353E40E941D1E69837A83B8
:100410008B839C832BED3FE049E450E4C801B70196
:100420000E942D2020E030E044E353E40E941D1E92
:100430002B013C0169817A818B819C810E941A1E6B
:1004400069877A878B879C87C301B2010E94B0209D
:100450006D877E878F87988B69817A818B819C815C
:100460000E94B02069837A838B839C83C301B2018D
:100470000E941A1E2B013C012BED3FE049E450E4A1
:10048000C601B5010E942D2020E030E044E353E492
:100490000E941D1E4B015C012BED3FE049E450E43E
:1004A0006D817E818F8198850E942D2020E030E033
:1004B00044E353E40E941D1E9B01AC01C501B4013D
:1004C0000E944F1D4B015C010E941A1E6D837E83AA
:1004D0008F839887C501B4010E94B020698B7A8B05
:1004E0008B8B9C8B2D853E854F85588969857A85B8
:1004F0008B859C850E942D204B015C01A3019201FC
:1005000069817A818B819C810E942D202D813E8181
:100510004F8158850E942D209B01AC01C501B4017B
:100520000E944F1D4B015C0129893A894B895C89E6
:10053000C301B2010E942D20A50194010E94C31D98
:1005400020E030E044E353E40E942D202BED3FE017
:1005500049E450E40E941D1E20E030E044EB53E4E7
:100560000E94501D20E030E044EB53E40E94FA1E4C
:100570000E94851E882777FD8095982F0E94B81EBF
:1005800020E030E040E05FE30E94501D0E948A1EA0
:10059000CB0164960FB6F894DEBF0FBECDBFDF91DE
:1005A000CF911F910F91FF90EF90DF90CF90BF9070
:1005B000AF909F908F907F906F905F904F90089535
:1005C0004F925F926F927F928F929F92AF92BF9263
:1005D000CF92DF92EF92FF920F931F93CF93DF930F
:1005E000CDB7DEB72C970FB6F894DEBF0FBECDBFE8
:1005F0002B013C0129873A874B875C87E982FA8285
:100600000B831C839B01AC01C801B7010E944F1DE5
:100610002BED3FE049E450E40E942D2020E030E043
:1006200044E353E40E941D1E20E030E040E05FE31D
:100630000E942D200E94B0206D837E838F83988737
:100640002BED3FE049E450E4C301B2010E942D20AC
:1006500020E030E044E353E40E941D1E0E941A1E75
:100660002B013C012BED3FE049E450E4C801B70108
:100670000E942D2020E030E044E353E40E941D1E40
:100680000E941A1E69837A838B839C8329853A850D
:100690004B855C85C601B5010E944F1D2BED3FE0E7
:1006A00049E450E40E942D2020E030E044E353E48C
:1006B0000E941D1E20E030E040E05FE30E942D20FC
:1006C0000E94B0209B01AC010E942D204B015C01D7
:1006D00029813A814B815C81C301B2010E942D20A6
:1006E0009B01AC01C501B4010E942D204B015C01AE
:1006F0002D813E814F815885CA01B9010E942D206C
:100700009B01AC01C501B4010E94501D6B017C012D
:100710009B01AC0160E070E080E89FE30E944F1D08
:100720000E94BA204B015C01C701B6010E94BA20A9
:10073000A50194010E94C31D9B01AC010E94501DA4
:100740002CE636EA4FE95BE40E942D200E94851ECC
:100750000E94B81E20E030E040E05FE30E94501DA0
:1007600020E93DEC4FE959E30E942D200E94851EAF
:100770002C960FB6F894DEBF0FBECDBFDF91CF91A0
:100780001F910F91FF90EF90DF90CF90BF90AF90AF
:100790009F908F907F906F905F904F9008958823E7
:1007A00019F080E48BB908955E9808958091DA0578
:1007B000811189B189B18095881F8827881F089584
:1007C0000E94D6038093A606813089F40E94C71741
:1007D000813009F454C08091DA05882321F084E245
:1007E00091E00E94691881E00E94BB170895811171
:1007F0000FC00E94C717813059F48091DA05882311
:1008000021F084E391E00E9469181092AA060895ED
:100810000E94C717811103C00E94C21708958091DA
:10082000DD059091DE05883823E1920730F40196CA
:100830009093DE058093DD0515C088E290E09093EB
:10084000DE058093DD050E94C717833059F083E0F1
:100850000E94BB178091DA05882321F085E491E09E
:100860000E9469188091A806882349F082E00E94BE
:10087000BB171092A8061092DE051092DD050895B0
:1008800032990AC08091DA05882381F089E691E0E7
:100890000E94691881E008958091DA05882341F06B
:1008A00082E891E00E94691880E0089581E008954F
:1008B00080E00895CF93DF9341988FE097E201970E
:1008C000F1F700C0000080E00E948715875E91402C
:1008D00024E6289FA001299F500D11249A01A3ED21
:1008E000BAE70E94091D481B590BEA01D695C79526
:1008F0008C0F9D1F22E028B9EC01CC0FCD2FCC1F0F
:10090000DD0BD195C536D10510F0C4E6D0E080915D
:10091000DA05882361F087E991E00E94691860E0B8
:10092000CE010E94230A82EA91E00E946918CE015A
:10093000DF91CF91089583E390E00E9422185A98A6
:100940008FE19EE40197F1F700C0000084E08BB9CD
:100950008FE19EE40197F1F700C0000088E08BB9B9
:1009600085EA91E00E94691885EB91E00E94691880
:1009700080EC91E00E9469185B988AEC91E00E94FB
:10098000691883E390E00E94221808954F925F92C5
:100990006F927F928F929F92AF92BF92CF92DF928F
:1009A000EF92FF920F931F93CF93DF937C01EB01A4
:1009B00082E30E947C0988EA0E94AC0983E30E94DA
:1009C0007C090E94BE09482E0E94BE09582E0E9432
:1009D000BE09682E0E94BE09782E0E94BE09882E8C
:1009E0000E94C909982E0E94A3098CE30E947C09E9
:1009F00083E00E94AC098DE30E947C090E94BE093D
:100A0000B82E0E94BE09A82E0E94BE09182F0E946F
:100A1000BE09082F0E94BE09D82E0E94C909C82EFF
:100A20000E94A309642D70E07529882777FD8095C1
:100A3000982F0E94B81EF70160837183828393838D
:100A4000662D70E07729882777FD8095982F0E9482
:100A5000B81EF7016483758386839783682D70E0E1
:100A60007929882777FD8095982F0E94B81EF70175
:100A700060877187828793876A2D70E07B2988273A
:100A800077FD8095982F0E94B81E688379838A83AA
:100A90009B836C2D70E07D29882777FD8095982FAA
:100AA0000E94B81E6C837D838E839F83602F70E0CD
:100AB000712B882777FD8095982F0E94B81E688734
:100AC00079878A879B87DF91CF911F910F91FF9044
:100AD000EF90DF90CF90BF90AF909F908F907F90DE
:100AE0006F905F904F9008958F929F92AF92BF92B8
:100AF000CF92DF92EF92FF92CF93DF93EB010E94B0
:100B0000C604C0900C01D0900D01E0900E01F09051
:100B10000F01A7019601688179818A819B810E94DA
:100B20004F1D4B015C01A70196016091000170917E
:100B3000010180910201909103010E944F1D9B01D0
:100B4000AC01C501B4010E941D1E9B01AC010E94B5
:100B5000501D20E030E040E85FE30E944F1D6883B5
:100B600079838A839B83C0901001D0901101E0901B
:100B70001201F0901301A70196016C817D818E8195
:100B80009F810E944F1D4B015C01A701960160915E
:100B900004017091050180910601909107010E9466
:100BA0004F1D9B01AC01C501B4010E941D1E9B019C
:100BB000AC010E94501D20E030E040E85FE30E945D
:100BC0004F1D6C837D838E839F83C0901401D090D2
:100BD0001501E0901601F0901701A70196016885B4
:100BE00079858A859B850E944F1D4B015C01A70179
:100BF0009601609108017091090180910A0190911C
:100C00000B010E944F1D9B01AC01C501B4010E9464
:100C10001D1E9B01AC010E94501D20E030E040E809
:100C20005FE30E944F1D688779878A879B87DF91E2
:100C3000CF91FF90EF90DF90CF90BF90AF909F90BB
:100C40008F900895CF92DF92EF92FF920F931F93B0
:100C5000CF93DF93CDB7DEB768970FB6F894DEBFBA
:100C60000FBECDBF7C01CB018A01AE014F5F5F4F4C
:100C7000B7010E948A18CE0101960E944F19AE0159
:100C8000435F5F4FBE016F5F7F4FC7010E948A18AD
:100C9000CE010D960E944F19B801CE010D960E940B
:100CA0000B196B017C01B801CE0101960E940B1952
:100CB000A70196010E94C31D20E030E044E353E405
:100CC0000E942D202BED3FE049E450E40E941D1EC0
:100CD0000E94902020E030E044EB52E40E944F1D3F
:100CE0000E94851E9B01772314F428593E4FC901A9
:100CF00068960FB6F894DEBF0FBECDBFDF91CF91DF
:100D00001F910F91FF90EF90DF90CF9008956F9219
:100D10007F928F929F92AF92BF92CF92DF92EF928B
:100D2000FF920F931F93CF93DF93CDB7DEB76897F2
:100D30000FB6F894DEBF0FBECDBF19821A821B8298
:100D40001C821D821E821F82188619861A861B86A7
:100D50001C861D861E861F86188A198A1A8A1B8A77
:100D60001C8A1D8A1E8A1F8A188EE82EF12C1E14DA
:100D70001F040CF086C000E010E00F2EFDED8F2E5A
:100D8000F7E09F2EF02D0F2EF1EEAF2EF7E0BF2EE5
:100D9000F02D0F2EF9EECF2EF7E0DF2EF02D0F2ED7
:100DA000FDEE6F2EF7E07F2EF02D65EE77E089EDFA
:100DB00097E00E9474052091D9073091DA0740919D
:100DC000DB075091DC0769817A818B819C810E94CD
:100DD000501D69837A838B839C83F4012081318148
:100DE000428153816D817E818F8198850E94501D43
:100DF0006D837E838F839887F501208131814281C5
:100E0000538169857A858B859C850E94501D6987F1
:100E10007A878B879C872091E5073091E607409180
:100E2000E7075091E8076D857E858F8598890E9438
:100E3000501D6D877E878F87988BF60120813181C9
:100E40004281538169897A898B899C890E94501DCE
:100E5000698B7A8B8B8B9C8BF30120813181428152
:100E600053816D897E898F89988D0E94501D6D8B6D
:100E70007E8B8F8B988F0F5F1F4F0E151F050CF405
:100E800094CFB701882777FD8095982F0E94B81ED0
:100E90006B017C019B01AC0169817A818B819C8112
:100EA0000E941D1E69837A838B839C83A701960110
:100EB0006D817E818F8198850E941D1E6D837E834A
:100EC0008F839887A701960169857A858B859C8594
:100ED0000E941D1E69877A878B879C87A7019601D0
:100EE0006D857E858F8598890E941D1E6D877E8702
:100EF0008F87988BA701960169897A898B899C894C
:100F00000E941D1E698B7A8B8B8B9C8BA70196018F
:100F10006D897E898F89988D0E941D1E6D8B7E8BB9
:100F20008F8B988F48E151E0BE01635F7F4FCE0108
:100F300001960E94220668960FB6F894DEBF0FBE97
:100F4000CDBFDF91CF911F910F91FF90EF90DF9078
:100F5000CF90BF90AF909F908F907F906F900895AB
:100F6000CF92DF92EF92FF92CF93DF93C82FD62FCD
:100F700065EE77E089ED97E00E94C604C23009F47F
:100F800057C0C33009F4A5C0C13009F0F2C0C09009
:100F9000E507D090E607E090E707F090E80720919A
:100FA000C0053091C1054091C2055091C305C701EC
:100FB000B6010E94161E882344F4C092C005D09248
:100FC000C105E092C205F092C3052091CC05309195
:100FD000CD054091CE055091CF05C701B6010E94C5
:100FE0002220181644F4C092CC05D092CD05E09290
:100FF000CE05F092CF05D23061F46091C0057091BA
:10100000C1058091C2059091C3050E94851ECB0148
:10101000BBC0D13009F0B0C06091CC057091CD0556
:101020008091CE059091CF050E94851ECB01ACC06A
:10103000C090E907D090EA07E090EB07F090EC074A
:101040002091C4053091C5054091C6055091C70552
:10105000C701B6010E94161E882344F4C092C4053D
:10106000D092C505E092C605F092C7052091D00543
:101070003091D1054091D2055091D305C701B601F9
:101080000E942220181644F4C092D005D092D105B7
:10109000E092D205F092D305D23061F46091C4059C
:1010A0007091C5058091C6059091C7050E94851E67
:1010B000CB016AC0D13009F062C06091D005709157
:1010C000D1058091D2059091D3050E94851ECB0158
:1010D0005BC0C090ED07D090EE07E090EF07F09076
:1010E000F0072091C8053091C9054091CA0550917B
:1010F000CB05C701B6010E94161E882344F4C09296
:10110000C805D092C905E092CA05F092CB0520919E
:10111000D4053091D5054091D6055091D705C7012A
:10112000B6010E942220181644F4C092D405D09231
:10113000D505E092D605F092D705D23061F46091E2
:10114000C8057091C9058091CA059091CB050E9490
:10115000851ECB0119C0D130A9F46091D4057091DE
:10116000D5058091D6059091D7050E94851ECB01AB
:101170000BC080E090E008C080E090E005C080E017
:1011800090E002C080E090E0DF91CF91FF90EF907F
:10119000DF90CF90089584ED91E00E94691862E09D
:1011A00081E00E94B00760E00E94230A8AED91E08E
:1011B0000E94691861E081E00E94B00760E00E942F
:1011C000230A81EE91E00E94691862E082E00E94A9
:1011D000B00760E00E94230A88EE91E00E9469183F
:1011E00061E082E00E94B00760E00E94230A8FEE77
:1011F00091E00E94691862E083E00E94B00760E01D
:101200000E94230A86EF91E00E94691861E083E062
:101210000E94B00760E00E94230A8DEF91E00E94D7
:1012200069180895CF93DF93D82FC62F82E30E94C9
:101230007C098D2F0E94AC098C2F0E94AC090E9462
:10124000A309DF91CF910895CF93DF93D82FC62FB5
:101250008CE30E947C098D2F0E94AC098C2F0E9488
:10126000AC090E94A309DF91CF9108950E947609ED
:1012700068E083E20E94120967E480E20E9412099A
:101280006CE880E00E94240960E281E00E94240969
:1012900060E082E00E9424090895CF93DF938CE3FD
:1012A0000E947C0981E30E94AC098DE30E947C09C5
:1012B0000E94BE09C82F0E94C909D82F0E94A30905
:1012C0002D2F30E0C9019C2B959587959595879595
:1012D000959587959595879599230CF40396959503
:1012E000879595958795DF91CF9108951092B900D4
:1012F00082E08093B800089594EA9093BC00ECEBF0
:10130000F0E090819923ECF79091B900987F9830A4
:1013100011F09031A1F48093BB0084E88093BC006D
:10132000ECEBF0E080818823ECF79091B900987F96
:10133000983139F081E0903429F480E0089581E01B
:10134000089580E0089584E98093BC00ECEBF0E020
:10135000808184FDFDCF08958093BB0084E8809355
:10136000BC00ECEBF0E080818823ECF79091B900B1
:10137000987F81E0983209F480E0089584EC8093AE
:10138000BC00ECEBF0E080818823ECF78091BB009F
:10139000089584E88093BC00ECEBF0E08081882322
:1013A000ECF78091BB0008951F93CF93DF93CDB7E7
:1013B000DEB76A970FB6F894DEBF0FBECDBF0E94AE
:1013C0003B189C0122273171232BE1F49C01222739
:1013D0003A70232BB9F410E0E1E1F0E0EC0FFD1FCF
:1013E000E10FF11D80838A3009F01F5F0E943B18D6
:1013F0009C0122273171232B29F49C0122273A706A
:10140000232B51F389898D3391F46DE370E0CE0184
:1014100041960E945922BC016F5F7F4FCE01019619
:101420000E946422CE0101960E94532102C080E0F6
:1014300090E06A960FB6F894DEBF0FBECDBFDF9185
:10144000CF911F9108951F93CF93DF93CDB7DEB750
:1014500028970FB6F894DEBF0FBECDBF162F4AE017
:10146000BE016F5F7F4F0E949D22CE0101960E94B8
:101470006918112321F084EE93E00E9469182896E0
:101480000FB6F894DEBF0FBECDBFDF91CF911F9195
:101490000895FF920F931F93CF93DF93CDB7DEB7DD
:1014A00064970FB6F894DEBF0FBECDBFF42E8E0149
:1014B0000F5F1F4F27E04AE00E942E21C8010E94C3
:1014C0006918FF2021F084EE93E00E946918649669
:1014D0000FB6F894DEBF0FBECDBFDF91CF911F9145
:1014E0000F91FF9008951F93CF93DF93CDB7DEB791
:1014F00028970FB6F894DEBF0FBECDBF182FCB01D3
:101500004AE0BE016F5F7F4F0E949D22812F0E94A3
:1015100054188DE30E945418CE0101960E94691858
:101520008AE00E94541828960FB6F894DEBF0FBECA
:10153000CDBFDF91CF911F910895CF93DF93CDB7AA
:10154000DEB760970FB6F894DEBF0FBECDBF6DE378
:1015500070E08CEA96E00E945922BC016F5F7F4FD9
:10156000CE0101960E946422CE0101960E94532171
:10157000BC01882777FD8095982F60960FB6F89468
:10158000DEBF0FBECDBFDF91CF9108952F923F9266
:101590004F925F926F927F928F929F92AF92BF9283
:1015A000CF92DF92EF92FF920F931F93CF93DF932F
:1015B000CDB7DEB7C656D1090FB6F894DEBF0FBE61
:1015C000CDBFFE01319682E3DF011D928A95E9F7D6
:1015D0008091AB0690E0039718161906D4F480E0CA
:1015E00090E040E0E1E0F0E0EC0FFD1FE80FF91FB4
:1015F000DC01A455B94F11968C9180834F5F842FE5
:1016000090E02091AB0630E0235031098217930718
:101610004CF381E493E00E9469188E010F5F1F4F25
:101620007E01B3E3EB0EF11CF80181918F010E9462
:1016300054180E151F05C1F789E493E00E9469183C
:10164000ECEAF6E001900020E9F7349780818536D6
:1016500031F08CE493E00E94691880E005C16CE7EA
:1016600072E0CE0101960E9454220E944F21C62EA4
:10167000D72EE82EF92E6DE573E080E090E00E9411
:1016800054220E944F21862E972EA82EB92E6CE749
:1016900072E080E090E00E9454220E944F21462E8A
:1016A000572E682E792E6CE772E080E090E00E9461
:1016B00054220E944F21262E372EA6968FAFA69732
:1016C000A7969FAFA7978091DA05882309F45AC09F
:1016D000FF92EF92DF92CF928FE593E09F938F93EB
:1016E0008E010D5C1F4F1F930F930E94FC22C801B7
:1016F0000E94691884EE93E00E946918BF92AF922D
:101700009F928F9280E793E09F938F931F930F9305
:101710000E94FC22C8010E94691884EE93E00E9496
:1017200069187F926F925F924F9281E893E09F9346
:101730008F931F930F930E94FC22C8010E94691887
:1017400084EE93E00E946918A796FFADA797FF93D8
:10175000A6968FADA6978F933F922F9282E993E042
:101760009F938F931F930F930E94FC220FB6F894C0
:10177000DEBF0FBECDBFC8010E94691884EE93E0A2
:101780000E94691820E030E0A9016C2D7D2D8E2D7E
:101790009F2D0E94161E882309F461C020E030E0CE
:1017A000A901682D792D8A2D9B2D0E94161E882354
:1017B00009F455C020E030E0A901642D752D862D77
:1017C000972D0E94161E882309F449C020E030E0BE
:1017D000A901A696FFADA697A796EFADA797622D94
:1017E000732D8F2F9E2F0E94161E8823C1F18C2DE2
:1017F0009D2DAE2DBF2D80938F0690939006A093C4
:101800009106B0939206882D992DAA2DBB2D809319
:10181000930690939406A0939506B0939606842D14
:10182000952DA62DB72D80938B0690938C06A093B3
:101830008D06B0938E06A6963FADA697A7962FADC0
:10184000A797822D932DA32FB22F80938706909375
:101850008806A0938906B0938A0681E005C084EAD1
:1018600093E00E94691880E0CA59DF4F0FB6F894E0
:10187000DEBF0FBECDBFDF91CF911F910F91FF90C3
:10188000EF90DF90CF90BF90AF909F908F907F9020
:101890006F905F904F903F902F900895AF92BF92BE
:1018A000CF92DF92EF92FF920F931F93CF93DF932C
:1018B0008091AC0690E0FC01FF97E733F10508F05A
:1018C0008BC2EC5CFF4F0C94031D8091AD068F33EF
:1018D00061F48CEB93E00E9469186091D8057091D7
:1018E000D90583E50E94730A91C28D3309F08EC237
:1018F0000E949D0A7093D9056093D8058BEC93E004
:101900000E9469186091D8057091D90583E50E94FD
:10191000730A7CC28091AD06813311F480E48BB9E7
:101920008091AD06803309F45E988091AD068335D1
:1019300039F48DED93E00E94691882E00E94F21460
:101940008091AD068C3409F061C28DED93E00E9468
:10195000691883E00E94F21459C284E00E94BB1708
:101960008091DA05882309F451C283E392E00E9452
:1019700069184CC243988091DA05882309F446C25D
:1019800088E492E00E94691841C20E94C60A882336
:1019900009F4D2C08091DA05882309F440C083E5B8
:1019A00092E00E94691882E792E00E9469186091B3
:1019B0008F0670919006809191069091920640E07A
:1019C0000E94490A8CE792E00E9469186091930690
:1019D00070919406809195069091960640E00E9441
:1019E000490A8EE792E00E94691860918B06709117
:1019F0008C0680918D0690918E0640E00E94490AE7
:101A00008CE792E00E9469186091870670918806C1
:101A10008091890690918A0641E00E94490AA0902F
:101A20008706B0908806C0908906D0908A06E0901C
:101A30008B06F0908C0600918D0610918E062091F9
:101A400093063091940640919506509196066091C8
:101A50008F067091900680919106909192060E9457
:101A6000E0020E94B81E60939F067093A0068093C8
:101A7000A1069093A206A0908706B0908806C09019
:101A80008906D0908A06E0908B06F0908C06009133
:101A90008D0610918E062091930630919406409108
:101AA00095065091960660918F06709190068091F0
:101AB0009106909192060E94DE01BC0180E090E0C8
:101AC0000E94B61E60939B0670939C0680939D06B1
:101AD00090939E068091DA05882331F18DE892E09B
:101AE0000E94691860919F067091A0068091A106DE
:101AF0009091A20640E00E94490A89E992E00E9482
:101B000069188DE992E00E94691860919B067091B6
:101B10009C0680919D0690919E0640E00E94490A95
:101B200088EA92E00E9469188FE795E00E946918A0
:101B300081E08093A8066AC18091DA05882309F4C0
:101B400065C18DEA92E00E94691860C10E945A0442
:101B5000C3EAD6E0888340E06FEF80E00E94011086
:101B60009B01AC010DE761E088810E9409112FE71C
:101B70008FE492E1215080409040E1F700C00000E6
:101B80000E94D41043C10E94CB0840C10E9440046F
:101B90008093A5063BC161E080918606811160E0DB
:101BA0006093860670E086E090E00E949423809126
:101BB000DA05882309F42AC18CE292E00E947818A1
:101BC0008091860661E090E00E94230A1FC1809107
:101BD000DA05882339F01092DA058BE192E00E9451
:101BE000781814C181E08093DA058BE092E00E94BE
:101BF00078180CC10E94D4098536910580F4BC0187
:101C000080E090E00E94B61E60939F067093A0064D
:101C10008093A1069093A20681E08093A80680910C
:101C2000DA05882309F4F2C086EF91E00E94781863
:101C300060919706709198068091990690919A0606
:101C40000E94851EDC01CB0161E00E94230ADEC0F8
:101C50008091DA05882321F08FEC92E00E946918C8
:101C600081E08093A806D2C080ED91E00E947818B0
:101C7000CDC00E94D4090E9410100E941410682F39
:101C800070E08AE090E00E94942381E08093A806AF
:101C90008091DA05882309F4B9C08DEB91E00E94A8
:101CA00078180E94141061E090E00E94230AAEC0F0
:101CB00061E080918506811160E06093850670E0A7
:101CC00084E090E00E9494238091DA05882309F44F
:101CD0009DC08CEA91E00E9478188091850661E0B1
:101CE00090E00E94230A92C08091DA05882309F4CB
:101CF0008DC08CE991E00E94781880E00E94CF03AB
:101D000085C08091DA05882321F08DE791E00E945B
:101D100078180E949B047AC08091DA05882321F00C
:101D200088E591E00E9478180E94A3166FC00E9477
:101D3000D6038093A6066AC088EE92E00E946918D6
:101D40000E944D0960E00E94230A87EF92E00E9402
:101D500069185CC08091DA05882321F081E093E066
:101D60000E9469180E94F1100E940611682F70E00D
:101D700088E090E00E94942381E08093A80646C00A
:101D80000E94D4090E94E7108091DA05882351F05F
:101D90008BE093E00E9469180E94061161E090E0D8
:101DA0000E94230A0E940611682F70E088E090E0EC
:101DB0000E94942381E08093A80628C08091DA05D0
:101DC000882321F086E193E00E9469180E94171091
:101DD00081E08093A8061AC08CE293E00E94691803
:101DE000CCEAD6E088810E9454188EE393E00E94EA
:101DF0006918888160E090E00E94230A8AEC94E0F0
:101E00000E94691882E491E00E9478181092740789
:101E1000DF91CF911F910F91FF90EF90DF90CF90C6
:101E2000BF90AF900895CF930E943B189C0122274A
:101E30003171232B09F040C09C0122273A70232BDB
:101E4000D9F5E091AB06F0E0E455F94F8083E091DD
:101E5000AB06F0E0E455F94F80818A3041F586EE1B
:101E600093E00E9469188091AB06882369F0C0E076
:101E7000EC2FF0E0E455F94F80810E945418CF5FB9
:101E80008091AB06C817A0F389E493E00E9469181B
:101E900081E0809374070E944E0C1092AB0684E69A
:101EA000ECEAF6E0DF011D928A95E9F705C0809122
:101EB000AB068F5F8093AB06CF91089584E3EAE48D
:101EC000F6E0DF011D928A95E9F70895009769F021
:101ED00020E030E0EFECF7E03197F1F700C00000D0
:101EE0002F5F3F4F28173907A9F708958D309105C7
:101EF00028F520918006222309F1FC01319730E07A
:101F0000DF01AA0FBB1FEA0FFB1FEF50F84F629FC4
:101F1000D001639FB00D1124B183529FB001539F34
:101F2000700D11247083429FB001439F700D1124E6
:101F30007283BC0181EF97E00E9421150895EF9212
:101F4000FF920F931F93CF93DF938B01893621E08C
:101F5000920710F088E691E0009749F4CCE0D0E0D9
:101F600081E090E0FF24F394EE24E39416C09C01FA
:101F7000A9E8B8E80E94091DEC01D295C295CF707E
:101F8000CD27DF70CD27FC2EF3948F2D90E0DD2739
:101F90002C96C817D90744F72DC02CE02F1580F4D4
:101FA000EE2DF0E0EE0FFF1FEE0FFF1FE65BF94F87
:101FB00040815181628173810C970E94760F10C01D
:101FC000EE2DF0E0EE0FFF1FEE0FFF1FE65BF94F67
:101FD00040815181628173818F2D90E00E94760F44
:101FE000E394C8010E94660FF3948F2D90E0C81708
:101FF000D9079CF6DF91CF911F910F91FF90EF9041
:1020000008950F931F93962F50E060E070E0592BD6
:102010008A019B01282BC901B8011F910F910895D6
:102020008093800681E008958091800608958091D4
:10203000DC0590E08830910508F0ACC0FC01E55962
:10204000FF4F0C94031D80E090E0AFEFB0E0809371
:10205000810690938206A0938306B093840640E0A5
:1020600050E06FEF70E080E090E00E94882392C023
:1020700080E09FEFA0E0B0E080938106909382061D
:10208000A0938306B093840640E05FEF60E070E0C9
:1020900080E090E00E9488237DC08FEF90E0A0E078
:1020A000B0E08093810690938206A0938306B0935C
:1020B00084064FEF50E060E070E080E090E00E9426
:1020C000882368C08FEF9FEFAFEFB0E08093810669
:1020D00090938206A0938306B09384064FEF5FEF40
:1020E0006FEF70E080E090E00E94882353C080E0B2
:1020F00094E6AFEFB0E08093810690938206A093C0
:102100008306B093840640E054E66FEF70E080E011
:1021100090E00E9488233EC080E09FEFA8ECB0E0F2
:102120008093810690938206A0938306B0938406E1
:1021300040E05FEF68EC70E080E090E00E94882370
:1021400029C08FEF94E6A0E0B0E0809381069093E1
:102150008206A0938306B09384064FEF54E660E0B6
:1021600070E080E090E00E94882314C08FEF90E040
:10217000A4E6B0E08093810690938206A093830644
:10218000B09384064FEF50E064E670E080E090E0AA
:102190000E9488238091DC05873010F48F5F01C096
:1021A00080E08093DC050895CF93DF930E945E0F5B
:1021B000C0E0D0E040E050E0BA01CE010E94760FCE
:1021C0002196CD30D105B1F7DF91CF9108958830B8
:1021D00030F480937F061092DF0581E0089580E05F
:1021E00008958091DB050E94E71060917F0670E002
:1021F00088E090E00E9494238091DB05873010F402
:102200008F5F01C080E08093DB05089580917F0699
:1022100008950F93853608F084E6E82FE695E69555
:10222000E69561111EC0843649F420934E06309322
:102230004F0640935006509351060CC0EF5FF0E0FC
:10224000EE0FFF1FEE0FFF1FE65BF94F2083318378
:1022500042835383602F70E080E090E00E949F0FE4
:1022600025C0613019F5843609F4E150AE2FB0E095
:102270001296A230B105A4F081E090E071E0FC017B
:10228000EE0FFF1FEE0FFF1FE65BF94F2083318338
:10229000428353837F5F872F90E08A179B077CF3ED
:1022A000602F70E080E090E00E949F0F0F910895F2
:1022B0008F929F92AF92BF92CF92DF92EF92FF9256
:1022C0000F931F93CF93DF938B01F42E6817790739
:1022D00020F0EB01C81BD90B05C0EB01C81BD90BC3
:1022E000C859DE4F0E945E0F82E0F81609F46FC0F5
:1022F0008F1538F0FF2009F45FC081E0F81601F176
:1023000050C383E0F81629F084E0F81609F4C0C23F
:1023100048C381E09091E105911180E08093E1054F
:10232000882309F442C380E090E0AFEFB0E08093EF
:102330004E0690934F06A0935006B093510635C3B6
:102340008091A6068130A9F51091E00531E020E0EA
:1023500040E054E66FEF70E08FEF90E0A0E0B0E077
:10236000263068F4E32FF0E0EE0FFF1FEE0FFF1FA3
:10237000E65BF94F80839183A283B3830CC0E32F84
:10238000F0E0EE0FFF1FEE0FFF1FE65BF94F4083FB
:102390005183628373832F5F3F5F121708F71F5FBC
:1023A0001093E0051D3028F083E08093A70610927B
:1023B000E0051092DF05F9C28091E005873008F052
:1023C000FCC281E08093A7061092E005EEC2409126
:1023D0007F0650E04830510508F04CC2FA01ED5834
:1023E000FF4F0C94031D8091810690918206A0916D
:1023F0008306B091840680934E0690934F06A09377
:102400005006B09351063AC280918106909182069F
:10241000A0918306B091840680934E0690934F0658
:10242000A0935006B093510680E094E6AFEFB0E081
:102430008093520690935306A0935406B09355068A
:1024400080937A0690937B06A0937C06B0937D06DA
:1024500015C28091810690918206A0918306B09169
:10246000840680934E0690934F06A0935006B09337
:1024700051069801215F3F4FA9E8B8E80E94091D65
:10248000929582958F7089279F70892780FF0DC054
:1024900080E094E6AFEFB0E080937A0690937B06FD
:1024A000A0937C06B0937D06E9C180E094E6AFEF8F
:1024B000B0E08093520690935306A0935406B093D5
:1024C0005506DCC18091810690918206A091830619
:1024D000B091840680934E0690934F06A0935006C9
:1024E000B093510680935E0690935F06A0936006BA
:1024F000B09361068093620690936306A09364068E
:10250000B09365068093660690936706A09368066D
:10251000B093690680936A0690936B06A0936C064D
:10252000B0936D0680936E0690936F06A09370062D
:10253000B0937106A3C1C0908106D0908206E0904E
:102540008306F0908406C0924E06D0924F06E09229
:102550005006F09251069801215F3F4FA9E8B8E874
:102560000E94091D929582958F7089279F708927F7
:1025700080FF0DC080E094E6AFEFB0E080937A0674
:1025800090937B06A0937C06B0937D060CC080E000
:1025900094E6AFEFB0E08093520690935306A09379
:1025A0005406B0935506C0925E06D0925F06E09244
:1025B0006006F0926106C0926206D0926306E092D5
:1025C0006406F0926506C0926606D0926706E092B5
:1025D0006806F0926906C0926A06D0926B06E09295
:1025E0006C06F0926D06C0926E06D0926F06E09275
:1025F0007006F092710642C1C0908106D0908206AA
:10260000E0908306F0908406C0924E06D0924F066A
:10261000E0925006F092510680909F069090A0069E
:10262000A090A106B090A20620E030E040E85FE371
:10263000C501B4010E942220882384F0C092520672
:10264000D0925306E0925406F0925506C0927A0654
:10265000D0927B06E0927C06F0927D0620E030E08E
:1026600040E250E4C501B4010E942220882384F096
:10267000C0925606D0925706E0925806F09259063C
:10268000C0927606D0927706E0927806F0927906AC
:1026900020E030E040EA50E4C501B4010E9422206D
:1026A00088230CF4EBC0C0925A06D0925B06E092ED
:1026B0005C06F0925D06C0927206D0927306E092BC
:1026C0007406F0927506DAC08091810690918206B8
:1026D000A0918306B091840680934E0690934F0696
:1026E000A0935006B09351062091DF052130A9F048
:1026F00018F0223019F134C080935A0690935B068B
:10270000A0935C06B0935D06809372069093730667
:10271000A0937406B093750654C1809356069093A7
:102720005706A0935806B093590680937606909367
:102730007706A0937806B093790643C1809352063A
:1027400090935306A0935406B093550680937A064F
:1027500090937B06A0937C06B0937D0620E004C096
:102760002F5F233008F020E02093DF0587C08091A1
:10277000810690918206A0918306B0918406809391
:102780004E0690934F06A0935006B09351062091A9
:10279000DF052130B1F120F0223009F453C063C0CD
:1027A0008093520690935306A0935406B093550617
:1027B0008093560690935706A0935806B0935906F7
:1027C00080935A0690935B06A0935C06B0935D06D7
:1027D0008093720690937306A0937406B093750667
:1027E0008093760690937706A0937806B093790647
:1027F00080937A0690937B06A0937C06B0937D0627
:10280000E2C08093520690935306A0935406B0936F
:1028100055068093560690935706A0935806B0939A
:1028200059068093760690937706A0937806B09326
:10283000790680937A0690937B06A0937C06B093EA
:102840007D06C1C08093520690935306A093540610
:10285000B093550680937A0690937B06A0937C06EE
:10286000B0937D06B0C02F5F243008F020E02093A5
:10287000DF0504C08EE094E00E946918809186060E
:10288000882309F492C089E294E00E9469188DC0FF
:102890003091DF0521E0230FE22FF0E0EE0FFF1F64
:1028A000EE0FFF1FE65BF94F80E090E0AFEFB0E086
:1028B00080839183A283B383243090F4EAE0E30F12
:1028C000F0E0EE0FFF1FEE0FFF1FE65BF94F80E019
:1028D00094E6AFEFB0E080839183A283B38311C00D
:1028E000EEEFE30FF0E0EE0FFF1FEE0FFF1FE65BD2
:1028F000F94F80E094E6AFEFB0E080839183A2834C
:10290000B383273090F4E7E0E30FF0E0EE0FFF1F12
:10291000EE0FFF1FE65BF94F80E09FEFA0E0B0E015
:1029200080839183A283B38311C0EBEFE30FF0E0C8
:10293000EE0FFF1FEE0FFF1FE65BF94F80E09FEFEA
:10294000A0E0B0E080839183A283B3832A3090F427
:102950003C5FE32FF0E0EE0FFF1FEE0FFF1FE65B83
:10296000F94F8FEF94E6A0E0B0E080839183A283DB
:10297000B38311C03850E32FF0E0EE0FFF1FEE0FCE
:10298000FF1FE65BF94F8FEF94E6A0E0B0E0808395
:102990009183A283B3832C3008F020E02093DF05DD
:1029A00004C080E494E00E94691860E070E0CE0109
:1029B0000E949F0F10927E0608C082E08093A706B7
:1029C00003CD2F5FD1CE2F5F52CFDF91CF911F91DB
:1029D0000F91FF90EF90DF90CF90BF90AF909F90BE
:1029E0008F900895CF93DF93813031F038F08230AB
:1029F00041F08330A9F022C05E9820C080E48BB9FA
:102A00001DC0C3E0D0E4DBB98AEF90E00E94660FFE
:102A10005E988AEF90E00E94660FC150A1F70EC049
:102A2000C3E0D0E4DBB98EEE92E00E94660F5E98C0
:102A300084EF91E00E94660FC150A1F7DF91CF9122
:102A400008959B01220F331F620F731F209A35B127
:102A50003E7F45B14160AFB7F8946115710589F0CB
:102A6000FC01860F971F219158E045B927FF35B922
:102A7000220F000000C035B95A95B9F7E817F907D9
:102A800091F7AFBF85E88A95F1F7000008951F928E
:102A90000F920FB60F9211248F938091E4058F5FF0
:102AA0008093E4058091E405833028F081E08093F1
:102AB0007E061092E4058F910F900FBE0F901F902D
:102AC000189557985F9A3A983B9A209A399A82E0DB
:102AD00088B9089584B5826084BD88EF87BDEEE62D
:102AE000F0E080818260808385B5856085BD7894C3
:102AF0000895ECE7F0E0808180648083EAE7F0E00D
:102B00008081876080838081806880830895ECE77E
:102B1000F0E090818F70907F982B9083EAE7F0E04F
:102B2000808180648083808186FDFDCF80917800E4
:102B30009091790008958091A7068230A1F08330AA
:102B400011F1813069F580917F06882319F0815059
:102B500080937F068091DA05882331F181E594E046
:102B60000E94691821C080917F06873018F48F5F1A
:102B700080937F068091DA058823B1F08EE694E099
:102B80000E94691811C08CE894E00E946918809135
:102B9000DA05882349F082E994E00E94691804C0AC
:102BA0008EEA94E00E9469181092A70608958DECB1
:102BB00094E00E9469188091AA06823081F028F47E
:102BC0008823B9F0813081F01EC0833019F0843041
:102BD000A9F019C08EED94E00E94691808958DEE59
:102BE00094E00E946918089589EF94E00E946918A2
:102BF000089589E095E00E94691808958DE195E0B7
:102C00000E94691808958AE295E00E946918089563
:102C1000CF92DF92EF92FF920F931F93CF93DF93A8
:102C20007C0184E60E948706EC018E159F0520F446
:102C30008701081B190B03C08C010E191F09053BE6
:102C4000110510F00856114068018091DA058823BB
:102C500001F182E395E00E94691860E0C7010E94DB
:102C6000230A8CE395E00E94691860E0CE010E947F
:102C7000230A83E495E00E94691860E0C8010E947D
:102C8000230A81E595E00E94691860E0C8010E946E
:102C9000230A8BE5C816D104D4F08091E205909107
:102CA000E3054997A0F48091DA05882321F08AE5AD
:102CB00095E00E9469188091E2059091E3050196E4
:102CC0009093E3058093E2058E2D9F2D0EC0809199
:102CD000DA05882321F08EE795E00E9469181092AA
:102CE000E3051092E2058C2F9D2FDF91CF911F916C
:102CF0000F91FF90EF90DF90CF9008958AE090E0E1
:102D00000E9482238093800688E090E00E948223C4
:102D100080937F0680E090E00E947C236093810690
:102D200070938206809383069093840686E090E0F9
:102D30000E9482238093860684E090E00E94822392
:102D40008093850608958DE20E94101080E00E9415
:102D5000E71040E06FEF88EC0E940110609381065D
:102D60007093820680938306909384061092860661
:102D7000109285060E941410682F70E08AE090E09F
:102D80000E9494230E940611682F70E088E090E072
:102D90000E94942340E06FEF88EC0E940110AB0189
:102DA000BC0180E090E00E94882360E070E086E053
:102DB00090E00E94942360E070E084E090E00E9444
:102DC0009423089583E08093AA068093A90608952A
:102DD0000E9461150E946A150E94791583E390E0B4
:102DE0000E942218789485E695E00E9469180E9456
:102DF000360983E795E00E9469180E94E21689E18E
:102E00000E948706BC01882777FD8095982F0E9435
:102E1000B81E6093970670939806809399069093D6
:102E20009A068CE090E00E948223892B61F060E09A
:102E300070E08CE090E00E9494230E94A31683E847
:102E400095E00E9469180E947E168EEA95E00E9425
:102E5000691841E060E070E080E89FE30E94490A61
:102E600040E06FEF88EC0E94011060938106709340
:102E7000820680938306909384060E94D4100E9459
:102E80005A04C3EAD6E0888387E991E00E94691872
:102E9000888160E090E00E94230A82EA91E00E942B
:102EA00069180E94D4100E944D09C4EAD6E08883B4
:102EB00088EE92E00E946918888160E090E00E94AC
:102EC000230A87EF92E00E946918C7E9D6E00F2E27
:102ED000FEE7EF2EF6E0FF2EF02D0F2EFAEAAF2ED2
:102EE000F6E0BF2EF02D0F2EFBE9CF2EF6E0DF2E01
:102EF000F02D07EA16E00E94130F80917407688195
:102F000079818A819B810E948A1ECB010E940816CA
:102F1000BC0180E090E00E94B61E688379838A83BA
:102F20009B83F70180818823D1F00E94D7150E94EE
:102F3000E003F60160817181828193810E948A1E83
:102F40002B013C01688179818A819B810E948A1EC4
:102F5000DC01CB01F5014081B2010E945811F8015A
:102F6000808181110E949B158FEC97E00197F1F70A
:102F700000C00000C0CFEAEAF6E090819093A90675
:102F8000808308958091A9068093AA060895809170
:102F9000AA0608951F920F920FB60F9211242F9335
:102FA0008F939F93EF93FF938091C0002091C60071
:102FB0008871E091E705EF5FEF739091E605E917FF
:102FC00039F0E093E705F0E0E651FA4F208301C0C5
:102FD00082E09091E505892B8093E505FF91EF91C3
:102FE0009F918F912F910F900FBE0F901F9018956A
:102FF0001F920F920FB60F9211248F939F93EF930E
:10300000FF939091E9058091E805981769F0E091A8
:10301000E805EF5FEF71E093E805F0E0E65DF94F5A
:1030200080818093C60005C0E1ECF0E080818F7D57
:103030008083FF91EF919F918F910F900FBE0F9022
:103040001F9018951092E9051092E8051092E70577
:103050001092E605992324F422E02093C0009F7784
:103060009093C5008093C40088E98093C10086E0F6
:103070008093C20008959091E7058091E605981726
:1030800081F0E091E605EF5FEF73E093E605F0E095
:10309000E651FA4F80819091E5051092E50590E0A8
:1030A000089580E091E008952091E9052F5F2F7148
:1030B0009091E8052917E1F3E22FF0E0E65DF94F82
:1030C00080832093E905E1ECF0E0808180628083D9
:1030D0000895CF93DF93EC018881882331F0219606
:1030E0000E94541889918111FBCFDF91CF910895EF
:1030F000CF93DF93EC012196FC018491882339F072
:103100000E945418FE01849121968111F9CFDF911C
:10311000CF910895AF92BF92CF92DF92EF92FF923C
:103120000F931F93CF93DF93EC018B015A01FB01A7
:1031300020853185428553856C817D818E819F817B
:103140000E942D206B017C01F8012481358146818C
:103150005781688579858A859B850E942D209B01F2
:10316000AC01C701B6010E944F1DF5016083718358
:1031700082839383F8012081318142815381688564
:1031800079858A859B850E942D206B017C01F80141
:103190002085318542855385688179818A819B812B
:1031A0000E942D209B01AC01C701B6010E944F1D5A
:1031B000F5016483758386839783F80124813581C3
:1031C00046815781688179818A819B810E942D2067
:1031D0006B017C01F80120813181428153816C8136
:1031E0007D818E819F810E942D209B01AC01C701B2
:1031F000B6010E944F1DF501608771878287938712
:10320000DF91CF911F910F91FF90EF90DF90CF90C2
:10321000BF90AF900895CF92DF92EF92FF920F93FD
:103220001F93CF93DF93EC018B01FB012081318150
:1032300042815381688179818A819B810E942D20FE
:103240006B017C01F80124813581468157816C81B5
:103250007D818E819F810E942D209B01AC01C70141
:10326000B6010E94501D6B017C01F801208531855B
:1032700042855385688579858A859B850E942D20A6
:103280009B01AC01C701B6010E94501DDF91CF9197
:103290001F910F91FF90EF90DF90CF900895CF9204
:1032A000DF92EF92FF92CF93DF93EC01BC010E947B
:1032B0000B190E94BA206B017C019B01AC01688153
:1032C00079818A819B810E941D1E688379838A830C
:1032D0009B83A70196016C817D818E819F810E94D5
:1032E0001D1E6C837D838E839F83A7019601688555
:1032F00079858A859B850E941D1E688779878A87C4
:103300009B87DF91CF91FF90EF90DF90CF90089552
:10331000A3E1B0E0EEE8F9E10C94181D7C011B017B
:103320006A01FC0117821682838181FF66C3BE0198
:103330006F5F7F4F4B01F7019381F10193FD859101
:1033400093FF81911F01882309F453C3853239F417
:1033500093FD859193FF81911F01853239F4B70167
:1033600090E00E94CA2256016501E5CF10E0512C81
:1033700020E02032A0F48B3269F030F4803259F032
:10338000833269F420612CC08D3239F0803339F4F6
:10339000216026C02260246023C0286021C027FD50
:1033A00027C030ED380F3A3078F426FF06C0FAE037
:1033B0001F9F300D1124132F13C06AE0569E300D4D
:1033C0001124532E20620CC08E3221F426FD11C32D
:1033D000206406C08C3611F4206802C0883641F49F
:1033E000F10193FD859193FF81911F018111C1CF5F
:1033F0009BEB980F933018F42061805E06C09BE928
:10340000980F933008F0AAC12F7E26FF16E02F7385
:10341000722E853621F4F22FF0647F2E08C0863696
:1034200021F4622F6068762E02C01111115077FED0
:1034300007C01C3348F444244394410E27E00BC0DA
:10344000183030F4212F06C027E04CE3442E03C08F
:1034500027E017E0412C560174E0A70EB11CF601DD
:103460006081718182819381042DA4010E94712168
:103470006C01098100FF02C003FF06C071FC07C098
:1034800072FC08C0612C08C03DE2632E05C02BE22F
:10349000622E02C090E2692E802F8C7099F1662016
:1034A00011F084E001C083E0851510F0512C0BC0B1
:1034B000581A73FC08C0B70180E290E00E94CA224B
:1034C0005A94C9F7F3CF662029F0B701862D90E012
:1034D0000E94CA2203FD03C004E412E002C000E41B
:1034E00012E0F72DF0717F2EF8018491882309F402
:1034F00076C271108052B70190E00E94CA220F5F1D
:103500001F4FF2CF77FE0FC04C0C04FF04C08A811E
:10351000813309F44A94141474F5F8E0F41578F53D
:1035200088E0482E2CC076FC2AC0812F90E08C15B4
:103530009D059CF06CEFC6166FEFD60674F0772DE4
:103540007068772E0AC0E2E0F0E0EC0FFD1FE10F9B
:10355000F11D8081803319F411501111F4CF77FEE1
:103560000EC044244394410E812F90E0C816D90622
:103570002CF41C1904C04424439401C010E077FECD
:1035800007C01C141D043CF496012F5F3F4F05C07B
:1035900025E030E002C021E030E0662011F02F5F2E
:1035A0003F4F112331F0412F50E04F5F5F4F240F09
:1035B000351F452D50E02417350714F4521A01C069
:1035C000512C872D897049F4552039F0B70180E2DC
:1035D00090E00E94CA225A94F7CF662029F0B701E2
:1035E000862D90E00E94CA2273FC09C0552039F054
:1035F000B70180E390E00E94CA225A94F7CF77FE89
:103600005FC09C2D8D2DD7FE02C090E080E0692E1A
:10361000782E40E050E0C601841991099D878C877F
:10362000960126193709280D391D812F90E0EE27C4
:10363000FF27E81BF90BFF87EE87FFEF6F167F066A
:1036400069F4B7018EE290E02B8B3A8B488B598B53
:103650000E94CA22598948893A892B89C614D704FD
:1036600054F06C857D85661577052CF4F901E40F1F
:10367000F51F818101C080E371E0671A71084F5F17
:103680005F4FEE85FF856E167F066CF0B70190E008
:103690002B8B3A8B488B598B0E94CA222B893A89F3
:1036A00048895989CACF6C147D0439F49A819633BC
:1036B00018F4953311F404FF81E3B70190E04BC097
:1036C0008A81813309F00F7EB70190E00E94CA22FF
:1036D000111105C074FE18C085E490E017C0B70151
:1036E0008EE290E00E94CA2282E066246394680E13
:1036F000F401E80FF11D8081B70190E00E94CA2219
:10370000115041F3862DF1CF85E690E0B7010E947C
:10371000CA22D7FC05C0C114D10439F404FF05C086
:10372000D194C194D1088DE201C08BE2B70190E041
:103730000E94CA2280E36AE0C616D1042CF08F5F93
:10374000FAE0CF1AD108F7CFB70190E00E94CA2261
:10375000B701C601C0960E94CA2241C1833631F02A
:10376000833779F0833509F058C021C0560172E0E3
:10377000A70EB11CF6018081898301E010E064018D
:1037800014C05601F2E0AF0EB11CF601C080D1802A
:1037900026FF03C0612F70E002C06FEF7FEFC6010C
:1037A0002B8B0E946B228C012B892F7715C0560121
:1037B000F2E0AF0EB11CF601C080D18026FF03C03D
:1037C000612F70E002C06FEF7FEFC6012B8B0E946C
:1037D00049228C012B892068722E23FD1AC0852D69
:1037E00090E008171907A8F4B70180E290E00E9462
:1037F000CA225A94F4CFF60177FC859177FE819125
:103800006F01B70190E00E94CA2251105A940150F2
:1038100011090115110579F7E2C0843611F08936D6
:1038200051F5560127FF09C0F4E0AF0EB11CF601B7
:1038300060817181828193810AC0F2E0AF0EB11C78
:10384000F60160817181882777FD8095982F022F7E
:103850000F7697FF08C090958095709561957F4F82
:103860008F4F9F4F00682AE030E0A4010E941E2382
:10387000C82EC8183EC0022F853721F40F7E2AE0DB
:1038800030E01DC0097F8F3691F018F4883559F06B
:10389000B0C0803719F0883711F0ABC0006104FF69
:1038A00009C0046007C024FF08C0066006C028E005
:1038B00030E005C020E130E002C020E132E05601F6
:1038C00007FF09C0F4E0AF0EB11CF6016081718101
:1038D0008281938108C0F2E0AF0EB11CF6016081D5
:1038E000718180E090E0A4010E941E23C82EC818B8
:1038F0000F7706FF0BC0202F2E7FC11650F404FF58
:103900000AC002FD08C0202F2E7E05C0DC2C202F0F
:1039100003C0DC2C01C0D12E24FF0DC0FE01EC0D34
:10392000F11D8081803311F4297E09C022FF06C079
:10393000D394D39404C0822F867809F0D39423FDC6
:1039400013C020FF06C01C2DD51418F4150D1D1929
:10395000D52CD51468F4B70180E290E02B8B0E943F
:10396000CA22D3942B89F5CFD51410F45D1801C069
:10397000512C24FF12C0B70180E390E02B8B0E94F2
:10398000CA222B8922FF17C021FF03C088E590E0DF
:1039900002C088E790E0B7010CC0822F867859F00A
:1039A00021FD02C080E201C08BE227FD8DE2B7015C
:1039B00090E00E94CA22C11638F4B70180E390E07B
:1039C0000E94CA221150F7CFCA94F401EC0DF11DE8
:1039D0008081B70190E00E94CA22C110F5CF552026
:1039E00009F4C2CCB70180E290E00E94CA225A9446
:1039F000F6CFF7018681978102C08FEF9FEF639624
:103A0000E2E10C94341DEE0FFF1F0590F491E02DC0
:103A10000994A29FB001B39FC001A39F700D811DA7
:103A20001124911DB29F700D811D1124911D0895C7
:103A30002F923F924F925F926F927F928F929F92BE
:103A4000AF92BF92CF92DF92EF92FF920F931F93AC
:103A5000CF93DF93CDB7DEB7CA1BDB0B0FB6F8945D
:103A6000DEBF0FBECDBF09942A88398848885F849D
:103A70006E847D848C849B84AA84B984C884DF800E
:103A8000EE80FD800C811B81AA81B981CE0FD11DF2
:103A90000FB6F894DEBF0FBECDBFED0108955058AC
:103AA000BB27AA270ED083C24CD230F051D220F0CF
:103AB00031F49F3F11F41EF41CC20EF4E095E7FBB5
:103AC00004C2E92F96D280F3BA17620773078407FE
:103AD000950718F071F49EF5AEC20EF4E0950B2E2A
:103AE000BA2FA02D0B01B90190010C01CA01A00150
:103AF0001124FF27591B99F0593F50F4503E68F1AB
:103B00001A16F040A22F232F342F4427585FF3CFEB
:103B1000469537952795A795F0405395C9F77EF4BC
:103B20001F16BA0B620B730B840BBAF09150A1F005
:103B3000FF0FBB1F661F771F881FC2F70EC0BA0F8B
:103B4000621F731F841F48F4879577956795B79513
:103B5000F7959E3F08F0B3CF9395880F08F099270B
:103B6000EE0F979587950895ECD158F080E891E095
:103B700009F49EEFEDD128F040E851E059F45EEFF2
:103B800009C0B7C158C2E92FE07833D268F3092ED3
:103B9000052AC1F3261737074807590738F00E2EB4
:103BA00007F8E02569F0E025E0640AC0EF6307F854
:103BB000009407FADB01B9019D01DC01CA01AD01E6
:103BC000EF934AD0F4D10AD05F91552331F02BED19
:103BD0003FE049E450FD49EC63CF0895DF93DD27D2
:103BE000B92FBF7740E85FE31616170648075B0753
:103BF00010F4D92F2BD29F938F937F936F93F8D28A
:103C0000E6EFF0E079D1D3D12F913F914F915F91C1
:103C100030D2DD2349F09058A2EA2AED3FE049EC8A
:103C20005FE3D0785D274DDFDF91C1C12AD108F471
:103C300081E0089595D1E395CBC10CD0B8C188D16E
:103C400040F07FD130F021F45F3F19F03EC15111B7
:103C5000F3C14FC1CED198F39923C9F35523B1F3E2
:103C6000951B550BBB27AA2762177307840738F0EB
:103C70009F5F5F4F220F331F441FAA1FA9F333D04A
:103C80000E2E3AF0E0E830D091505040E695001CFE
:103C9000CAF729D0FE2F27D0660F771F881FBB1FBA
:103CA000261737074807AB07B0E809F0BB0B802D94
:103CB000BF01FF2793585F4F2AF09E3F510568F0E0
:103CC00004C1BAC15F3FECF3983EDCF3869577956B
:103CD0006795B795F7959F5FC9F7880F911D9695E2
:103CE000879597F90895E1E0660F771F881FBB1F3E
:103CF000621773078407BA0720F0621B730B840BEB
:103D0000BA0BEE1F88F7E095089504D06894B111BE
:103D100093C1089576D188F09F5790F0B92F9927D5
:103D2000B751A0F0D1F0660F771F881F991F1AF0C6
:103D3000BA95C9F712C0B13081F07DD1B1E00895D4
:103D40007AC1672F782F8827B85F39F0B93FCCF355
:103D5000869577956795B395D9F73EF490958095BC
:103D6000709561957F4F8F4F9F4F0895E89409C0DC
:103D700097FB3EF490958095709561957F4F8F4F9E
:103D80009F4F9923A9F0F92F96E9BB279395F695B4
:103D9000879577956795B795F111F8CFFAF4BB0F32
:103DA00011F460FF1BC06F5F7F4F8F4F9F4F16C096
:103DB000882311F096E911C0772321F09EE8872F20
:103DC000762F05C0662371F096E8862F70E060E0DC
:103DD0002AF09A95660F771F881FDAF7880F969555
:103DE000879597F90895ADD018F011F0B1D038F457
:103DF00080C022C1E92FFDD0B0F35523C9F3E7FB02
:103E00006217730784079507A8F199F3E92FFF2735
:103E100088232AF03197660F771F881FDAF7952FCE
:103E20005527442332F091505040220F331F441F36
:103E3000D2F7BB27E91BF50B621B730B840BB1098F
:103E4000C1F222F4620F731F841FB11D31972AF053
:103E5000660F771F881FBB1FEFCF915050405AF05D
:103E600041F0882332F0660F771F881F9150504031
:103E7000C1F7939530C08695779567959F5FD9F781
:103E8000F8CF990F0008550FAA0BE0E8FEEF1616C1
:103E90001706E807F907C0F012161306E407F5073E
:103EA00098F0621B730B840B950B39F40A2661F0B2
:103EB000232B242B252B21F408950A2609F4A14055
:103EC000A6958FEF811D811D089597F99F6780E862
:103ED00070E060E008959F3F31F0915020F48795A5
:103EE00077956795B795880F911D9695879597F962
:103EF00008959FEF80EC0895DF93CF931F930F9366
:103F0000FF92EF92DF927B018C01689405C0DA2E5C
:103F1000EF01AFD0FE01E894A5912591359145912F
:103F20005591AEF3EF01CDDDFE019701A801DA94C2
:103F300079F7DF90EF90FF900F911F91CF91DF9174
:103F4000089500240A9416161706180609060895FF
:103F500000240A9412161306140605060895C9CF04
:103F600050D0E8F3E894E0E0BB279F57F0F02AED4B
:103F70003FE049EC06C0EE0FBB0F661F771F881F9E
:103F800028F0B23A62077307840728F0B25A620B2E
:103F9000730B840BE3959A9572F7803830F49A95F9
:103FA000BB0F661F771F881FD2F7904896CF092E48
:103FB0000394000C11F4882352F0BB0F40F4BF2B84
:103FC00011F460FF04C06F5F7F4F8F4F9F4F0895C4
:103FD000EF93E0FF06C0A2EA2AED3FE049EC5FEB79
:103FE00070DDE5DF0F90039401FC9058E3E2F1E00F
:103FF00024C157FD9058440F551F59F05F3F71F091
:104000004795880F97FB991F61F09F3F79F087953F
:104010000895121613061406551FF2CF4695F1DFC8
:1040200008C0161617061806991FF1CF8695710558
:10403000610508940895E894BB2766277727CB018C
:1040400097F908951EDF08F48FEF08959B01AC01E6
:1040500060E070E080E89FE3F0CD0BD0A8CF71DF87
:1040600028F076DF18F0952309F02FCF42CF1124E6
:10407000E3CFBFDFA0F3959FD1F3950F50E0551F1D
:10408000629FF001729FBB27F00DB11D639FAA27AD
:10409000F00DB11DAA1F649F6627B00DA11D661FFC
:1040A000829F2227B00DA11D621F739FB00DA11D1D
:1040B000621F839FA00D611D221F749F3327A00DD7
:1040C000611D231F849F600D211D822F762F6A2F73
:1040D00011249F5750408AF0E1F088234AF0EE0FF8
:1040E000FF1FBB1F661F771F881F91505040A9F705
:1040F0009E3F510570F0E9CE9FCF5F3FECF3983EB5
:10410000DCF3869577956795B795F795E7959F5F6B
:10411000C1F7FE2B880F911D9695879597F9089505
:1041200070DFE0F09E37D8F09639B8F49E3848F446
:10413000672F782F8827985FF9CF869577956795B1
:1041400093959539D0F3B62FB1706B0F711D811D0A
:1041500020F487957795679593954DC0BCCE6CCF2D
:104160009F93FEDE0F9007FCEE5F32CF11F40EF44A
:10417000C0CEB1CE46DFD0F39923D9F3CEF39F570B
:10418000550B87FF53D00024A0E640EA90018058E9
:104190005695979528F4805C660F771F881F20F04E
:1041A00026173707480730F4621B730B840B20294E
:1041B00031294A2BA69517940794202531254A27A3
:1041C00058F7660F771F881F20F026173707480714
:1041D00030F4620B730B840B200D311D411DA09533
:1041E00081F7B901842F9158880F96958795089586
:1041F0009B01AC0132CF882371F4772321F09850D2
:10420000872B762F07C0662311F499270DC0905194
:10421000862B70E060E02AF09A95660F771F881F62
:10422000DAF7880F9695879597F908959150504041
:10423000660F771F881FD2F708959F938F937F9300
:104240006F93FF93EF939B01AC0107DFEF91FF9119
:1042500053DE2F913F914F915F91FFCEEF920F93DD
:104260001F93CF93DF93E80147FF02C034E101C001
:1042700034E0E42FFF27E7FDF095F7FF03C0F19549
:10428000E195F109E32E022F2E2FAE010E949A2311
:10429000CE01DF91CF911F910F91EF900895662786
:1042A00077270C941825FC0188279927E8942191F9
:1042B0002032E9F3293010F02E30C8F32B3241F0D0
:1042C0002D3239F4689404C00E94A822820F911DF7
:1042D000219120532A30C0F31EF4909581959F4F71
:1042E0000895283008F027E03327DA01990F311DAF
:1042F00087FD916000966105710539F432602E5F8B
:104300003D9330E32A95E1F708959F3F30F08038E0
:104310007105610509F03C5F3C5F3D93913008F009
:104320008068911DDF93CF931F930F93FF92EF92BD
:10433000192F987F9695E92F96959695E90FFF2767
:10434000EE55FD4F99273327EE24FF24A701E701FF
:1043500005900894079428F4360FE71EF81E491FAD
:10436000511D660F771F881F991F0694A1F70590AE
:10437000079428F4E70EF81E491F561FC11D770F3A
:10438000881F991F661F0694A1F70590079428F4CB
:10439000F80E491F561FC71FD11D880F991F661F92
:1043A000771F0694A1F70590079420F4490F561F34
:1043B000C71FD81F990F661F771F881F0694A9F77C
:1043C00084911095177041F0D695C79557954795EC
:1043D000F794E7941A95C1F7E8E4F2E06894159031
:1043E000159135916591959105907FE27395E1184E
:1043F000F10A430B560BC90BD009C0F7E10CF11EB3
:10440000431F561FC91FD01D7EF4703311F48A95C7
:10441000E6CFE894015030F0080F0AF400270217A5
:1044200008F4202F2395022F7A3328F079E37D9327
:104430002A95E9F710C07D932A9589F606949795F9
:104440006795379517951794E118F10A430B560BAA
:10445000C90BD00998F023957E9173957A3308F0B3
:1044600070E37C932013B8F77E9170617D9330F0F8
:10447000839571E37D9370E32A95E1F71124EF9022
:10448000FF900F911F91CF91DF91992787FD909514
:104490000895FC010590615070400110D8F7809597
:1044A00090958E0F9F1F08954EEB55E00E94762247
:1044B0000895FC018191861721F08823D9F7992767
:1044C00008953197CF010895FB01DC0101900D9211
:1044D0000020E1F70895FC01615070400190011047
:1044E000D8F7809590958E0F9F1F0895FA01A1919E
:1044F000B081009719F41097E1F0CD01DC01CD01F6
:104500000D90002011F4C00113C0FB012191222362
:1045100019F02015D9F7F3CFFB012191201519F4DB
:104520001E92119606C02223C1F70D900020A1F71C
:10453000D001FA01A193B0830895BB274A3031F42A
:10454000992322F4BDE2909581959F4F0C94B1225E
:104550007AE0979F902D879F802D910D11240895CB
:10456000BB27FB015527AA27880F991FAA1FA4174D
:1045700010F0A41B83955051B9F7A05DAA3308F041
:10458000A95DA193009779F7B111B1931192CB0175
:104590000C949B260F931F93CF93DF93182F092F13
:1045A000EB018B8181FD03C08FEF9FEF20C082FF65
:1045B00010C04E815F812C813D81421753077CF4EE
:1045C000E881F9819F012F5F3F4F39832883108352
:1045D00006C0E885F985812F0995892B29F72E8159
:1045E0003F812F5F3F4F3F832E83812F902FDF919D
:1045F000CF911F910F910895AEE0B0E0E2E0F3E2B9
:104600000C94261D0D891E8986E08C831A830983EC
:104610008FEF9FE79E838D83AE01475E5F4F6F896B
:10462000788DCE0101960E948819EF81F885E00F00
:10463000F11F10822E96E4E00C94421DFA01AA2785
:10464000283051F1203181F1E8946F936E7F6E5FD5
:104650007F4F8F4F9F4FAF4FB1E03ED0B4E03CD083
:10466000670F781F891F9A1FA11D680F791F8A1F66
:10467000911DA11D6A0F711D811D911DA11D20D0CD
:1046800009F468943F912AE0269F11243019305D87
:104690003193DEF6CF010895462F4770405D419378
:1046A000B3E00FD0C9F7F6CF462F4F70405D4A33C5
:1046B00018F0495D31FD4052419302D0A9F7EACF8D
:1046C000B4E0A6959795879577956795BA95C9F7BC
:1046D00000976105710508959B01AC010A2E0694AF
:1046E0005795479537952795BA95C9F7620F731F68
:1046F000841F951FA01D0895A6E1B0E044E050E09E
:104700000C94AD26A8E1B0E042E050E00C94AD2658
:104710000396272F0E94BC260E94BB26252F0E94AD
:10472000BC26242F0C94BC260196272F0E94BC2661
:104730000C94BB266F927F929F92AF92BF92CF92C2
:10474000DF92EF92FF920F931F93CF93DF93CDB73A
:10475000DEB729970FB6F894DEBF0FBECDBF6A0152
:10476000B22E102F0C3320F4FF24F394F00E02C06D
:104770004CE3F42E0F2D27E0AE014F5F5F4F0E94F8
:1047800071217981272F2970213031F0E1FC06C099
:10479000E0FC06C060E005C06DE203C06BE201C052
:1047A00060E2AE2DA07173FF36C0662311F084E085
:1047B00001C083E08B1510F4B81A01C0B12CA1110F
:1047C0000BC0F6018B2D90E2882319F09193815054
:1047D000FBCFCB0CD11CB12C662331F0F6016083EA
:1047E00096012F5F3F4F6901C6010396E2FE05C0A7
:1047F0002EE4F601208331E404C02EE6F601208386
:1048000031E631832283FC012B2D30E22223F1F1AA
:1048100031932150FBCF72FF40C0662311F084E03A
:1048200001C083E08B1510F4B81A01C0B12CA1119E
:104830000BC0F6018B2D90E2882319F091938150E3
:10484000FBCFCB0CD11CB12C662331F0F601608379
:1048500096012F5F3F4F6901C6010396E2FE07C034
:1048600029E4F60120832EE4218326E406C029E60C
:10487000F60120832EE6218326E62283FC012B2DE0
:1048800030E2222319F031932150FBCFFC01EB0DD4
:10489000F11D10828EEF9FEFB7C0B1E0611101C032
:1048A000B0E04B2F50E01816190624F49C012F5F3E
:1048B0003F4F02C021E030E0240F351F112329F0C3
:1048C000412F50E04F5F5F4F02C040E050E0420F89
:1048D000531F2B2D30E04217530714F4B41A01C0B4
:1048E000B12C2E2D287159F4F6012B2D30E2222304
:1048F00019F031932150FBCFCB0CD11CB12CBB2331
:1049000031F0F601608396012F5F3F4F6901A111DD
:104910000BC0F6012B2D30E3222319F031932150E7
:10492000FBCFCB0CD11CB12CF80E0A81372F307184
:10493000A32E74FF03C0013309F4FA941F142CF45E
:104940002F2D293018F028E001C021E0682F392FE1
:1049500097FF02C060E030E0462F532F612C712C8E
:104960003EE2932EBC01621B71099B01DC01A41B7A
:10497000B50BE1E0F0E0EC0FFD1FAE0FBF1FE12E25
:10498000F12CF194E194F1084F3FFFEF5F0731F410
:10499000F6019082B6016F5F7F4F6B018417950718
:1049A0004CF02417350734F4BD01660D771DFB016B
:1049B000118101C010E341505109FFEF6F1A7F0AC6
:1049C000B6016F5F7F4F4E155F0524F0F60110832F
:1049D0006B01DACF4817590739F4063320F4053351
:1049E00019F4A11001C011E3F6011083FB018B2D16
:1049F00090E2882319F091938150FBCFFB01EB0DDE
:104A0000F11D108280E090E029960FB6F894DEBF89
:104A10000FBECDBFDF91CF911F910F91FF90EF900F
:104A2000DF90CF90BF90AF909F907F906F90089550
:104A3000A0E0B0E0EEE1F5E20C941E1D8B016115E3
:104A4000710521F0DB018C9311969C93EC015E01C2
:104A5000BFEFAB1ABB0A7501C8808C2D90E00E9495
:104A60007B26892B11F0E501F2CFEDE2CE1208C0D2
:104A70007E01F2E0EF0EF11CC980DD24D39409C061
:104A80002BE2C21205C07E0142E0E40EF11CC98097
:104A9000D12CE701219743E050E06AE473E0CE01B6
:104AA0000E948326892BC1F4239645E050E065E4FB
:104AB00073E0CE010E948326892B09F42596011507
:104AC000110519F0D801CD93DC93D11006C160E037
:104AD00070E080E89FE70AC143E050E062E473E0E1
:104AE000CE010E948326892B59F40115110509F482
:104AF000F9C0B2E0EB0EF11CF801F182E082F2C0E5
:104B0000F70160E070E0CB01C0E0D0E07F01A0EDF4
:104B1000AA2EAC0C29E02A1530F14D2D4260B42E9E
:104B20002D2D2870D2FE04C0211125C0219623C04E
:104B300021112197A5E0B0E09B01AC010E94D02695
:104B4000660F771F881F991F6A0D711D811D911DAA
:104B50006839A9E97A078A07A9E19A0760F0BD2DAB
:104B6000B660BB2E08C02EEFA2120AC0D3FC50C004
:104B70004D2D4860B42E3196D701CC90DB2CC6CF9A
:104B80002C2D2F7D253409F043C0A081AD3241F496
:104B9000BD2DB061DB2E7F0122E0E20EF11C0CC0C6
:104BA0007F01AB3231F04FEFE41AF40A21E030E03C
:104BB00006C0A2E0EA0EF11CA18122E030E0A05381
:104BC000AA3018F0E21AF30A23C0F70120E030E01F
:104BD0002038BCE03B075CF4A901440F551F440F8B
:104BE000551F240F351F220F331F2A0F311DAF0110
:104BF0004F5F5F4F7A01A081A053AA3010F4FA01F1
:104C0000E7CFD4FE03C0319521953109C20FD31FE0
:104C1000D1FE09C00115110531F0E1E0EE1AF108ED
:104C2000D801ED92FC920E94B61E2D2D23702330E8
:104C300019F04B015C0106C04B015C01B7FAB0945E
:104C4000B7F8B09420E030E0A901C501B4010E949A
:104C5000161E882309F43EC0D7FF06C0D195C19522
:104C6000D10901E613E002C009E713E06801B8E1E9
:104C7000CB1AD10890E2E92EF12CCE15DF0574F0A5
:104C8000F8012591359145915491C501B4010E94D7
:104C90002D204B015C01CE19DF09EFCF0450110923
:104CA000F594E7940C151D0541F78A2D880F8B2D7F
:104CB000881F8F3F49F020E030E0A901C501B40111
:104CC0000E94161E811106C082E290E0909319089E
:104CD00080931808C501B40109C060E070E080E865
:104CE0009FEF04C060E070E080EC9FE7CDB7DEB7D7
:104CF000ECE00C943A1D911150C0803219F08950AB
:104D00008550D0F70895FB01DC014150504088F0F8
:104D10008D9181341CF08B350CF4805E659161348B
:104D20001CF06B350CF4605E861B611171F3990BFE
:104D30000895881BFCCFDC01FC01672F719177235C
:104D4000E1F7329704C07C916D9370836291AE1746
:104D5000BF07C8F30895DC01CB01FC01F999FECF30
:104D600006C0F2BDE1BDF89A319600B40D924150F3
:104D70005040B8F70895262FF999FECF92BD81BD16
:104D8000F89A019700B4021639F01FBA20BD0FB689
:104D9000F894FA9AF99A0FBE0895992788270895EA
:104DA0000E94091DA59F900DB49F900DA49F800D9A
:0A4DB000911D11240895F894FFCF1F
:104DBA00008022440040044400C0134400C026C4BA
:104DCA00004025C400C00AC400000000000080BFE3
:104DDA0000000000427574746F6E20707265737300
:104DEA0065640A00427574746F6E2072656C656141
:104DFA007365640A0057652068617665204E4F2006
:104E0A00436F6E6E656374696F6E202874696D6591
:104E1A002D6F7574292E2E0A00436861726765200A
:104E2A007374617475733A204348415247494E4737
:104E3A000A00436861726765207374617475733A16
:104E4A002046554C4C0A0042617474657279203DC3
:104E5A002000250A0041542B4E414D4542494B45FD
:104E6A004E41560A0041542B524F4C453D300A00E0
:104E7A0041542B42415544340A0041542B52455364
:104E8A0045540A00586D696E3A0020586D61783AA7
:104E9A000020596D696E3A0020596D61783A0020F8
:104EAA005A6D696E3A00205A6D61783A002028528C
:104EBA006F746174652064657669636520756E74C4
:104ECA00696C20616C6C206178697320617265205D
:104EDA006174207468656972206D696E2F6D6178DE
:104EEA00290A0041727269766564206174206C6FC8
:104EFA00636174696F6E0A005265736574206C652C
:104F0A00640A00526563656976656420636F72722C
:104F1A0065637420636F6F7264696E617465733A56
:104F2A000A004C6F636174696F6E3A002C0020446A
:104F3A00657374696E6174696F6E3A2000446973AF
:104F4A0074616E6365203D20004B4D0A0042656125
:104F5A0072696E67203D20006465670A00526563C6
:104F6A0065697665642077726F6E6720636F6F720A
:104F7A0064696E61746520666F726D61740A0046B9
:104F8A006C6173686C69676874206D6F6465203D35
:104F9A0020544F444F21200054656D70657261742E
:104FAA00757265203D2000206465672E20432E0A15
:104FBA00005549206D6F64652B2B005549206D6F94
:104FCA006465203D20004E617669676174696F6E81
:104FDA0020636F6C6F72207365740A004E6F2076BF
:104FEA00616C696420636F6D6D616E643A0020289C
:104FFA0000696E2062203D3C003E0A004572726FD5
:10500A007220696E20666F726D61740A003B004CF3
:10501A0061742063757272203D2025302E3566003A
:10502A004C6F6E2063757272203D2025302E3566D6
:10503A00004C61742064657374203D2025302E3540
:10504A0066004C6F6E2064657374203D2020253005
:10505A002E3566004E6F20636F727265637420632B
:10506A006F6F7264696E617465730A0041736B6570
:10507A006420532076616C75650A00526563656920
:10508A0076656420532076616C75650A0042555A2C
:10509A005A4552210A005265636569766564203D66
:1050AA003C0056616C756520746F6F20686967688B
:1050BA0020746F20646973706C6179210A006465D9
:1050CA006661756C74206572726F7220696E205504
:1050DA00492063617365210A00544F444F205348A5
:1050EA004F572055492044495354414E43450A00DD
:1050FA00554E4B4E4F574E20737461747573210A87
:10510A000053686F727420707265737320616374E0
:10511A00696F6E2065786563757465640A004D6908
:10512A0064646C6520707265737320616374696F5F
:10513A006E2065786563757465640A006E657874B7
:10514A000A004C6F6E672070726573732061637416
:10515A00696F6E2065786563757465640A004572C7
:10516A00726F7220696E20627574746F6E2070722D
:10517A0065737321202866697821290A00446576B7
:10518A0069636520737461747573203D20004E4F06
:10519A0020434F4E4E454354494F4E0A004E415606
:1051AA0049474154494E470A00425554544F4E20EC
:1051BA00505245535345440A00425554544F4E20C9
:1051CA004E4F5420505245535345440A0041545FB0
:1051DA004C4F434154494F4E0A004552524F5221B7
:1051EA000A0043757272656E743A2000204E657724
:1051FA003A200020446966666572656E63653A20E6
:10520A0000204572726F723A2000204F75746C69E3
:10521A006572210A00496E69742055617274204FC3
:10522A004B0A00496E6974204C534D333033204F7A
:10523A004B0A0046697273742074696D6520737431
:10524A0061727475702C20646F696E672066616381
:10525A00746F727920707265736574730A0042699B
:0E526A006B654E6176203230313720560000E1
:00000001FF
