S00C00004D61696E2E7372656393
S11300000C94BF010C94DC010C94DC010C94DC0115
S11300100C94DC010C94DC010C94DC010C94DC01E8
S11300200C94DC010C94DC010C94DC010C94DC01D8
S11300300C94DC010C94DC010C94C8140C94DC01C9
S11300400C94DC010C94DC010C9422170C945017D2
S11300500C94DC010C94DC010C94DC010C94DC01A8
S11300600C94DC010C94DC01FA0DFF0EC10CB90DEB
S1130070D90DDE0DFF0E3B0EFF0EFF0E4C0EFF0ED4
S1130080F10EFF0E190F6B0E790C870EFF0E9F0EEB
S1130090AA0EAF0ED30E9E0CFF0EFF0EFF0EFF0E28
S11300A0FF0EFF0EFF0EFF0EFF0EFF0ECD0CD80C41
S11300B0D60DFF0E0D0EFF0EFF0EFF0EFF0EFF0EF0
S11300C0FF0EFF0EFF0EFF0EFF0EFF0EFF0E940E2F
S11300D0470EFF0EBD0E36104B10601075108A10BF
S11300E09F10B410C910FE110F1234126D12A61213
S11300F007136F13C213084AD73B3BCE016E84BC6F
S1130100BFFDC12F3D6C74319ABD56833DDA3D006D
S1130110C77F11BED9E4BB4C3E916BAAAABE0000B6
S113012000803F05A84CCDB2D44EB93836A9020C94
S113013050B9918688083CA6AAAA2ABE000000806D
S11301403F00273F27203D206465627567206D6569
S11301507373616765730A00446576696365207229
S113016065736574656420746F20666163746F726F
S1130170792073657474696E6773210A005265731C
S1130180657474696E6720426C7565746F6F74680A
S11301902073657474696E6773210A00506F776504
S11301A072696E67206F66662E2E0A0053686F7739
S11301B0205549204E6F727468203D2000427269B8
S11301C06768746E6573732073657420746F3A0086
S11301D0544F444F2C20696D706C656D656E7420AE
S11301E0736574206E617669676174696F6E2063EC
S11301F06F6C6F720A00436F6D7061737320766168
S11302006C75652073657420746F0044656275674E
S1130210206D73672773206F6E0A004465627567EB
S1130220206D73672773206F66660A0053686F77C3
S11302302055492064697374616E6365203D200014
S11302406E616E00696E660000407A10F35A00A079
S1130250724E18090010A5D4E80000E8764817008B
S113026000E40B54020000CA9A3B000000E1F505CB
S1130270000080969800000040420F000000A08615
S113028001000000102700000000E8030000000047
S11302906400000000000A000000000001000000EB
S11302A000002C76D888DC674F0823DFC1DFAE5905
S11302B0E1B1B796E5E3E453C63AE651997696E898
S11302C0E6C28426EB898C9B62ED407C6FFCEFBC1C
S11302D09C9F40F2BAA56FA5F490055A2AF75C9347
S11302E06B6CF9676DC11BFCE0E40D47FEF520E67D
S11302F0B500D0ED902E0300943577050080841E60
S1130300080000204E0A000000C80C333333330FBA
S1130310986E12831141EF8D2114893BE65516CF57
S1130320FEE6DB18D1844B381BF77C1D901DA4BB63
S1130330E424203284725E228100C9F124ECA1E518
S11303403D274E414E494E495459494E46CDCCCC99
S11303503D0AD7233C17B7D13877CC2B329595E695
S1130360241FB14F0A000020410000C84200401C75
S11303704620BCBE4CCA1B0E5AAEC59D7400112447
S11303801FBECFEFD8E0DEBFCDBF15E0A0E0B1E0E7
S1130390EAE6FCE402C005900D92A63BB107D9F74A
S11303A028E0A6EBB5E001C01D92A231B207E1F747
S11303B00E9452160C9433260C9400004F925F92C4
S11303C06F927F928F929F92AF92BF92CF92DF9261
S11303D0EF92FF920F931F93CF93DF93CDB7DEB7C6
S11303E064970FB6F894DEBF0FBECDBF2D833E8356
S11303F04F8358872BED3FE049E450E40E94851F6A
S113040020E030E044E353E40E94751D69837A835D
S11304108B839C832BED3FE049E450E4C801B70192
S11304200E94851F20E030E044E353E40E94751DE0
S11304302B013C0169817A818B819C810E94721D10
S113044069877A878B879C87C301B2010E94082041
S11304506D877E878F87988B69817A818B819C8158
S11304600E94082069837A838B839C83C301B20131
S11304700E94721D2B013C012BED3FE049E450E446
S1130480C601B5010E94851F20E030E044E353E437
S11304900E94751D4B015C012BED3FE049E450E4E3
S11304A06D817E818F8198850E94851F20E030E0D8
S11304B044E353E40E94751D9B01AC01C501B401E2
S11304C00E94A71C4B015C010E94721D6D837E83F8
S11304D08F839887C501B4010E940820698B7A8BA9
S11304E08B8B9C8B2D853E854F85588969857A85B4
S11304F08B859C850E94851F4B015C01A3019201A1
S113050069817A818B819C810E94851F2D813E8126
S11305104F8158850E94851F9B01AC01C501B40120
S11305200E94A71C4B015C0129893A894B895C898B
S1130530C301B2010E94851FA50194010E941B1DE5
S113054020E030E044E353E40E94851F2BED3FE0BC
S113055049E450E40E94751D20E030E044EB53E48C
S11305600E94A81C20E030E044EB53E40E94521E99
S11305700E94DD1D882777FD8095982F0E94101E0C
S113058020E030E040E05FE30E94A81C0E94E21DEE
S1130590CB0164960FB6F894DEBF0FBECDBFDF91DA
S11305A0CF911F910F91FF90EF90DF90CF90BF906C
S11305B0AF909F908F907F906F905F904F90089531
S11305C04F925F926F927F928F929F92AF92BF925F
S11305D0CF92DF92EF92FF920F931F93CF93DF930B
S11305E0CDB7DEB72C970FB6F894DEBF0FBECDBFE4
S11305F02B013C0129873A874B875C87E982FA8281
S11306000B831C839B01AC01C801B7010E94A71C8A
S11306102BED3FE049E450E40E94851F20E030E0E8
S113062044E353E40E94751D20E030E040E05FE3C2
S11306300E94851F0E9408206D837E838F83988784
S11306402BED3FE049E450E4C301B2010E94851F51
S113065020E030E044E353E40E94751D0E94721DC3
S11306602B013C012BED3FE049E450E4C801B70104
S11306700E94851F20E030E044E353E40E94751D8E
S11306800E94721D69837A838B839C8329853A85B2
S11306904B855C85C601B5010E94A71C2BED3FE08C
S11306A049E450E40E94851F20E030E044E353E431
S11306B00E94751D20E030E040E05FE30E94851F4A
S11306C00E9408209B01AC010E94851F4B015C0124
S11306D029813A814B815C81C301B2010E94851F4B
S11306E09B01AC01C501B4010E94851F4B015C0153
S11306F02D813E814F815885CA01B9010E94851F11
S11307009B01AC01C501B4010E94A81C6B017C01D2
S11307109B01AC0160E070E080E89FE30E94A71CAD
S11307200E9412204B015C01C701B6010E941220F5
S1130730A50194010E941B1D9B01AC010E94A81CF1
S11307402CE636EA4FE95BE40E94851F0E94DD1D1A
S11307500E94101E20E030E040E05FE30E94A81CED
S113076020E93DEC4FE959E30E94851F0E94DD1DFD
S11307702C960FB6F894DEBF0FBECDBFDF91CF919C
S11307801F910F91FF90EF90DF90CF90BF90AF90AB
S11307909F908F907F906F905F904F9008958823E3
S11307A019F080E48BB908955E9808958091D2057C
S11307B0882381F084E291E00E94C11789B1807896
S11307C061E090E00E94370A4F9904C084E391E00D
S11307D00E94C11789B18095881F8827881F0895B2
S11307E032990AC08091D205882381F08DE391E08B
S11307F00E94C11781E008958091D205882341F0B9
S113080086E591E00E94C11780E0089581E0089593
S113081080E00895CF93DF930E94D603CEE9D6E01B
S113082088830E94F00380939D068881813089F437
S11308308091A206813009F44EC08BE691E00E94BB
S1130840C117E2EAF6E080818093A10681E080830B
S113085042C081110BC08091A206813039F48BE72C
S113086091E00E94C1171092A20635C02091A20601
S1130870211105C08091A1068093A2062CC080910D
S1130880D5059091D605883833E1930730F4019665
S11308909093D6058093D50511C088E290E090939B
S11308A0D6058093D505233049F02093A10683E033
S11308B08093A2068CE891E00E94C1178091A00663
S11308C0882349F082E08093A2061092A006109239
S11308D0D6051092D505DF91CF910895CF93DF937C
S11308E041988FE097E20197F1F700C0000080E0A3
S11308F00E940815875E914024E6289FA001299F45
S1130900500D11249A01A3EDBAE70E94611C481B03
S1130910590BEA01D695C7958C0F9D1F22E028B983
S1130920EC01CC0FCD2FCC1FDD0BD195C536D105F5
S113093010F0C4E6D0E08091D205882361F080EB0A
S113094091E00E94C11760E0CE010E94370A8BEB50
S113095091E00E94C117CE01DF91CF91089583E306
S113096090E00E947A175A988FE19EE40197F1F77C
S113097000C0000084E08BB98FE19EE40197F1F799
S113098000C0000088E08BB98EEB91E00E94C11793
S11309908EEC91E00E94C11789ED91E00E94C1178D
S11309A05B9883EE91E00E94C11783E390E00E947C
S11309B07A1708954F925F926F927F928F929F92CF
S11309C0AF92BF92CF92DF92EF92FF920F931F9359
S11309D0CF93DF937C01EB0182E30E94900988EAC4
S11309E00E94C00983E30E9490090E94D209482E04
S11309F00E94D209582E0E94D209682E0E94D20960
S1130A00782E0E94D209882E0E94DD09982E0E9419
S1130A10B7098CE30E94900983E00E94C0098DE32A
S1130A200E9490090E94D209B82E0E94D209A82ED1
S1130A300E94D209182F0E94D209082F0E94D209BD
S1130A40D82E0E94DD09C82E0E94B709642D70E0DB
S1130A507529882777FD8095982F0E94101EF7012D
S1130A606083718382839383662D70E0772988275E
S1130A7077FD8095982F0E94101EF701648375837B
S1130A8086839783682D70E07929882777FD809580
S1130A90982F0E94101EF7016087718782879387C1
S1130AA06A2D70E07B29882777FD8095982F0E9416
S1130AB0101E688379838A839B836C2D70E07D2963
S1130AC0882777FD8095982F0E94101E6C837D8364
S1130AD08E839F83602F70E0712B882777FD80952C
S1130AE0982F0E94101E688779878A879B87DF91D9
S1130AF0CF911F910F91FF90EF90DF90CF90BF9017
S1130B00AF909F908F907F906F905F904F900895DB
S1130B108F929F92AF92BF92CF92DF92EF92FF9209
S1130B20CF93DF93EB010E94DA04C0900C01D090C4
S1130B300D01E0900E01F0900F01A701960168816C
S1130B4079818A819B810E94A71C4B015C01A701CA
S1130B5096016091000170910101809102019091D0
S1130B6003010E94A71C9B01AC01C501B4010E94B2
S1130B70751D9B01AC010E94A81C20E030E040E8F8
S1130B805FE30E94A71C688379838A839B83C09058
S1130B901001D0901101E0901201F0901301A7010F
S1130BA096016C817D818E819F810E94A71C4B01DF
S1130BB05C01A70196016091040170910501809187
S1130BC00601909107010E94A71C9B01AC01C5017D
S1130BD0B4010E94751D9B01AC010E94A81C20E079
S1130BE030E040E85FE30E94A71C6C837D838E8322
S1130BF09F83C0901401D0901501E0901601F090ED
S1130C001701A7019601688579858A859B850E94CD
S1130C10A71C4B015C01A70196016091080170912A
S1130C20090180910A0190910B010E94A71C9B016C
S1130C30AC01C501B4010E94751D9B01AC010E9469
S1130C40A81C20E030E040E85FE30E94A71C68870E
S1130C5079878A879B87DF91CF91FF90EF90DF9010
S1130C60CF90BF90AF909F908F900895CF92DF92D6
S1130C70EF92FF920F931F93CF93DF93CDB7DEB71D
S1130C8068970FB6F894DEBF0FBECDBF7C01CB01D1
S1130C908A01AE014F5F5F4FB7010E94E217CE0198
S1130CA001960E94A718AE01435F5F4FBE016F5FBC
S1130CB07F4FC7010E94E217CE010D960E94A7182C
S1130CC0B801CE010D960E9463186B017C01B80136
S1130CD0CE0101960E946318A70196010E941B1D74
S1130CE020E030E044E353E40E94851F2BED3FE015
S1130CF049E450E40E94751D0E94E81F20E030E0A2
S1130D0044EB52E40E94A71C0E94DD1D9B01772343
S1130D1014F428593E4FC90168960FB6F894DEBF03
S1130D200FBECDBFDF91CF911F910F91FF90EF9038
S1130D30DF90CF9008956F927F928F929F92AF929F
S1130D40BF92CF92DF92EF92FF920F931F93CF93B4
S1130D50DF93CDB7DEB768970FB6F894DEBF0FBE4A
S1130D60CDBF19821A821B821C821D821E821F82A1
S1130D70188619861A861B861C861D861E861F8663
S1130D80188A198A1A8A1B8A1C8A1D8A1E8A1F8A33
S1130D90188EE82EF12C1E141F040CF086C000E0FF
S1130DA010E00F2EF5ED8F2EF7E09F2EF02D0F2E75
S1130DB0F9EDAF2EF7E0BF2EF02D0F2EF1EECF2E72
S1130DC0F7E0DF2EF02D0F2EF5EE6F2EF7E07F2EDD
S1130DD0F02D6DED77E081ED97E00E94880520917C
S1130DE0D1073091D2074091D3075091D40769813C
S1130DF07A818B819C810E94A81C69837A838B836E
S1130E009C83F40120813181428153816D817E81F3
S1130E108F8198850E94A81C6D837E838F83988719
S1130E20F501208131814281538169857A858B85E1
S1130E309C850E94A81C69877A878B879C87209150
S1130E40DD073091DE074091DF075091E0076D85A3
S1130E507E858F8598890E94A81C6D877E878F87E1
S1130E60988BF601208131814281538169897A8985
S1130E708B899C890E94A81C698B7A8B8B8B9C8B99
S1130E80F30120813181428153816D897E898F896B
S1130E90988D0E94A81C6D8B7E8B8F8B988F0F5F13
S1130EA01F4F0E151F050CF494CFB701882777FD4B
S1130EB08095982F0E94101E6B017C019B01AC0150
S1130EC069817A818B819C810E94751D69837A83F3
S1130ED08B839C83A70196016D817E818F81988588
S1130EE00E94751D6D837E838F839887A701960169
S1130EF069857A858B859C850E94751D69877A87AB
S1130F008B879C87A70196016D857E858F8598893F
S1130F100E94751D6D877E878F87988BA701960128
S1130F2069897A898B899C890E94751D698B7A8B62
S1130F308B8B9C8BA70196016D897E898F89988DF7
S1130F400E94751D6D8B7E8B8F8B988F48E151E0CD
S1130F50BE01635F7F4FCE0101960E9436066896FC
S1130F600FB6F894DEBF0FBECDBFDF91CF911F91B6
S1130F700F91FF90EF90DF90CF90BF90AF909F9034
S1130F808F907F906F900895CF92DF92EF92FF92AF
S1130F90CF93DF93C82FD62F6DED77E081ED97E0E7
S1130FA00E94DA04C23009F457C0C33009F4A5C062
S1130FB0C13009F0F2C0C090DD07D090DE07E090A8
S1130FC0DF07F090E0072091B8053091B905409112
S1130FD0BA055091BB05C701B6010E946E1D882356
S1130FE044F4C092B805D092B905E092BA05F092E3
S1130FF0BB052091C4053091C5054091C6055091AB
S1131000C705C701B6010E947A1F181644F4C0929E
S1131010C405D092C505E092C605F092C705D2304A
S113102061F46091B8057091B9058091BA05909109
S1131030BB050E94DD1DCB01BBC0D13009F0B0C09F
S11310406091C4057091C5058091C6059091C7054E
S11310500E94DD1DCB01ACC0C090E107D090E20737
S1131060E090E307F090E4072091BC053091BD05C2
S11310704091BE055091BF05C701B6010E946E1D87
S1131080882344F4C092BC05D092BD05E092BE050D
S1131090F092BF052091C8053091C9054091CA0559
S11310A05091CB05C701B6010E947A1F181644F46B
S11310B0C092C805D092C905E092CA05F092CB054A
S11310C0D23061F46091BC057091BD058091BE057C
S11310D09091BF050E94DD1DCB016AC0D13009F09B
S11310E062C06091C8057091C9058091CA0590914C
S11310F0CB050E94DD1DCB015BC0C090E507D090FD
S1131100E607E090E707F090E8072091C0053091EA
S1131110C1054091C2055091C305C701B6010E94A3
S11311206E1D882344F4C092C005D092C105E0929C
S1131130C205F092C3052091CC053091CD054091B4
S1131140CE055091CF05C701B6010E947A1F18162B
S113115044F4C092CC05D092CD05E092CE05F09235
S1131160CF05D23061F46091C0057091C1058091C2
S1131170C2059091C3050E94DD1DCB0119C0D13079
S1131180A9F46091CC057091CD058091CE05909124
S1131190CF050E94DD1DCB010BC080E090E008C0AC
S11311A080E090E005C080E090E002C080E090E044
S11311B0DF91CF91FF90EF90DF90CF9008958DEE67
S11311C091E00E94C11762E081E00E94C40760E0E0
S11311D00E94370A83EF91E00E94C11761E081E029
S11311E00E94C40760E00E94370A8AEF91E00E94DF
S11311F0C11762E082E00E94C40760E00E94370ADF
S113120081E092E00E94C11761E082E00E94C4077D
S113121060E00E94370A88E092E00E94C11762E011
S113122083E00E94C40760E00E94370A8FE092E0E6
S11312300E94C11761E083E00E94C40760E00E943D
S1131240370A86E192E00E94C1170895CF93DF9395
S1131250D82FC62F82E30E9490098D2F0E94C009C7
S11312608C2F0E94C0090E94B709DF91CF91089585
S1131270CF93DF93D82FC62F8CE30E9490098D2F34
S11312800E94C0098C2F0E94C0090E94B709DF91F7
S1131290CF9108950E948A0968E083E20E9426099A
S11312A067E480E20E9426096CE880E00E94380925
S11312B060E281E00E94380960E082E00E9438091F
S11312C00895CF93DF938CE30E94900981E30E94F9
S11312D0C0098DE30E9490090E94D209C82F0E9480
S11312E0DD09D82F0E94B7092D2F30E0C9019C2BAE
S11312F095958795959587959595879595958795D2
S113130099230CF403969595879595958795DF9188
S1131310CF9108951092B90082E08093B8000895A7
S113132094EA9093BC00ECEBF0E090819923ECF705
S11313309091B900987F983011F09031A1F4809386
S1131340BB0084E88093BC00ECEBF0E08081882350
S1131350ECF79091B900987F983139F081E090349E
S113136029F480E0089581E0089580E0089584E9F7
S11313708093BC00ECEBF0E0808184FDFDCF089508
S11313808093BB0084E88093BC00ECEBF0E08081A8
S11313908823ECF79091B900987F81E0983209F4A2
S11313A080E0089584EC8093BC00ECEBF0E0808155
S11313B08823ECF78091BB00089584E88093BC00F7
S11313C0ECEBF0E080818823ECF78091BB0008957A
S11313D01F93CF93DF93CDB7DEB76A970FB6F89418
S11313E0DEBF0FBECDBF0E9493179C01222731712F
S11313F0232BE1F49C0122273A70232BB9F410E04B
S1131400E1E1F0E0EC0FFD1FE10FF11D80838A3074
S113141009F01F5F0E9493179C0122273171232B2F
S113142029F49C0122273A70232B51F389898D33A7
S113143091F46DE370E0CE0141960E94B121BC01AC
S11314406F5F7F4FCE0101960E94BC21CE010196B1
S11314500E94AB2002C080E090E06A960FB6F89438
S1131460DEBF0FBECDBFDF91CF911F9108951F93B3
S1131470CF93DF93CDB7DEB728970FB6F894DEBFCE
S11314800FBECDBF162F4AE0BE016F5F7F4F0E9493
S1131490F521CE0101960E94C117112321F084EB9E
S11314A095E00E94C11728960FB6F894DEBF0FBED0
S11314B0CDBFDF91CF911F910895FF920F931F939A
S11314C0CF93DF93CDB7DEB764970FB6F894DEBF42
S11314D00FBECDBFF42E8E010F5F1F4F27E04AE0F1
S11314E00E948620C8010E94C117FF2021F084EBCE
S11314F095E00E94C11764960FB6F894DEBF0FBE44
S1131500CDBFDF91CF911F910F91FF9008951F934D
S1131510CF93DF93CDB7DEB728970FB6F894DEBF2D
S11315200FBECDBF182FCB014AE0BE016F5F7F4FC6
S11315300E94F521812F0E94AC178DE30E94AC1705
S1131540CE0101960E94C1178AE00E94AC1728962A
S11315500FB6F894DEBF0FBECDBFDF91CF911F91C0
S11315600895CF93DF93CDB7DEB760970FB6F894A5
S1131570DEBF0FBECDBF6DE370E084EA96E00E944B
S1131580B121BC016F5F7F4FCE0101960E94BC2147
S1131590CE0101960E94AB20BC01882777FD80957F
S11315A0982F60960FB6F894DEBF0FBECDBFDF91C3
S11315B0CF9108952F923F924F925F926F927F92B4
S11315C08F929F92AF92BF92CF92DF92EF92FF924F
S11315D00F931F93CF93DF93CDB7DEB7C656D109D0
S11315E00FB6F894DEBF0FBECDBFFE01319682E385
S11315F0DF011D928A95E9F78091A30690E0039795
S113160018161906D4F480E090E040E0E1E0F0E040
S1131610EC0FFD1FE80FF91FDC01AC55B94F119613
S11316208C9180834F5F842F90E02091A30630E05B
S113163023503109821793074CF38EE493E00E9400
S1131640C1178E010F5F1F4F7E01B3E3EB0EF11C38
S1131650F80181918F010E94AC170E151F05C1F787
S113166086E593E00E94C117E4EAF6E001900020C9
S1131670E9F734978081853631F089E593E00E945B
S1131680C11780E005C169E872E0CE0101960E94AD
S1131690AC210E94A720C62ED72EE82EF92E6AE68A
S11316A073E080E090E00E94AC210E94A720862E87
S11316B0972EA82EB92E69E872E080E090E00E948F
S11316C0AC210E94A720462E572E682E792E69E859
S11316D072E080E090E00E94AC210E94A720262EB8
S11316E0372EA6968FAFA697A7969FAFA797809100
S11316F0D205882309F45AC0FF92EF92DF92CF9269
S11317008CE693E09F938F938E010D5C1F4F1F9384
S11317100F930E945422C8010E94C11784EB95E0E4
S11317200E94C117BF92AF929F928F928DE793E070
S11317309F938F931F930F930E945422C8010E947A
S1131740C11784EB95E00E94C1177F926F925F925C
S11317504F928EE893E09F938F931F930F930E9471
S11317605422C8010E94C11784EB95E00E94C1175E
S1131770A796FFADA797FF93A6968FADA6978F93D5
S11317803F922F928FE993E09F938F931F930F9330
S11317900E9454220FB6F894DEBF0FBECDBFC8011D
S11317A00E94C11784EB95E00E94C11720E030E04D
S11317B0A9016C2D7D2D8E2D9F2D0E946E1D8823D9
S11317C009F461C020E030E0A901682D792D8A2D4B
S11317D09B2D0E946E1D882309F455C020E030E043
S11317E0A901642D752D862D972D0E946E1D8823C9
S11317F009F449C020E030E0A901A696FFADA69700
S1131800A796EFADA797622D732D8F2F9E2F0E9461
S11318106E1D8823C1F18C2D9D2DAE2DBF2D80937F
S1131820870690938806A0938906B0938A06882D2C
S1131830992DAA2DBB2D80938B0690938C06A09393
S11318408D06B0938E06842D952DA62DB72D8093ED
S1131850830690938406A0938506B0938606A69685
S11318603FADA697A7962FADA797822D932DA32FB3
S1131870B22F80937F0690938006A0938106B09345
S1131880820681E005C081EB93E00E94C11780E0ED
S1131890CA59DF4F0FB6F894DEBF0FBECDBFDF913C
S11318A0CF911F910F91FF90EF90DF90CF90BF9059
S11318B0AF909F908F907F906F905F904F903F90EC
S11318C02F900895AF92BF92CF92DF92EF92FF9242
S11318D00F931F93CF93DF938091A40690E0FC01B4
S11318E0FF97E733F10508F08AC2EC5CFF4F0C94D4
S11318F05B1C8091A5068F3361F489EC93E00E9410
S1131900C1176091D0057091D10583E50E94870AC3
S113191090C28D3309F08DC20E94B10A7093D10533
S11319206093D00588ED93E00E94C1176091D005C3
S11319307091D10583E50E94870A7BC28091A50638
S1131940813311F480E48BB98091A506803309F4C6
S11319505E988091A506833539F48AEE93E00E945F
S1131960C11782E00E9473148091A5068C3409F09B
S113197060C28AEE93E00E94C11783E00E94731450
S113198058C288E088B98091D205882309F451C2ED
S11319908CE492E00E94C1174CC243988091D20516
S11319A0882309F446C285E592E00E94C11741C22A
S11319B00E94DA0A882309F4D2C08091D2058823D0
S11319C009F440C080E692E00E94C1178FE792E0DC
S11319D00E94C117609187067091880680918906DC
S11319E090918A0640E00E945D0A89E892E00E9494
S11319F0C11760918B0670918C0680918D06909131
S1131A008E0640E00E945D0A8BE892E00E94C117B6
S1131A106091830670918406809185069091860674
S1131A2040E00E945D0A89E892E00E94C11760913B
S1131A307F0670918006809181069091820641E034
S1131A400E945D0AA0907F06B0908006C090810637
S1131A50D0908206E0908306F0908406009185067B
S1131A601091860620918B0630918C0640918D064C
S1131A7050918E0660918706709188068091890640
S1131A8090918A060E94E0020E94101E60939706BD
S1131A90709398068093990690939A06A0907F0677
S1131AA0B0908006C0908106D0908206E0908306B4
S1131AB0F0908406009185061091860620918B068D
S1131AC030918C0640918D0650918E066091870668
S1131AD0709188068091890690918A060E94DE01A1
S1131AE0BC0180E090E00E940E1E60939306709308
S1131AF0940680939506909396068091D205882348
S1131B0031F18AE992E00E94C117609197067091C1
S1131B1098068091990690919A0640E00E945D0A89
S1131B2086EA92E00E94C1178AEA92E00E94C117F5
S1131B306091930670919406809195069091960613
S1131B4040E00E945D0A85EB92E00E94C11782E5A5
S1131B5095E00E94C11781E08093A0066AC180913C
S1131B60D205882309F465C18AEB92E00E94C1176B
S1131B7060C10E946E04CBE9D6E0888340E06FEF39
S1131B8080E00E9414109B01AC010DE761E08881A4
S1131B900E941C112FE78FE492E121508040904075
S1131BA0E1F700C000000E94E71043C10E94DF0873
S1131BB040C10E94F00380939D063BC161E0809187
S1131BC07E06811160E060937E0670E086E090E01E
S1131BD00E94EC228091D205882309F42AC18CE268
S1131BE092E00E94D01780917E0661E090E00E940E
S1131BF0370A1FC18091D205882339F01092D2058B
S1131C008BE192E00E94D01714C181E08093D20549
S1131C108BE092E00E94D0170CC10E94E80985363F
S1131C20910580F4BC0180E090E00E940E1E609358
S1131C309706709398068093990690939A0681E08C
S1131C408093A0068091D205882309F4F2C086EF20
S1131C5091E00E94D01760918F0670919006809158
S1131C609106909192060E94DD1DDC01CB0161E09A
S1131C700E94370ADEC08091D205882321F08CEDC2
S1131C8092E00E94C11781E08093A006D2C080ED4B
S1131C9091E00E94D017CDC00E94E8090E94231051
S1131CA00E942710682F70E08AE090E00E94EC22E6
S1131CB081E08093A0068091D205882309F4B9C0FD
S1131CC08DEB91E00E94D0170E94271061E090E014
S1131CD00E94370AAEC061E080917D06811160E008
S1131CE060937D0670E084E090E00E94EC22809195
S1131CF0D205882309F49DC08CEA91E00E94D01794
S1131D0080917D0661E090E00E94370A92C0809144
S1131D10D205882309F48DC08CE991E00E94D01784
S1131D2080E00E94CF0385C08091D205882321F0F2
S1131D308DE791E00E94D0170E94AF047AC0809191
S1131D40D205882321F088E591E00E94D0170E94F3
S1131D5013166FC00E94D60380939E066AC085EF57
S1131D6092E00E94C1170E94610960E00E94370A54
S1131D7084E093E00E94C1175CC08091D20588235F
S1131D8021F08EE093E00E94C1170E9404110E948A
S1131D901911682F70E088E090E00E94EC2281E045
S1131DA08093A00646C00E94E8090E94FA10809120
S1131DB0D205882351F088E193E00E94C1170E9464
S1131DC0191161E090E00E94370A0E941911682FEE
S1131DD070E088E090E00E94EC2281E08093A0060D
S1131DE028C08091D205882321F083E293E00E94E9
S1131DF0C1170E942A1081E08093A0061AC089E3CB
S1131E0093E00E94C117C4EAD6E088810E94AC170F
S1131E108BE493E00E94C117888160E090E00E9407
S1131E20370A81ED94E00E94C11782E491E00E9498
S1131E30D01710926C07DF91CF911F910F91FF90F3
S1131E40EF90DF90CF90BF90AF900895CF930E9412
S1131E5093179C0122273171232B09F040C09C0168
S1131E6022273A70232BD9F5E091A306F0E0EC5534
S1131E70F94F8083E091A306F0E0EC55F94F80819F
S1131E808A3041F583EF93E00E94C1178091A30645
S1131E90882369F0C0E0EC2FF0E0EC55F94F808125
S1131EA00E94AC17CF5F8091A306C817A0F386E504
S1131EB093E00E94C11781E080936C070E94620C3A
S1131EC01092A30684E6E4EAF6E0DF011D928A9507
S1131ED0E9F705C08091A3068F5F8093A306CF9195
S1131EE0089584E3E2E4F6E0DF011D928A95E9F7C0
S1131EF00895009769F020E030E0EFECF7E03197C7
S1131F00F1F700C000002F5F3F4F28173907A9F7EA
S1131F1008958D30910528F520917806222309F142
S1131F20FC01319730E0DF01AA0FBB1FEA0FFB1F52
S1131F30E751F84F629FD001639FB00D1124B18324
S1131F40529FB001539F700D11247083429FB001C2
S1131F50439F700D11247283BC0189EE97E00E94A7
S1131F60A2140895EF92FF920F931F93CF93DF93E0
S1131F708B01893621E0920710F088E691E0009702
S1131F8049F4CCE0D0E081E090E0FF24F394EE2427
S1131F90E39416C09C01A9E8B8E80E94611CEC0116
S1131FA0D295C295CF70CD27DF70CD27FC2EF39448
S1131FB08F2D90E0DD272C96C817D90744F72DC044
S1131FC02CE02F1580F4EE2DF0E0EE0FFF1FEE0F46
S1131FD0FF1FEE5BF94F40815181628173810C9741
S1131FE00E94890F10C0EE2DF0E0EE0FFF1FEE0FE0
S1131FF0FF1FEE5BF94F40815181628173818F2D08
S113200090E00E94890FE394C8010E94790FF39431
S11320108F2D90E0C817D9079CF6DF91CF911F91BF
S11320200F91FF90EF9008950F931F93962F50E018
S113203060E070E0592B8A019B01282BC901B8018B
S11320401F910F9108958093780681E008958091FF
S1132050780608958091D40590E08830910508F0C1
S1132060ACC0FC01E559FF4F0C945B1C80E090E090
S1132070AFEFB0E08093790690937A06A0937B0645
S1132080B0937C0640E050E06FEF70E080E090E0B9
S11320900E94E02292C080E09FEFA0E0B0E0809335
S11320A0790690937A06A0937B06B0937C0640E071
S11320B05FEF60E070E080E090E00E94E0227DC08D
S11320C08FEF90E0A0E0B0E08093790690937A06D9
S11320D0A0937B06B0937C064FEF50E060E070E085
S11320E080E090E00E94E02268C08FEF9FEFAFEFA6
S11320F0B0E08093790690937A06A0937B06B09320
S11321007C064FEF5FEF6FEF70E080E090E00E949D
S1132110E02253C080E094E6AFEFB0E0809379060C
S113212090937A06A0937B06B0937C0640E054E635
S11321306FEF70E080E090E00E94E0223EC080E01B
S11321409FEFA8ECB0E08093790690937A06A09371
S11321507B06B0937C0640E05FEF68EC70E080E0C3
S113216090E00E94E02229C08FEF94E6A0E0B0E066
S11321708093790690937A06A0937B06B0937C06AD
S11321804FEF54E660E070E080E090E00E94E022CF
S113219014C08FEF90E0A4E6B0E0809379069093AA
S11321A07A06A0937B06B0937C064FEF50E064E67A
S11321B070E080E090E00E94E0228091D4058730B6
S11321C010F48F5F01C080E08093D4050895CF930D
S11321D0DF930E94710FC0E0D0E040E050E0BA010C
S11321E0CE010E94890F2196CD30D105B1F7DF9140
S11321F0CF910895883030F4809377061092D705F4
S113220081E0089580E008958091D3050E94FA103A
S11322106091770670E088E090E00E94EC22809163
S1132220D305873010F48F5F01C080E08093D3051D
S113223008958091770608950F93853608F084E613
S1132240E82FE695E695E69561111EC0843649F4BB
S11322502093460630934706409348065093490618
S11322600CC0EF5FF0E0EE0FFF1FEE0FFF1FEE5B01
S1132270F94F2083318342835383602F70E080E0E1
S113228090E00E94B20F25C0613019F5843609F43C
S1132290E150AE2FB0E01296A230B105A4F081E077
S11322A090E071E0FC01EE0FFF1FEE0FFF1FEE5BED
S11322B0F94F20833183428353837F5F872F90E0DC
S11322C08A179B077CF3602F70E080E090E00E9407
S11322D0B20F0F9108958F929F92AF92BF92CF92B7
S11322E0DF92EF92FF920F931F93CF93DF938B01B3
S11322F0F42E6817790720F0EB01C81BD90B05C031
S1132300EB01C81BD90BC859DE4F0E94710F81E045
S1132310F81609F1F81608F45AC082E0F81609F420
S113232061C083E0F812BEC281E09091D905911199
S113233080E08093D905882309F4B8C280E090E056
S1132340AFEFB0E08093460690934706A09348060B
S1132350B0934906ABC280919E068130A9F51091D5
S1132360D80531E020E040E054E66FEF70E08FEFF5
S113237090E0A0E0B0E0273068F4E32FF0E0EE0F47
S1132380FF1FEE0FFF1FEE5BF94F80839183A28343
S1132390B3830CC0E32FF0E0EE0FFF1FEE0FFF1F1F
S11323A0EE5BF94F40835183628373832F5F3F5FFA
S11323B0121708F71F5F1093D8051D3028F083E02B
S11323C080939F061092D8051092D7056FC2809112
S11323D0D805873008F072C281E080939F0610927E
S11323E0D80564C24091770650E04830510508F0A2
S11323F04CC2FA01ED58FF4F0C945B1C8091790696
S113240090917A06A0917B06B0917C068093460653
S113241090934706A0934806B09349063AC2809128
S1132420790690917A06A0917B06B0917C06809300
S1132430460690934706A0934806B093490680E069
S113244094E6AFEFB0E080934A0690934B06A093D6
S11324504C06B0934D068093720690937306A09336
S11324607406B093750615C28091790690917A0628
S1132470A0917B06B0917C06809346069093470614
S1132480A0934806B09349069801215F3F4FA9E8FD
S1132490B8E80E94611C929582958F7089279F707D
S11324A0892780FF0DC080E094E6AFEFB0E0809311
S11324B0720690937306A0937406B0937506E9C1EF
S11324C080E094E6AFEFB0E080934A0690934B0629
S11324D0A0934C06B0934D06DCC18091790690918F
S11324E07A06A0917B06B0917C0680934606909371
S11324F04706A0934806B0934906809356069093E6
S11325005706A0935806B093590680935A069093A1
S11325105B06A0935C06B0935D0680935E06909381
S11325205F06A0936006B093610680936206909361
S11325306306A0936406B093650680936606909341
S11325406706A0936806B0936906A3C1C090790694
S1132550D0907A06E0907B06F0907C06C092460606
S1132560D0924706E0924806F09249069801215F0E
S11325703F4FA9E8B8E80E94611C929582958F703C
S113258089279F70892780FF0DC080E094E6AFEF14
S1132590B0E08093720690937306A0937406B09390
S11325A075060CC080E094E6AFEFB0E080934A0675
S11325B090934B06A0934C06B0934D06C0925606DA
S11325C0D0925706E0925806F0925906C0925A06E5
S11325D0D0925B06E0925C06F0925D06C0925E06C5
S11325E0D0925F06E0926006F0926106C0926206A5
S11325F0D0926306E0926406F0926506C092660685
S1132600D0926706E0926806F092690642C1C090D3
S11326107906D0907A06E0907B06F0907C06C09212
S11326204606D0924706E0924806F092490680900A
S1132630970690909806A0909906B0909A0620E08C
S113264030E040E85FE3C501B4010E947A1F8823AB
S113265084F0C0924A06D0924B06E0924C06F09267
S11326604D06C0927206D0927306E0927406F09200
S1132670750620E030E040E250E4C501B4010E9458
S11326807A1F882384F0C0924E06D0924F06E092BF
S11326905006F0925106C0926E06D0926F06E092F8
S11326A07006F092710620E030E040EA50E4C50183
S11326B0B4010E947A1F88230CF4EBC0C092520626
S11326C0D0925306E0925406F0925506C0926A06E0
S11326D0D0926B06E0926C06F0926D06DAC080919F
S11326E0790690917A06A0917B06B0917C0680933E
S11326F0460690934706A0934806B0934906209156
S1132700D7052130A9F018F0223019F134C0809394
S1132710520690935306A0935406B09355068093A3
S11327206A0690936B06A0936C06B0936D06CAC0BC
S113273080934E0690934F06A0935006B093510693
S113274080936E0690936F06A0937006B093710603
S1132750B9C080934A0690934B06A0934C06B0935D
S11327604D068093720690937306A0937406B093FB
S1132770750620E004C02F5F233008F020E020938A
S1132780D70587C08091790690917A06A0917B063F
S1132790B0917C068093460690934706A093480622
S11327A0B09349062091D7052130B1F120F02230B1
S11327B009F453C063C080934A0690934B06A093D8
S11327C04C06B0934D0680934E0690934F06A0930B
S11327D05006B09351068093520690935306A093EB
S11327E05406B093550680936A0690936B06A093A3
S11327F06C06B0936D0680936E0690936F06A0935B
S11328007006B09371068093720690937306A0933A
S11328107406B093750658C080934A0690934B068D
S1132820A0934C06B0934D0680934E0690934F06AA
S1132830A0935006B093510680936E0690936F0652
S1132840A0937006B09371068093720690937306FA
S1132850A0937406B093750637C080934A0690938C
S11328604B06A0934C06B0934D068093720690934A
S11328707306A0937406B093750626C02F5F2430A8
S113288008F020E02093D70504C08BE194E00E9477
S1132890C11780917E06882349F086E394E00E9464
S11328A0C11704C08DE494E00E94C11760E070E099
S11328B0CE010E94B20F1092760608C082E0809387
S11328C09F068DCD2F5F5BCF2F5FDCCFDF91CF9144
S11328D01F910F91FF90EF90DF90CF90BF90AF903A
S11328E09F908F900895CF93DF93813031F038F02B
S11328F0823041F08330A9F022C05E9820C080E489
S11329008BB91DC0C3E0D0E4DBB98AEF90E00E942C
S1132910790F5E988AEF90E00E94790FC150A1F779
S11329200EC0C3E0D0E4DBB98EEE92E00E94790FD2
S11329305E9884EF91E00E94790FC150A1F7DF9176
S1132940CF9108959B01220F331F620F731F209AAA
S113295035B13E7F45B14160AFB7F894611571055B
S113296089F0FC01860F971F219158E045B927FF94
S113297035B9220F000000C035B95A95B9F7E817E8
S1132980F90791F7AFBF85E88A95F1F7000008953C
S11329901F920F920FB60F9211248F938091DC0532
S11329A08F5F8093DC058091DC05833028F081E023
S11329B0809376061092DC058F910F900FBE0F90D6
S11329C01F90189557985F9A3A983B9A209A399A8B
S11329D082E088B9089584B5826084BD88EF87BD9C
S11329E0EEE6F0E080818260808385B5856085BDF8
S11329F078940895ECE7F0E0808180648083EAE7CE
S1132A00F0E080818760808380818068808308957E
S1132A10ECE7F0E090818F70907F982B9083EAE749
S1132A20F0E0808180648083808186FDFDCF809189
S1132A307800909179000895CF92DF92EF92FF92FF
S1132A400F9380919F068230B1F0833021F1813061
S1132A5009F056C080917706882319F0815080933D
S1132A6077068091D205882309F44EC08EE594E060
S1132A700E94C11749C080917706873018F48F5F90
S1132A80809377068091D2058823F1F18BE794E057
S1132A900E94C11739C02FE78FE492E12150804092
S1132AA09040E1F700C000000E94E7102FE78AE1A0
S1132AB096E0215080409040E1F700C0000040E0E3
S1132AC06FEF80E00E9414106B017C010E946E0481
S1132AD004E6A701960161E00E941C112FE78FE430
S1132AE092E1215080409040E1F700C000008091C5
S1132AF0D205882349F089E994E00E94C11704C0F3
S1132B0085EB94E00E94C11710929F060F91FF90ED
S1132B10EF90DF90CF900895EF92FF920F931F9361
S1132B20CF93DF937C018AE00E949B068C01E7012E
S1132B30C81BD90BC53BD10514F0C856D1408091B0
S1132B40D2058823C9F08CE295E00E94C11760E0A9
S1132B50C7010E94370A86E395E00E94C11760E02E
S1132B60C8010E94370A8DE395E00E94C11760E016
S1132B7080E090E00E94370ACB35D105D4F08091F3
S1132B80DA059091DB054997A0F48091D20588235A
S1132B9021F086E495E00E94C1178091DA059091B6
S1132BA0DB0501969093DB058093DA058E2D9F2D2E
S1132BB00EC08091D205882321F081E595E00E9422
S1132BC0C1171092DB051092DA05802F912FDF9147
S1132BD0CF911F910F91FF90EF9008958AE090E0BC
S1132BE00E94DA228093780688E090E00E94DA223C
S1132BF08093770680E090E00E94D4226093790667
S1132C0070937A0680937B0690937C0686E090E02E
S1132C100E94DA2280937E0684E090E00E94DA2209
S1132C2080937D0608958DE20E94231080E00E9427
S1132C30FA1040E06FEF88EC0E941410609379065C
S1132C4070937A0680937B0690937C0610927E069E
S1132C5010927D060E942710682F70E08AE090E0B1
S1132C600E94EC220E941911682F70E088E090E025
S1132C700E94EC2240E06FEF88EC0E941410AB013C
S1132C80BC0180E090E00E94E02260E070E086E019
S1132C9090E00E94EC2260E070E084E090E00E940A
S1132CA0EC2208950E94E2140E94EB140E94FA148C
S1132CB083E390E00E947A1778940E944A0983E0A3
S1132CC08093A2068093A1068AE00E949B06BC0121
S1132CD0882777FD8095982F0E94101E60938F0699
S1132CE07093900680939106909392068CE090E006
S1132CF00E94DA22892B61F060E070E08CE090E0C1
S1132D000E94EC220E94131686E595E00E94C117EA
S1132D100E94EE1581E895E00E94C11741E060E051
S1132D2070E080E89FE30E945D0A40E06FEF88EC6A
S1132D300E9414106093790670937A0680937B0640
S1132D4090937C060E94E7100E946E04CBE9D6E0C3
S1132D50888380EB91E00E94C117888160E090E055
S1132D600E94370A8BEB91E00E94C1170E94E71082
S1132D700E946109CCE9D6E0888385EF92E00E9445
S1132D80C117888160E090E00E94370A84E093E0F4
S1132D900E94C11780E995E00E94C117CFE8D6E0F0
S1132DA00F2EF6E7EF2EF6E0FF2EF02D0F2EF2EAAF
S1132DB0AF2EF6E0BF2EF02D0F2EF3E9CF2EF6E066
S1132DC0DF2EF02D0FE916E00E94260F80916C078C
S1132DD0688179818A819B810E94E21DCB010E94D6
S1132DE08C15BC0180E090E00E940E1E68837983FC
S1132DF08A839B83F70180818823C1F00E940A049F
S1132E00F60160817181828193810E94E21D2B0110
S1132E103C01688179818A819B810E94E21DDC01E9
S1132E20CB01F5014081B2010E946B11F801808150
S1132E3081110E941C158FEC97E00197F1F700C0F7
S1132E400000C2CF1F920F920FB60F9211242F933E
S1132E508F939F93EF93FF938091C0002091C600BE
S1132E608871E091DF05EF5FEF739091DE05E9175C
S1132E7039F0E093DF05F0E0EE51FA4F208301C012
S1132E8082E09091DD05892B8093DD05FF91EF9120
S1132E909F918F912F910F900FBE0F901F901895B7
S1132EA01F920F920FB60F9211248F939F93EF935B
S1132EB0FF939091E1058091E005981769F0E09106
S1132EC0E005EF5FEF71E093E005F0E0EE5DF94FB0
S1132ED080818093C60005C0E1ECF0E080818F7DA5
S1132EE08083FF91EF919F918F910F900FBE0F9070
S1132EF01F9018951092E1051092E0051092DF05DD
S1132F001092DE05992324F422E02093C0009F77D9
S1132F109093C5008093C40088E98093C10086E043
S1132F208093C20008959091DF058091DE05981783
S1132F3081F0E091DE05EF5FEF73E093DE05F0E0F2
S1132F40EE51FA4F80819091DD051092DD0590E0FD
S1132F50089580E091E008952091E1052F5F2F719D
S1132F609091E0052917E1F3E22FF0E0EE5DF94FCF
S1132F7080832093E105E1ECF0E08081806280832E
S1132F800895CF93DF93EC018881882331F0219653
S1132F900E94AC1789918111FBCFDF91CF910895E5
S1132FA0CF93DF93EC012196FC018491882339F0BF
S1132FB00E94AC17FE01849121968111F9CFDF9113
S1132FC0CF910895AF92BF92CF92DF92EF92FF928A
S1132FD00F931F93CF93DF93EC018B015A01FB01F5
S1132FE020853185428553856C817D818E819F81C9
S1132FF00E94851F6B017C01F80124813581468183
S11330005781688579858A859B850E94851F9B01E8
S1133010AC01C701B6010E94A71CF501608371834E
S113302082839383F80120813181428153816885B1
S113303079858A859B850E94851F6B017C01F80137
S11330402085318542855385688179818A819B8178
S11330500E94851F9B01AC01C701B6010E94A71CF9
S1133060F5016483758386839783F8012481358110
S113307046815781688179818A819B810E94851F5D
S11330806B017C01F80120813181428153816C8183
S11330907D818E819F810E94851F9B01AC01C701A8
S11330A0B6010E94A71CF501608771878287938708
S11330B0DF91CF911F910F91FF90EF90DF90CF9010
S11330C0BF90AF900895CF92DF92EF92FF920F934B
S11330D01F93CF93DF93EC018B01FB01208131819E
S11330E042815381688179818A819B810E94851FF5
S11330F06B017C01F80124813581468157816C8103
S11331007D818E819F810E94851F9B01AC01C70137
S1133110B6010E94A81C6B017C01F8012085318551
S113312042855385688579858A859B850E94851F9C
S11331309B01AC01C701B6010E94A81CDF91CF918D
S11331401F910F91FF90EF90DF90CF900895CF9251
S1133150DF92EF92FF92CF93DF93EC01BC010E94C8
S113316063180E9412206B017C019B01AC016881F1
S113317079818A819B810E94751D688379838A8302
S11331809B83A70196016C817D818E819F810E9422
S1133190751D6C837D838E839F83A701960168854B
S11331A079858A859B850E94751D688779878A87BA
S11331B09B87DF91CF91FF90EF90DF90CF900895A0
S11331C0A3E1B0E0E6EEF8E10C94701C7C011B0175
S11331D06A01FC0117821682838181FF66C3BE01E6
S11331E06F5F7F4F4B01F7019381F10193FD85914F
S11331F093FF81911F01882309F453C3853239F465
S113320093FD859193FF81911F01853239F4B701B4
S113321090E00E94222256016501E5CF10E0512C76
S113322020E02032A0F48B3269F030F4803259F07F
S1133230833269F420612CC08D3239F0803339F443
S1133240216026C02260246023C0286021C027FD9D
S113325027C030ED380F3A3078F426FF06C0FAE084
S11332601F9F300D1124132F13C06AE0569E300D9A
S11332701124532E20620CC08E3221F426FD11C37A
S1133280206406C08C3611F4206802C0883641F4EC
S1133290F10193FD859193FF81911F018111C1CFAC
S11332A09BEB980F933018F42061805E06C09BE975
S11332B0980F933008F0AAC12F7E26FF16E02F73D3
S11332C0722E853621F4F22FF0647F2E08C08636E4
S11332D021F4622F6068762E02C01111115077FE1E
S11332E007C01C3348F444244394410E27E00BC028
S11332F0183030F4212F06C027E04CE3442E03C0DD
S113330027E017E0412C560174E0A70EB11CF6012A
S11333106081718182819381042DA4010E94C9205E
S11333206C01098100FF02C003FF06C071FC07C0E5
S113333072FC08C0612C08C03DE2632E05C02BE27C
S1133340622E02C090E2692E802F8C7099F1662063
S113335011F084E001C083E0851510F0512C0BC0FE
S1133360581A73FC08C0B70180E290E00E94222240
S11333705A94C9F7F3CF662029F0B701862D90E05F
S11333800E94222203FD03C004E412E002C000E410
S113339012E0F72DF0717F2EF8018491882309F44F
S11333A076C271108052B70190E00E9422220F5F12
S11333B01F4FF2CF77FE0FC04C0C04FF04C08A816C
S11333C0813309F44A94141474F5F8E0F41578F58B
S11333D088E0482E2CC076FC2AC0812F90E08C1502
S11333E09D059CF06CEFC6166FEFD60674F0772D32
S11333F07068772E0AC0E2E0F0E0EC0FFD1FE10FE9
S1133400F11D8081803319F411501111F4CF77FE2E
S11334100EC044244394410E812F90E0C816D9066F
S11334202CF41C1904C04424439401C010E077FE1A
S113343007C01C141D043CF496012F5F3F4F05C0C8
S113344025E030E002C021E030E0662011F02F5F7B
S11334503F4F112331F0412F50E04F5F5F4F240F56
S1133460351F452D50E02417350714F4521A01C0B6
S1133470512C872D897049F4552039F0B70180E229
S113348090E00E9422225A94F7CF662029F0B701D7
S1133490862D90E00E94222273FC09C0552039F049
S11334A0B70180E390E00E9422225A94F7CF77FE7E
S11334B05FC09C2D8D2DD7FE02C090E080E0692E68
S11334C0782E40E050E0C601841991099D878C87CD
S11334D0960126193709280D391D812F90E0EE2712
S11334E0FF27E81BF90BFF87EE87FFEF6F167F06B8
S11334F069F4B7018EE290E02B8B3A8B488B598BA1
S11335000E942222598948893A892B89C614D704F2
S113351054F06C857D85661577052CF4F901E40F6C
S1133520F51F818101C080E371E0671A71084F5F64
S11335305F4FEE85FF856E167F066CF0B70190E055
S11335402B8B3A8B488B598B0E9422222B893A89E8
S113355048895989CACF6C147D0439F49A81963309
S113356018F4953311F404FF81E3B70190E04BC0E4
S11335708A81813309F00F7EB70190E00E942222F4
S1133580111105C074FE18C085E490E017C0B7019E
S11335908EE290E00E94222282E066246394680E08
S11335A0F401E80FF11D8081B70190E00E9422220E
S11335B0115041F3862DF1CF85E690E0B7010E94CA
S11335C02222D7FC05C0C114D10439F404FF05C07C
S11335D0D194C194D1088DE201C08BE2B70190E08F
S11335E00E94222280E36AE0C616D1042CF08F5F89
S11335F0FAE0CF1AD108F7CFB70190E00E94222257
S1133600B701C601C0960E94222241C1833631F01F
S1133610833779F0833509F058C021C0560172E030
S1133620A70EB11CF6018081898301E010E06401DA
S113363014C05601F2E0AF0EB11CF601C080D18077
S113364026FF03C0612F70E002C06FEF7FEFC60159
S11336502B8B0E94C3218C012B892F7715C0560117
S1133660F2E0AF0EB11CF601C080D18026FF03C08A
S1133670612F70E002C06FEF7FEFC6012B8B0E94B9
S1133680A1218C012B892068722E23FD1AC0852D5F
S113369090E008171907A8F4B70180E290E00E94AF
S11336A022225A94F4CFF60177FC859177FE81911A
S11336B06F01B70190E00E94222251105A940150E8
S11336C011090115110579F7E2C0843611F0893624
S11336D051F5560127FF09C0F4E0AF0EB11CF60105
S11336E060817181828193810AC0F2E0AF0EB11CC6
S11336F0F60160817181882777FD8095982F022FCC
S11337000F7697FF08C090958095709561957F4FCF
S11337108F4F9F4F00682AE030E0A4010E94762278
S1133720C82EC8183EC0022F853721F40F7E2AE028
S113373030E01DC0097F8F3691F018F4883559F0B8
S1133740B0C0803719F0883711F0ABC0006104FFB6
S113375009C0046007C024FF08C0066006C028E052
S113376030E005C020E130E002C020E132E0560143
S113377007FF09C0F4E0AF0EB11CF601608171814E
S11337808281938108C0F2E0AF0EB11CF601608122
S1133790718180E090E0A4010E947622C82EC818AE
S11337A00F7706FF0BC0202F2E7FC11650F404FFA5
S11337B00AC002FD08C0202F2E7E05C0DC2C202F5D
S11337C003C0DC2C01C0D12E24FF0DC0FE01EC0D82
S11337D0F11D8081803311F4297E09C022FF06C0C7
S11337E0D394D39404C0822F867809F0D39423FD14
S11337F013C020FF06C01C2DD51418F4150D1D1977
S1133800D52CD51468F4B70180E290E02B8B0E948C
S11338102222D3942B89F5CFD51410F45D1801C05E
S1133820512C24FF12C0B70180E390E02B8B0E943F
S113383022222B8922FF17C021FF03C088E590E0D4
S113384002C088E790E0B7010CC0822F867859F057
S113385021FD02C080E201C08BE227FD8DE2B701A9
S113386090E00E942222C11638F4B70180E390E070
S11338700E9422221150F7CFCA94F401EC0DF11DDD
S11338808081B70190E00E942222C110F5CF55201B
S113389009F4C2CCB70180E290E00E9422225A943B
S11338A0F6CFF7018681978102C08FEF9FEF639671
S11338B0E2E10C948C1CEE0FFF1F0590F491E02DB7
S11338C00994A29FB001B39FC001A39F700D811DF5
S11338D01124911DB29F700D811D1124911D089515
S11338E02F923F924F925F926F927F928F929F920C
S11338F0AF92BF92CF92DF92EF92FF920F931F93FA
S1133900CF93DF93CDB7DEB7CA1BDB0B0FB6F894AA
S1133910DEBF0FBECDBF09942A88398848885F84EA
S11339206E847D848C849B84AA84B984C884DF805B
S1133930EE80FD800C811B81AA81B981CE0FD11D3F
S11339400FB6F894DEBF0FBECDBFED0108955058F9
S1133950BB27AA270ED083C24CD230F051D220F01C
S113396031F49F3F11F41EF41CC20EF4E095E7FB02
S113397004C2E92F96D280F3BA176207730784074B
S1133980950718F071F49EF5AEC20EF4E0950B2E77
S1133990BA2FA02D0B01B90190010C01CA01A0019D
S11339A01124FF27591B99F0593F50F4503E68F1F8
S11339B01A16F040A22F232F342F4427585FF3CF39
S11339C0469537952795A795F0405395C9F77EF40A
S11339D01F16BA0B620B730B840BBAF09150A1F053
S11339E0FF0FBB1F661F771F881FC2F70EC0BA0FD9
S11339F0621F731F841F48F4879577956795B79561
S1133A00F7959E3F08F0B3CF9395880F08F0992758
S1133A10EE0F979587950895ECD158F080E891E0E2
S1133A2009F49EEFEDD128F040E851E059F45EEF3F
S1133A3009C0B7C158C2E92FE07833D268F3092E20
S1133A40052AC1F3261737074807590738F00E2E01
S1133A5007F8E02569F0E025E0640AC0EF6307F8A1
S1133A60009407FADB01B9019D01DC01CA01AD0133
S1133A70EF934AD0F4D10AD05F91552331F02BED66
S1133A803FE049E450FD49EC63CF0895DF93DD271F
S1133A90B92FBF7740E85FE31616170648075B07A0
S1133AA010F4D92F2BD29F938F937F936F93F8D2D7
S1133AB0E6EFF0E079D1D3D12F913F914F915F910F
S1133AC030D2DD2349F09058A2EA2AED3FE049ECD8
S1133AD05FE3D0785D274DDFDF91C1C12AD108F4BF
S1133AE081E0089595D1E395CBC10CD0B8C188D1BC
S1133AF040F07FD130F021F45F3F19F03EC1511105
S1133B00F3C14FC1CED198F39923C9F35523B1F32F
S1133B10951B550BBB27AA2762177307840738F038
S1133B209F5F5F4F220F331F441FAA1FA9F333D097
S1133B300E2E3AF0E0E830D091505040E695001C4B
S1133B40CAF729D0FE2F27D0660F771F881FBB1F07
S1133B50261737074807AB07B0E809F0BB0B802DE1
S1133B60BF01FF2793585F4F2AF09E3F510568F02D
S1133B7004C1BAC15F3FECF3983EDCF386957795B8
S1133B806795B795F7959F5FC9F7880F911D96952F
S1133B90879597F90895E1E0660F771F881FBB1F8B
S1133BA0621773078407BA0720F0621B730B840B38
S1133BB0BA0BEE1F88F7E095089504D06894B1110C
S1133BC093C1089576D188F09F5790F0B92F992723
S1133BD0B751A0F0D1F0660F771F881F991F1AF014
S1133BE0BA95C9F712C0B13081F07DD1B1E0089522
S1133BF07AC1672F782F8827B85F39F0B93FCCF3A3
S1133C00869577956795B395D9F73EF49095809509
S1133C10709561957F4F8F4F9F4F0895E89409C029
S1133C2097FB3EF490958095709561957F4F8F4FEB
S1133C309F4F9923A9F0F92F96E9BB279395F69501
S1133C40879577956795B795F111F8CFFAF4BB0F7F
S1133C5011F460FF1BC06F5F7F4F8F4F9F4F16C0E3
S1133C60882311F096E911C0772321F09EE8872F6D
S1133C70762F05C0662371F096E8862F70E060E029
S1133C802AF09A95660F771F881FDAF7880F9695A2
S1133C90879597F90895ADD018F011F0B1D038F4A4
S1133CA080C022C1E92FFDD0B0F35523C9F3E7FB4F
S1133CB06217730784079507A8F199F3E92FFF2783
S1133CC088232AF03197660F771F881FDAF7952F1C
S1133CD05527442332F091505040220F331F441F84
S1133CE0D2F7BB27E91BF50B621B730B840BB109DD
S1133CF0C1F222F4620F731F841FB11D31972AF0A1
S1133D00660F771F881FBB1FEFCF915050405AF0AA
S1133D1041F0882332F0660F771F881F915050407E
S1133D20C1F7939530C08695779567959F5FD9F7CE
S1133D30F8CF990F0008550FAA0BE0E8FEEF16160E
S1133D401706E807F907C0F012161306E407F5078B
S1133D5098F0621B730B840B950B39F40A2661F0FF
S1133D60232B242B252B21F408950A2609F4A140A2
S1133D70A6958FEF811D811D089597F99F6780E8AF
S1133D8070E060E008959F3F31F0915020F48795F2
S1133D9077956795B795880F911D9695879597F9AF
S1133DA008959FEF80EC0895DF93CF931F930F93B3
S1133DB0FF92EF92DF927B018C01689405C0DA2EAA
S1133DC0EF01AFD0FE01E894A5912591359145917D
S1133DD05591AEF3EF01CDDDFE019701A801DA9410
S1133DE079F7DF90EF90FF900F911F91CF91DF91C2
S1133DF0089500240A94161617061806090608954D
S1133E0000240A9412161306140605060895C9CF51
S1133E1050D0E8F3E894E0E0BB279F57F0F02AED98
S1133E203FE049EC06C0EE0FBB0F661F771F881FEB
S1133E3028F0B23A62077307840728F0B25A620B7B
S1133E40730B840BE3959A9572F7803830F49A9546
S1133E50BB0F661F771F881FD2F7904896CF092E95
S1133E600394000C11F4882352F0BB0F40F4BF2BD1
S1133E7011F460FF04C06F5F7F4F8F4F9F4F089511
S1133E80EF93E0FF06C0A2EA2AED3FE049EC5FEBC6
S1133E9070DDE5DF0F90039401FC9058E3E2F1E05C
S1133EA024C157FD9058440F551F59F05F3F71F0DE
S1133EB04795880F97FB991F61F09F3F79F087958D
S1133EC00895121613061406551FF2CF4695F1DF16
S1133ED008C0161617061806991FF1CF86957105A6
S1133EE0610508940895E894BB2766277727CB01DA
S1133EF097F908951EDF08F48FEF08959B01AC0134
S1133F0060E070E080E89FE3F0CD0BD0A8CF71DFD4
S1133F1028F076DF18F0952309F02FCF42CF112433
S1133F20E3CFBFDFA0F3959FD1F3950F50E0551F6A
S1133F30629FF001729FBB27F00DB11D639FAA27FA
S1133F40F00DB11DAA1F649F6627B00DA11D661F49
S1133F50829F2227B00DA11D621F739FB00DA11D6A
S1133F60621F839FA00D611D221F749F3327A00D24
S1133F70611D231F849F600D211D822F762F6A2FC0
S1133F8011249F5750408AF0E1F088234AF0EE0F45
S1133F90FF1FBB1F661F771F881F91505040A9F752
S1133FA09E3F510570F0E9CE9FCF5F3FECF3983E02
S1133FB0DCF3869577956795B795F795E7959F5FB9
S1133FC0C1F7FE2B880F911D9695879597F9089553
S1133FD070DFE0F09E37D8F09639B8F49E3848F494
S1133FE0672F782F8827985FF9CF869577956795FF
S1133FF093959539D0F3B62FB1706B0F711D811D58
S113400020F487957795679593954DC0BCCE6CCF7A
S11340109F93FEDE0F9007FCEE5F32CF11F40EF497
S1134020C0CEB1CE46DFD0F39923D9F3CEF39F5758
S1134030550B87FF53D00024A0E640EA9001805836
S11340405695979528F4805C660F771F881F20F09B
S113405026173707480730F4621B730B840B20299B
S113406031294A2BA69517940794202531254A27F0
S113407058F7660F771F881F20F026173707480761
S113408030F4620B730B840B200D311D411DA09580
S113409081F7B901842F9158880F969587950895D3
S11340A09B01AC0132CF882371F4772321F098501F
S11340B0872B762F07C0662311F499270DC09051E2
S11340C0862B70E060E02AF09A95660F771F881FB0
S11340D0DAF7880F9695879597F90895915050408F
S11340E0660F771F881FD2F708959F938F937F934E
S11340F06F93FF93EF939B01AC0107DFEF91FF9167
S113410053DE2F913F914F915F91FFCEEF920F932A
S11341101F93CF93DF93E80147FF02C034E101C04E
S113412034E0E42FFF27E7FDF095F7FF03C0F19596
S1134130E195F109E32E022F2E2FAE010E94F22207
S1134140CE01DF91CF911F910F91EF9008956627D3
S113415077270C947024FC0188279927E8942191EF
S11341602032E9F3293010F02E30C8F32B3241F01D
S11341702D3239F4689404C00E940022820F911DEC
S1134180219120532A30C0F31EF4909581959F4FBE
S11341900895283008F027E03327DA01990F311DFC
S11341A087FD916000966105710539F432602E5FD8
S11341B03D9330E32A95E1F708959F3F30F080382E
S11341C07105610509F03C5F3C5F3D93913008F057
S11341D08068911DDF93CF931F930F93FF92EF920B
S11341E0192F987F9695E92F96959695E90FFF27B5
S11341F0EE55FD4F99273327EE24FF24A701E7014D
S113420005900894079428F4360FE71EF81E491FFA
S1134210511D660F771F881F991F0694A1F70590FB
S1134220079428F4E70EF81E491F561FC11D770F87
S1134230881F991F661F0694A1F70590079428F418
S1134240F80E491F561FC71FD11D880F991F661FDF
S1134250771F0694A1F70590079420F4490F561F81
S1134260C71FD81F990F661F771F881F0694A9F7C9
S113427084911095177041F0D695C7955795479539
S1134280F794E7941A95C1F7E8E4F2E0689415907E
S1134290159135916591959105907FE27395E1189B
S11342A0F10A430B560BC90BD009C0F7E10CF11E00
S11342B0431F561FC91FD01D7EF4703311F48A9515
S11342C0E6CFE894015030F0080F0AF400270217F3
S11342D008F4202F2395022F7A3328F079E37D9375
S11342E02A95E9F710C07D932A9589F60694979547
S11342F06795379517951794E118F10A430B560BF8
S1134300C90BD00998F023957E9173957A3308F000
S113431070E37C932013B8F77E9170617D9330F045
S1134320839571E37D9370E32A95E1F71124EF906F
S1134330FF900F911F91CF91DF91992787FD909561
S11343400895FC010590615070400110D8F78095E4
S113435090958E0F9F1F089546EB55E00E94CE2145
S11343600895FC018191861721F08823D9F79927B4
S113437008953197CF010895FB01DC0101900D925E
S11343800020E1F70895FC01615070400190011094
S1134390D8F7809590958E0F9F1F0895FA01A191EB
S11343A0B081009719F41097E1F0CD01DC01CD0143
S11343B00D90002011F4C00113C0FB0121912223B0
S11343C019F02015D9F7F3CFFB012191201519F429
S11343D01E92119606C02223C1F70D900020A1F76A
S11343E0D001FA01A193B0830895BB274A3031F478
S11343F0992322F4BDE2909581959F4F0C94092254
S11344007AE0979F902D879F802D910D1124089518
S1134410BB27FB015527AA27880F991FAA1FA4179A
S113442010F0A41B83955051B9F7A05DAA3308F08E
S1134430A95DA193009779F7B111B1931192CB01C2
S11344400C94F3250F931F93CF93DF93182F092F09
S1134450EB018B8181FD03C08FEF9FEF20C082FFB2
S113446010C04E815F812C813D81421753077CF43B
S1134470E881F9819F012F5F3F4F3983288310839F
S113448006C0E885F985812F0995892B29F72E81A6
S11344903F812F5F3F4F3F832E83812F902FDF91EA
S11344A0CF911F910F910895AEE0B0E0EAE5F2E2FA
S11344B00C947E1C0D891E8986E08C831A830983E3
S11344C08FEF9FE79E838D83AE01475E5F4F6F89B9
S11344D0788DCE0101960E94E018EF81F885E00FF7
S11344E0F11F10822E96E4E00C949A1CFA01AA277C
S11344F0283051F1203181F1E8946F936E7F6E5F23
S11345007F4F8F4F9F4FAF4FB1E03ED0B4E03CD0D0
S1134510670F781F891F9A1FA11D680F791F8A1FB3
S1134520911DA11D6A0F711D811D911DA11D20D01A
S113453009F468943F912AE0269F11243019305DD4
S11345403193DEF6CF010895462F4770405D4193C5
S1134550B3E00FD0C9F7F6CF462F4F70405D4A3312
S113456018F0495D31FD4052419302D0A9F7EACFDA
S1134570B4E0A6959795879577956795BA95C9F709
S113458000976105710508959B01AC010A2E0694FC
S11345905795479537952795BA95C9F7620F731FB5
S11345A0841F951FA01D0895A6E1B0E044E050E0EB
S11345B00C940526A8E1B0E042E050E00C940526F6
S11345C00396272F0E9414260E941326252F0E944B
S11345D01426242F0C9414260196272F0E941426A7
S11345E00C9413266F927F929F92AF92BF92CF92B8
S11345F0DF92EF92FF920F931F93CF93DF93CDB788
S1134600DEB729970FB6F894DEBF0FBECDBF6A019F
S1134610B22E102F0C3320F4FF24F394F00E02C0BA
S11346204CE3F42E0F2D27E0AE014F5F5F4F0E9445
S1134630C9207981272F2970213031F0E1FC06C08F
S1134640E0FC06C060E005C06DE203C06BE201C09F
S113465060E2AE2DA07173FF36C0662311F084E0D2
S113466001C083E08B1510F4B81A01C0B12CA1115C
S11346700BC0F6018B2D90E2882319F091938150A1
S1134680FBCFCB0CD11CB12C662331F0F601608337
S113469096012F5F3F4F6901C6010396E2FE05C0F4
S11346A02EE4F601208331E404C02EE6F6012083D3
S11346B031E631832283FC012B2D30E22223F1F1F8
S11346C031932150FBCF72FF40C0662311F084E088
S11346D001C083E08B1510F4B81A01C0B12CA111EC
S11346E00BC0F6018B2D90E2882319F09193815031
S11346F0FBCFCB0CD11CB12C662331F0F6016083C7
S113470096012F5F3F4F6901C6010396E2FE07C081
S113471029E4F60120832EE4218326E406C029E659
S1134720F60120832EE6218326E62283FC012B2D2D
S113473030E2222319F031932150FBCFFC01EB0D21
S1134740F11D10828EEF9FEFB7C0B1E0611101C07F
S1134750B0E04B2F50E01816190624F49C012F5F8B
S11347603F4F02C021E030E0240F351F112329F010
S1134770412F50E04F5F5F4F02C040E050E0420FD6
S1134780531F2B2D30E04217530714F4B41A01C001
S1134790B12C2E2D287159F4F6012B2D30E2222351
S11347A019F031932150FBCFCB0CD11CB12CBB237E
S11347B031F0F601608396012F5F3F4F6901A1112B
S11347C00BC0F6012B2D30E3222319F03193215035
S11347D0FBCFCB0CD11CB12CF80E0A81372F3071D2
S11347E0A32E74FF03C0013309F4FA941F142CF4AC
S11347F02F2D293018F028E001C021E0682F392F2F
S113480097FF02C060E030E0462F532F612C712CDB
S11348103EE2932EBC01621B71099B01DC01A41BC7
S1134820B50BE1E0F0E0EC0FFD1FAE0FBF1FE12E72
S1134830F12CF194E194F1084F3FFFEF5F0731F45D
S1134840F6019082B6016F5F7F4F6B018417950765
S11348504CF02417350734F4BD01660D771DFB01B8
S1134860118101C010E341505109FFEF6F1A7F0A13
S1134870B6016F5F7F4F4E155F0524F0F60110837C
S11348806B01DACF4817590739F4063320F405339E
S113489019F4A11001C011E3F6011083FB018B2D63
S11348A090E2882319F091938150FBCFFB01EB0D2B
S11348B0F11D108280E090E029960FB6F894DEBFD7
S11348C00FBECDBFDF91CF911F910F91FF90EF905D
S11348D0DF90CF90BF90AF909F907F906F9008959E
S11348E0A0E0B0E0E6E7F4E20C94761C8B016115DD
S11348F0710521F0DB018C9311969C93EC015E0110
S1134900BFEFAB1ABB0A7501C8808C2D90E00E94E2
S1134910D325892B11F0E501F2CFEDE2CE1208C0C8
S11349207E01F2E0EF0EF11CC980DD24D39409C0AE
S11349302BE2C21205C07E0142E0E40EF11CC980E4
S1134940D12CE701219743E050E06AE473E0CE0103
S11349500E94DB25892BC1F4239645E050E065E4F1
S113496073E0CE010E94DB25892B09F425960115FD
S1134970110519F0D801CD93DC93D11006C160E084
S113498070E080E89FE70AC143E050E062E473E02E
S1134990CE010E94DB25892B59F40115110509F478
S11349A0F9C0B2E0EB0EF11CF801F182E082F2C032
S11349B0F70160E070E0CB01C0E0D0E07F01A0ED42
S11349C0AA2EAC0C29E02A1530F14D2D4260B42EEC
S11349D02D2D2870D2FE04C0211125C0219623C09C
S11349E021112197A5E0B0E09B01AC010E9428268B
S11349F0660F771F881F991F6A0D711D811D911DF8
S1134A006839A9E97A078A07A9E19A0760F0BD2DF8
S1134A10B660BB2E08C02EEFA2120AC0D3FC50C051
S1134A204D2D4860B42E3196D701CC90DB2CC6CFE7
S1134A302C2D2F7D253409F043C0A081AD3241F4E3
S1134A40BD2DB061DB2E7F0122E0E20EF11C0CC013
S1134A507F01AB3231F04FEFE41AF40A21E030E089
S1134A6006C0A2E0EA0EF11CA18122E030E0A053CE
S1134A70AA3018F0E21AF30A23C0F70120E030E06C
S1134A802038BCE03B075CF4A901440F551F440FD8
S1134A90551F240F351F220F331F2A0F311DAF015D
S1134AA04F5F5F4F7A01A081A053AA3010F4FA013E
S1134AB0E7CFD4FE03C0319521953109C20FD31F2E
S1134AC0D1FE09C00115110531F0E1E0EE1AF1083B
S1134AD0D801ED92FC920E940E1E2D2D23702330DE
S1134AE019F04B015C0106C04B015C01B7FAB094AC
S1134AF0B7F8B09420E030E0A901C501B4010E94E8
S1134B006E1D882309F43EC0D7FF06C0D195C19518
S1134B10D10901E613E002C009E713E06801B8E136
S1134B20CB1AD10890E2E92EF12CCE15DF0574F0F2
S1134B30F8012591359145915491C501B4010E9424
S1134B40851F4B015C01CE19DF09EFCF0450110919
S1134B50F594E7940C151D0541F78A2D880F8B2DCC
S1134B60881F8F3F49F020E030E0A901C501B4015E
S1134B700E946E1D811106C082E290E0909311089C
S1134B8080931008C501B40109C060E070E080E8BA
S1134B909FEF04C060E070E080EC9FE7CDB7DEB724
S1134BA0ECE00C94921C911150C0803219F08950A1
S1134BB08550D0F70895FB01DC014150504088F046
S1134BC08D9181341CF08B350CF4805E65916134D9
S1134BD01CF06B350CF4605E861B611171F3990B4C
S1134BE00895881BFCCFDC01FC01672F71917723AA
S1134BF0E1F7329704C07C916D9370836291AE1794
S1134C00BF07C8F30895DC01CB01FC01F999FECF7D
S1134C1006C0F2BDE1BDF89A319600B40D92415040
S1134C205040B8F70895262FF999FECF92BD81BD63
S1134C30F89A019700B4021639F01FBA20BD0FB6D6
S1134C40F894FA9AF99A0FBE089599278827089537
S1134C500E94611CA59F900DB49F900DA49F800D90
S10D4C60911D11240895F894FFCF6C
S1134C6A008022440040044400C0134400C026C407
S1134C7A004025C400C00AC400000000000080BF30
S1134C8A00000000427574746F6E20737461746559
S1134C9A203D2000507265737365640A004368619D
S1134CAA726765207374617475733A20434841527C
S1134CBA47494E470A004368617267652073746105
S1134CCA7475733A2046554C4C0A00427574746FD5
S1134CDA6E20707265737365640A00427574746F2A
S1134CEA6E2072656C65617365640A005765206895
S1134CFA617665204E4F20436F6E6E656374696FEB
S1134D0A6E202874696D652D6F7574292E2E0A001C
S1134D1A42617474657279203D2000250A00415469
S1134D2A2B4E414D4542494B454E41560A0041548A
S1134D3A2B524F4C453D300A0041542B42415544B5
S1134D4A340A0041542B52455345540A00586D699C
S1134D5A6E3A0020586D61783A0020596D696E3AAE
S1134D6A0020596D61783A00205A6D696E3A002024
S1134D7A5A6D61783A002028526F74617465206410
S1134D8A657669636520756E74696C20616C6C2044
S1134D9A6178697320617265206174207468656939
S1134DAA72206D696E2F6D6178290A00536574202B
S1134DBA6C65640A005265736574206C65640A0044
S1134DCA526563656976656420636F72726563749C
S1134DDA20636F6F7264696E617465733A0A004C7A
S1134DEA6F636174696F6E3A002C002044657374B2
S1134DFA696E6174696F6E3A200044697374616EF6
S1134E0A6365203D20004B4D0A0042656172696E5C
S1134E1A67203D20006465670A0052656365697608
S1134E2A65642077726F6E6720636F6F7264696E50
S1134E3A61746520666F726D61740A00466C6173F1
S1134E4A686C69676874206D6F6465203D20544FEF
S1134E5A444F21200054656D7065726174757265E2
S1134E6A203D2000206465672E20432E0A00554900
S1134E7A206D6F64652B2B005549206D6F64652086
S1134E8A3D20004E617669676174696F6E20636FB5
S1134E9A6C6F72207365740A004E6F2076616C69B8
S1134EAA6420636F6D6D616E643A00202800696E38
S1134EBA2062203D3C003E0A004572726F722069EE
S1134ECA6E20666F726D61740A003B004C61742037
S1134EDA63757272203D2025302E3566004C6F6E44
S1134EEA2063757272203D2025302E3566004C6190
S1134EFA742064657374203D2025302E3566004C79
S1134F0A6F6E2064657374203D202025302E35662B
S1134F1A004E6F20636F727265637420636F6F72E1
S1134F2A64696E617465730A0041736B6564205326
S1134F3A2076616C75650A005265636569766564F5
S1134F4A20532076616C75650A0042555A5A4552B7
S1134F5A210A005265636569766564203D3C005602
S1134F6A616C756520746F6F206869676820746F57
S1134F7A20646973706C6179210A006465666175DD
S1134F8A6C74206572726F7220696E2055492063B1
S1134F9A617365210A00544F444F2053484F5720E8
S1134FAA55492044495354414E43450A00554E4BF2
S1134FBA4E4F574E20737461747573210A005368F7
S1134FCA6F727420707265737320616374696F6E93
S1134FDA2065786563757465640A004D6964646C58
S1134FEA6520707265737320616374696F6E2065DE
S1134FFA786563757465640A004C6F6E6720707215
S113500A65737320616374696F6E2065786563756F
S113501A7465640A004572726F7220696E20627543
S113502A74746F6E207072657373212028666978B0
S113503A21290A004465766963652073746174756D
S113504A73203D20004E4F20434F4E4E4543544952
S113505A4F4E0A004E415649474154494E470A00A9
S113506A425554544F4E20505245535345440A0016
S113507A425554544F4E204E4F5420505245535388
S113508A45440A004552524F52210A00437572722E
S113509A656E743A2000204E65773A2000204572E6
S11350AA726F723A2000204F75746C696572210A16
S11350BA00204F4B0A0046697273742074696D6547
S11350CA20737461727475702C20646F696E672022
S11350DA666163746F727920707265736574730A9A
S11350EA0042696B654E61762032303137205600B2
S11350FA544F444F3A20464958205541525420723D
S113510A65636569766520636F6F7264696E61743D
S109511A657321210A0067
S9030000FC
